:020000040800F2
:10F0000058FD0020D1F200082D3F01089D3601086F
:10F01000A93E0108D31001080959010800000000A9
:10F020000000000000000000000000000947010887
:10F03000B32E010800000000C94201085949010827
:10F04000EBF20008EBF20008EBF20008EBF200082C
:10F05000EBF20008EBF20008012F0108EBF20008C8
:10F06000EBF20008EBF20008EBF20008EBF200080C
:10F07000EBF20008EBF20008EBF20008EBF20008FC
:10F08000EBF20008EBF20008EBF200085116010861
:10F09000A91201088513010861140108EBF20008A8
:10F0A000EBF20008EBF20008EBF20008EBF20008CC
:10F0B000EBF20008154A01084D4C0108EBF200087C
:10F0C000EBF20008EBF20008EBF20008EBF20008AC
:10F0D000EBF20008DD540108595501088D5501086F
:10F0E000EBF20008EBF20008EBF200080000000071
:10F0F0000000000000000000000000000000000010
:10F100000000000000000000A94C0108EBF200081C
:10F1100075540108A9540108F14C0108EBF20008EC
:10F12000EBF20008EBF20008EBF20008EBF200084B
:10F13000EBF20008EBF20008EBF20008591D0108A1
:10F14000B11901088D1A0108691B0108EBF20008CA
:10F15000000000000000000000000000EFCDAB86C2
:10F16000746C6177020100000002620EA87609004B
:10F17000150000000C0000009F8601000000000048
:10F1800000F002F800F094F80AA090E8000C824425
:10F190008344AAF10107DA4501D100F089F8AFF202
:10F1A000090EBAE80F0013F0010F18BFFB1A43F065
:10F1B00001031847CC8B0000EC8B0000103A24BFF1
:10F1C00078C878C1FAD8520724BF30C830C144BFCC
:10F1D00004680C607047000000230024002500260E
:10F1E000103A28BF78C1FBD8520728BF30C148BFAA
:10F1F0000B6070476E2900F08782702900F0D18380
:10F20000662908F01885652908F01585672908F032
:10F2100012856129AFF3008003681B0A28BF41F003
:10F220008001692900F03482642900F03182752957
:10F2300000F02E826F2900F05F83782900F09D8313
:10F24000E92900F0F982E42900F0F682F52900F0BE
:10F25000F382EF2900F05C83F82900F09C830368B7
:10F26000DB0928BF41F08001632900F06C87732916
:10F2700000F07187E32900F07C87F32900F0818793
:10F28000002070471FB59DE8030000F069F900F009
:10F29000C9FF04000020002107F076FD401C6060DB
:10F2A0000020002107F086FDE0601FBD10B510BDF5
:10F2B00000F093FF1146FFF7E5FF06F02FFF01F086
:10F2C00063F803B4FFF7F2FF03BC01F091F800000C
:10F2D0000948804709480047FEE7FEE7FEE7FEE7EA
:10F2E000FEE7FEE7FEE7FEE7FEE7FEE70448054926
:10F2F000054A064B70470000A549010881F1000846
:10F3000058F1002058FD002058F9002058F900203D
:10F3100070B5064600F008F9056806F10B0020F00C
:10F320000704B4429CBF002070BD2B466A68BAB186
:10F330001068A04210D304F1080188423CBF506815
:10F34000586007D35168101941601168091B0160AA
:10F3500058601460101D70BD13465268002AE7D132
:10F360002146284600F0E8F80028DED170BD70B5CF
:10F370000446051F00F0D8F80068002C14BF44684C
:10F3800070BD002C18BFAC423CBF20466468F8D367
:10F3900001680A18AA4218BF456003D12A680546C9
:10F3A0001144016028684119A1421CBF6C6070BD06
:10F3B0006168696021680844286070BD7CB51D469D
:10F3C00016460C00009001D02044401E074B7B44A1
:10F3D0002A4669460190304600F0AFF905461CB157
:10F3E0000020694600F0BCF928467CBD9903000066
:10F3F000032A40F2308010F0030C00F0158011F861
:10F40000013BBCF1020F624498BF11F801CB00F838
:10F41000013B38BF11F8013BA2F1040298BF00F88C
:10F4200001CB38BF00F8013B11F0030300F0258049
:10F43000083AC0F0088051F8043B083A51F804CB70
:10F44000A0E80810F5E7121D5CBF51F8043B40F836
:10F45000043BAFF30080D20724BF11F8013B11F841
:10F4600001CB48BF11F8012B24BF00F8013B00F885
:10F4700001CB48BF00F8012B704710B5203AC0F00F
:10F480000B80B1E81850203AA0E81850B1E81850A5
:10F49000A0E81850BFF4F5AF5FEA027C24BFB1E8E2
:10F4A0001850A0E8185044BF18C918C0BDE8104053
:10F4B0005FEA827C24BF51F8043B40F8043B08BF5C
:10F4C0007047D20728BF31F8023B48BF11F8012B23
:10F4D00028BF20F8023B48BF00F8012B70474FF0CF
:10F4E00000020429C0F0128010F0030C00F02A83FF
:10F4F000CCF1040CBCF1020F18BF00F8012BA8BF1F
:10F5000020F8022BA1EB0C0100F01CBB5FEAC17CD0
:10F5100024BF00F8012B00F8012B48BF00F8012B95
:10F52000704770477047704700487047FCF00020F4
:10F53000704770477047704738B504460A46002048
:10F540006946AFF30080002808BF38BD0246009925
:10F55000204600F029FB012038BD012000F035BE17
:10F56000F8B5AFF30080054600200C46102000BF20
:10F570000646A819A0420DD9324669460020AFF3CD
:10F580000080070008BF00F020FE0098A04218BFCE
:10F590000546C419FFF7C8FF05600746F01D20F0B7
:10F5A00007004619284600F00AF8B44208BFF8BD23
:10F5B000A21B31463868BDE8F84000F0F5BA0021DA
:10F5C0000160C0E9011070471020704770B5044613
:10F5D00085690068C10601D5302600E02026C007F5
:10F5E00007D070BDD4E9012130469047206A401C05
:10F5F00020626D1EF6D570BD70B504468569007831
:10F60000C00707D170BDD4E9012120209047206AAE
:10F61000401C20626D1EF6D570BD09684A0501D5F3
:10F6200040B27047C905FCD500B2704709684A0569
:10F6300001D5C0B27047C905FCD580B2704770B51E
:10F640000C460546012A05D02878800600D5EA69CF
:10F65000002302E0012305E05B1C934202D2E05C40
:10F660000028F9D1A869E618C01AA861286A1844C8
:10F6700028622846FFF7AAFF04E0D5E9012114F823
:10F68000010B9047B442F8D32846FFF7B5FF70BD91
:10F690002DE9F0410646002410687529314616A56B
:10F6A00010D0FFF7BAFF002802DA404213A507E0A6
:10F6B00031688A0701D512A502E0490704D511A5D2
:10F6C000012401E0FFF7B2FF00210A2206F124071E
:10F6D00009E0B0FBF2FCB0FBF2F302FB1C0030309F
:10F6E00078541846491C0028F3D123462A46304650
:10F6F000BDE8F04100F0B7BA000000002D000000A6
:10F700002B0000002000000011680268006A530509
:10F7100001D508700AE0D30501D5088006E013067C
:10F7200003D5C217C1E9000200E00860012070475C
:10F7300001694A1C02610878704700B58FB0CDE9B5
:10F7400001310021059105497944CDE903101146A5
:10F75000684600F031F90FB000BD0000E5FFFFFF83
:10F760000A6802F8010B0A607047D1E900239A4247
:10F7700002D2531C0B601070704700002DE9FF5F30
:10F7800015468A460446DFF8AC80F8440027D8E9DD
:10F7900000103E46CDE9001010E03AF816106A4617
:10F7A00002A800F0F2FC411C07D02178890603D59D
:10F7B000E269391891420DD80744761C20788006FA
:10F7C00002D5E069B84205DDAE42E6DB3AF8160044
:10F7D0000028E2D1A069C01BA0612046FFF7F6FE19
:10F7E000D8E90010CDE90010002017E03AF8181011
:10F7F0006A4602A800F0C9FCB0F1FF3F81460BD079
:10F8000000250DF1080B05E0D4E901211BF80500E6
:10F8100090476D1C4D45F7D308F10100B04280467A
:10F82000E4DB206A384420622046FFF7E5FEBDE8AD
:10F83000FF9F00001A8500002DE9F0418046D21D8F
:10F8400022F007020025D2E90002F52915A614D0FE
:10F85000011E72F1000106DA0023D0EB030063EB16
:10F86000020211A608E0D8F800108B0701D50FA6F8
:10F8700002E0490701D50EA601251146002408F132
:10F88000240704E000F0AAF930323A55641C50EA2B
:10F890000102F7D12B46324621464046BDE8F041F1
:10F8A00000F0E1B9000000002D0000002B00000076
:10F8B0002000000030B4002100F1240408E002F030
:10F8C0000705D208303542EA4372DB086554491C0B
:10F8D00052EA0305F3D10468002310A2250708D5D6
:10F8E00004F020040C4304D0C46901230CA2641E5C
:10F8F000C46130BC00F0B7B910B5044621461068A9
:10F90000FFF794FE02462046BDE810400023D1E7F1
:10F91000D21D22F00701D1E90023CBE7000000004F
:10F9200030000000F0B40D460188090502D5214CD5
:10F930007C4402E01F4C7C440E34002100F124067C
:10F9400008E002F00F071209E75D42EA03721B09A3
:10F950007754491C52EA0307F3D1027800231207B7
:10F9600004D5702D06D009B1022311342246F0BC13
:10F9700000F079B901231034F8E770B504460D465C
:10F9800021461068FFF752FE024629462046BDE890
:10F9900070400023C6E7D21D22F00703D3E90023FD
:10F9A000C0E70368126843F0200303600823C361C3
:10F9B0000023B7E77C8300002DE9F05F8946044609
:10F9C0004FF0000ADFF874B1FB44C0F820A02046D5
:10F9D000E1688847002874D0252806D0D4E90121A1
:10F9E0009047206A401C2062F1E700265F462046CF
:10F9F000E16888472028054607DB312D05D27819B4
:10FA000010F8200C08B10643F1E7B00701D526F045
:10FA10000406C4F81CA00027C4F818A02A2D09D099
:10FA2000284605F087FF38B304EB8708303DC8F857
:10FA3000185019E059F8041B204604EB8702916125
:10FA4000E1688847012F054618D1E069002820DACF
:10FA500026F020061DE0D8F8180000EB800005EB2A
:10FA600040003038C8F818002046E168884705464D
:10FA700005F060FF0028EED1012F0AD02E2D08D10D
:10FA80002046E16888477F1C0546022F46F0200685
:10FA9000C4DBA069002803DA404246F00106A061F9
:10FAA000F00701D026F010066C2D0BD0682D09D080
:10FAB0004C2D39D06A2D35D0742D35D07A2D33D0D8
:10FAC00016E038E0E1682F4620468847B8420546F0
:10FAD00009D16C2F26D04FF48060E16806432046A0
:10FAE0008847054604E06C2F1AD04FF48070064317
:10FAF0000DB3A5F14100192802D8203546F400665F
:10FB00004A462946204626604E46FFF773FB80B1E1
:10FB100001280BD0F61D26F0070000F1080956E772
:10FB20004020E4E78020D8E70020D6E706F104096A
:10FB30004DE7284652E7206ABDE8F09F0C8300009D
:10FB40004FF0000200B5134694469646203922BF76
:10FB5000A0E80C50A0E80C50B1F12001BFF4F7AFC1
:10FB6000090728BFA0E80C5048BF0CC05DF804EBA3
:10FB7000890028BF40F8042B08BF704748BF20F811
:10FB8000022B11F0804F18BF00F8012B70470000C6
:10FB900000487047F4F0002010B500F043FB001D52
:10FBA00010BD00BFE5710000034640688C46002888
:10FBB00018BF88423CBF03464068F8D31868184411
:10FBC000884207D00CF1030020F00700001D411A05
:10FBD000521A0146081D0A60FFF7C9BB30B5B0F1E3
:10FBE0000A024FEA900E71F100034EEA817EB0EBFB
:10FBF0000E0061EB91014FEA101E4EEA017E10EB00
:10FC00000E0041EB11114FEA102E4EEA016E10EB7F
:10FC10000E0041EB11214FEA104E4EEA014E10EB5F
:10FC20000E0041EB1141401841F100014FEAD000B4
:10FC300040EA41704FEAD10110EB80054FEA8104A0
:10FC400044EA907444EB01046D1944EB0404521B24
:10FC5000A3414FF0000348BF0A3200D530BD401C1D
:10FC600041F1000130BD2DE9F0470D46994692461D
:10FC7000044600F124080168880604D5E06921F0F3
:10FC80001001216000E00120A84201DD471B00E0D7
:10FC90000027A1697A1902EB0900081AA0612078EF
:10FCA000C00602D42046FFF791FC002608E0D4E904
:10FCB00001211AF806009047206A401C761C206239
:10FCC0004E45F4DB2078C0060AD52046FFF77EFCBF
:10FCD00006E0D4E9012130209047206A401C2062D0
:10FCE000381EA7F10107F4DC07E0D4E9012118F878
:10FCF00005009047206A401C2062281EA5F10105DE
:10FD0000F3DC2046FFF778FC2078000602D50220BD
:10FD1000BDE8F0870120FBE770472DE9FF4F0C4657
:10FD20001E464FF0FF378BB0D2E90001DDF860804E
:10FD30000A908A46C1F30A5505B93D460021084696
:10FD40004FF00000BAF1000F00F4400005DA00EBBC
:10FD500080004FF4400101EA50004FEA9059B9F198
:10FD6000010F00DDB9460A9850EA4A000ED044F669
:10FD70001050A5F2FF3545432F14B8F1000F1ED0E7
:10FD80007542291E1EDDC9F100021CE0B8F1010F09
:10FD90004FF0000001D0302103E0F24305E0215490
:10FDA000401CB042FBDB30460022002121540B995D
:10FDB000C1F80880C1E900200FB0BDE8F08FBD1B7D
:10FDC0006D1CDEE74A4600DA694206A800F06EFACA
:10FDD00006AB93E8070003AB83E8070050460A9997
:10FDE00000F06DFB8DE80700A0F500501F38009073
:10FDF0000398002D09DD42F21F014A46084403A979
:10FE00000390684600F0CCFD08E0A0F500504A469B
:10FE10001F3803A90390684600F0D6FD8DE807005F
:10FE20000004000C03D04FF0FF30410800E0104602
:10FE3000B8F1000F03D00022009215461EE0751E97
:10FE400005D4FFF7CBFE303262556D1EF9D5B346AF
:10FE50000122084302D000227F1C04E020783028D1
:10FE600001D100227F1E002A099786D01DE0112DA6
:10FE700007DAFFF7B3FE303262556D1C50EA01021B
:10FE8000F5D1084302D00098C8B10EE00021681EE9
:10FE900005E0235C625C63542254401E491C81428D
:10FEA000F7DBAB46A81B401E0990002004F80B00AE
:10FEB0000B98099AC0F80880C0E9002B7CE711264E
:10FEC0004FF0000859E72DE9F04F88460446D21D4F
:10FED00022F0070191B0D1E90001CDE90A0105F056
:10FEE00015FD02460B98C00F01D02D2007E02068B9
:10FEF000810701D52B2002E0202101EAC000032A5E
:10FF0000099001D0072A05DB03464146204600F050
:10FF10008DF90BE12078800601D5E06900E006202C
:10FF2000B8F1650F814606D0B8F1660F18D0B8F168
:10FF3000670F70D131E00020B9F1110F009001DBA3
:10FF4000112301E009F101030AAA01A90CA8FFF796
:10FF5000E4FEDDE90C70002609F10105834647E067
:10FF600001204B4600904FF000470AAA01A90CA8B7
:10FF7000FFF7D3FEDDE90DB00C995D46002610B900
:10FF800009F101000D18B9EB050003D4C0F1FF36EB
:10FF900009F10105A5EB09002BE0B9F1010F01DA28
:10FFA0004FF001090020B9F1110F0090484601DD22
:10FFB000112300E003460AAA01A90CA8FFF7ADFE31
:10FFC000DDE90C704D4600268346207800070AD4F0
:10FFD000AB4500DA5D4601A8012D04DD411911F899
:10FFE000011C302907D04F4502DA17F1040F04DA5B
:10FFF000012082460FE06D1EEEE7002F02DCED1BB4
:020000040801F1
:100000003E4403E0781CA84200DD7D1CB81B00F1D3
:10001000010A4FF000472078000703D4AA4501DB0E
:100020004FF0FF3A0021B7F1004F0DF143088DF872
:10003000431024D002202B23002F01DA7F422D23EE
:100040000A21021EA0F1010000DC5FB197FBF1FC68
:1000500097FBF1F201FB1C7C17460CF1300C08F801
:1000600001CDEEE7A8F1010003702188090501D553
:10007000452100E06521A0F1010800F8011C099864
:100080000FA9A1EB0807FF1D00B10120411901EBE9
:10009000EA70A1693844081A401EA0612078C006A1
:1000A00002D42046FFF792FA099828B1D4E9012139
:1000B0009047206A401C20622078C00622D5204646
:1000C000FFF784FA1EE0002E04DBB34502DD01A831
:1000D000805D00E03020D4E901219047206A401C77
:1000E0002062761CAAF101005FEA000A0AD100F042
:1000F00099F8C0680168405CD4E901219047206A02
:10010000401C2062281EA5F10105DCDC07E0D4E9D3
:10011000012118F8010B9047206A401C2062381E0C
:10012000A7F10107F3DC2046FFF766FA032011B0C0
:1001300043E610B5436913B1AFF3008001E0FFF768
:100140007EFA012010BD127800F124010A7000220D
:100150004A700122EDE711684FF0FF32E9E710B570
:10016000436913B1AFF3008001E0FFF707FB012003
:1001700010BD128800F1240182840022C284012271
:10018000EDE711684FF0FF32E9E770B516460C460F
:100190000546FFF701FD036893F80101012806D029
:1001A000FF2C0FD8185D68B101202C7070BDD3F8FA
:1001B00007013246214603F2071303442846BDE8EF
:1001C000704018474FF0FF3070BD10B500F0E8F8F0
:1001D000BDE8104000F0DEB870477546FFF7D8FC68
:1001E000AE4605006946534620F00700854618B024
:1001F00020B5FFF77BF8BDE820404FF000064FF038
:1002000000074FF000084FF0000B21F00701AC464B
:10021000ACE8C009ACE8C009ACE8C009ACE8C0096A
:100220008D4670470048704714F100202DE9F041D9
:100230001F46044603260168072A01F4006004DB18
:1002400008B116A505E016A503E008B115A500E064
:1002500015A521F010002060A069C01EA0610FB19B
:10026000401EA0612046FFF7B1F94FB1D4E901214A
:1002700038469047206A401C2062C01C206206E07D
:10028000206AFAE7D4E9012115F8010B9047761EA0
:10029000F8D22046FFF7B0F9BDE8F0814E414E009C
:1002A0006E616E00494E4600696E66002DE9F047AA
:1002B000814616468AB0334878440DC88DE80D0053
:1002C00030487844801C03AC0DC884E80D0041F62A
:1002D0009B300844372190FBF1F290FBF1F5A5F13A
:1002E000800501FB12041B3C02D56442012000E0A2
:1002F0000020DFF890A080460027FA44AAF1BE0A49
:100300000DE0E00709D03246684607EB47010AEBEB
:10031000810100F059FB8DE8070064107F1C002C60
:10032000EFD1184F7F44AC3F18E0E80714D007EB3B
:1003300004100DF1180A90E80E008AE80E00C0685B
:10034000F04201D198190890324606A903A800F09E
:100350003BFB03AB83E807006D10641C002DE4D168
:1003600032466946B8F1000F03A802D000F018FB2E
:1003700001E000F029FBC9E90001C9F808200AB032
:10038000BDE8F087AC7A00000446AFF30080204659
:10039000FEF797FF002801D000F02AB87047000050
:1003A00010B5012805D0002103A000F027F8012096
:1003B00010BD09A1F8E7000053494752544D454D7F
:1003C0003A204F7574206F662068656170206D65F6
:1003D0006D6F7279000000003A2048656170206DF1
:1003E000656D6F727920636F7272757074656400E9
:1003F00001491820ABBEFEE72600020070B5054695
:100400000C460A2000E06D1C00F052F835B1287847
:100410000028F8D102E0641C00F04AF814B12078FA
:100420000028F8D1BDE870400A2000F041B8000073
:100430004FF0013C50F8042B51F8043B9A4221D173
:10044000A2EB0C03934313EACC1317D150F8042BFF
:1004500051F8043B9A4215D1A2EB0C03934313EAE3
:10046000CC130BD150F8042B51F8043B9A4209D11C
:10047000A2EB0C03934313EACC13DBD04FF0000044
:10048000704700BFD01A01BAB1FA81F101F018012A
:1004900022FA01F0CB40C1F12001DBB2C0B2C01A98
:1004A0002CFA01F3D11A914311EAC311E6D1704736
:1004B00008B569468DF800000320ABBE08BD5FEAB1
:1004C000400C08BF91F0000F4FEA8C234FEAC12285
:1004D00043EA51514FEA1C5018BF00F5F0404FEA73
:1004E000300018BF41F000415FEA6C5C00F02980E9
:1004F000BCF1FF3F08BF40F080407047130C06BFBF
:1005000012044FF0100C4FF0000C130E04BF120237
:100510000CF1080C130F04BF12010CF1040C930F23
:1005200004BF92000CF1020CD30F04BF52000CF177
:10053000010C11464FF00002A0F11F00A0EB0C00CF
:10054000704711F0004F08BF704731F000413FF491
:10055000D5AF0B0C06BF09044FF0100C4FF0000C88
:100560000B0E04BF09020CF1080C0B0F04BF0901AC
:100570000CF1040C8B0F04BF89000CF1020CCB0FA3
:1005800004BF49000CF1010CCCF12003A0EB0C00DE
:1005900022FA03F302FA0CF241EA030100F101002E
:1005A000704720F07F4C80EA030023F07F47ACEBDC
:1005B000070303F57C5300F0004003F1FF032DE92E
:1005C00080494FEA154B09B44FEA144325EA0B4E14
:1005D00024EA03480FF2042606EB132749083E7865
:1005E0005FEA320203FB0667C7F5000707FB06F662
:1005F0004FEA54374FEAD64606F1020607FB066C6F
:10060000CCF1005C4FEA1C472CEA074C07FB06F4D0
:100610000CFB06F504EB15464FEA961634BF002096
:100620004FF000404FEAD13706FB07FC4FEA1C4C65
:100630000CFB0BF7D21B03FB0CF761EB07010CFB68
:100640000EF7B0EB074072EB17420CFB08F734BF14
:10065000A2EB0742B2EB074261EB17414FEA0C44B1
:100660004FEA910706FB07FC4FEA1C4C0CFB0BF70B
:10067000B0EBC74072EB573203FB0CF734BFA2EB71
:10068000C742B2EBC74261EB57310CFB0EF7B0EB40
:10069000C70072EB57720CFB08F734BFA2EBC7021E
:1006A000B2EBC70261EB5771039F4FEA816141EAE8
:1006B000921104EBCC044FEAD1374FEA826206FB79
:1006C00007FC42EA90124FEA80604FEA1C4C0CFB98
:1006D0000BF7D21B03FB0CF761EB07010CFB0EF7CA
:1006E000B0EB074072EB17420CFB08F734BFA2EBEC
:1006F0000742B2EB074261EB17414FEA8C554FEAD4
:10070000910704EB9C2406FB07FC4FEA1C4C0CFBF6
:100710000BF7B0EBC74072EB573203FB0CF734BF5B
:10072000A2EBC742B2EBC74261EB57310CFB0EF7AD
:10073000B0EBC70072EB57720CFB08F734BFA2EBAB
:10074000C702B2EBC70261EB577115EB4C254FEABC
:10075000816141EA92114FEA82624FEAD13742EA5F
:10076000901206FB07FC44F100044FEA80604FEA58
:100770001C4C0CFB0BF7D21B03FB0CF761EB0701C6
:100780000CFB0EF7B0EB074072EB17420CFB08F7BF
:1007900034BFA2EB0742B2EB074261EB174115EB06
:1007A0001C154FEA813141EA92414FEA823242EA16
:1007B00090424FEA80304FEA0C7644F1000448EA58
:1007C00003434EEA0B484FF0000EB2EB080C71EBFE
:1007D000030724BF624639464EEB0E0E4FF0000B66
:1007E0000018524149414BEB0B0BB2EB080C71EB7B
:1007F00003077BF1000B24BF624639464EEB0E0E19
:100800004FF0000B0018524149414BEB0B0BB2EB80
:10081000080C71EB03077BF1000B24BF62463946DD
:100820004EEB0E0E51EA020718BF46F0010616EB1A
:100830000E7655F1000254F1000103D5BDE889019F
:10084000BDE80088BDE88901BDE80048B6195241FD
:1008500041EB0101A3F10103704780807F7E7D7C25
:100860007B7A7978777676757473727171706F6E42
:100870006E6D6C6C6B6A6A696868676666656464ED
:10088000636362616160605F5F5E5E5D5D5C5C5B77
:100890005B5A5A59595858575756565555555454E6
:1008A000535352525251515050504F4F4F4E4E4D44
:1008B0004D4D4C4C4C4B4B4B4A4A4A494949484890
:1008C00048474747474646464545454444444443D0
:1008D00043434342424242414141002B26D47700E8
:1008E00021D01CB54FEA370703B44FF010004FF08A
:1008F00010014FF000000FBCBDE810400BF1010BE0
:10090000BBF1010F08BF5FEA170722BF12F1010216
:1009100011F101014FF0004143F1000300F00040EC
:1009200043EA00007047F9D35708DAE746EA06467B
:1009300013F1400F4FEA16461FDD13F1200FDFBF02
:1009400016430A46002120335B42C8D0C3F120077A
:1009500046EA064602FA07F74FEA164646EA07064F
:10096000C3F1200722FA03F201FA07F721FA03F193
:100970004FF0000342EA0702B1E746EA020646EA00
:1009800006464FEA164646EA0106BCBF46EA064658
:10099000360C4FF000034FF000024FF000019EE7CD
:1009A0002DE9C048934630B491E8380007C831EAD1
:1009B000400C48BF34EA430C03D5FFF7F2FDFFF7C4
:1009C0008CFFF0BCBDE800882DE9C048934630B4E8
:1009D00091E8380007C810F0804F08BF13F0804F2F
:1009E00003D100F005F8FFF778FFF0BCBDE8008800
:1009F00020F07F4780EA030023F07F4C07EB0C03D5
:100A0000A3F57C5300F00040A3F1FE0392F0000F29
:100A100000F0B38095F0000F00F077802DE90149D8
:100A20004FEA11404FEA144621EA004800FB06FC59
:100A300024EA064708FB06F607FB08F800FB07F761
:100A400018EB06484CEB164C4FEA124B18EB0748D4
:100A50004FEA15464CEB174022EA0B4E0BFB06FC07
:100A600025EA06470EFB06F607FB0EFE0BFB07F713
:100A70001EEB064E4CEB164C4FF000061EEB074EDD
:100A80004CEB174B18EB0B0840F1000018EB0E0B6A
:100A900058EB000840F100008F1A4FF000013CBFF6
:100AA000C943661B14BFB5EB040C00213CBFC9430E
:100AB000F61B4FEA17444EEA8E0E27EA04454FEA2A
:100AC0001C4704FB07622CEA074C05FB07F70CFBED
:100AD00005F604FB0CFC16EB074642EB174216EB3F
:100AE0000C4642EB1C421BEB060658EB020241414E
:100AF00046EA9E0601D5BDE80189B619524141EB8F
:100B00000101A3F10103BDE801894FEA14454FEA51
:100B1000114724EA054621EA074C05FB07F406FBCA
:100B200007F70CFB06F105FB0CFC11EB074144EB4E
:100B300017444FEA124711EB0C4144EB1C4422EAE4
:100B4000074C05FB07F206FB07F70CFB06F605FB57
:100B50000CFC16EB074642EB174216EB0C4642EB39
:100B60001C456A1854F1000148BF7047B61952413C
:100B700041EB0101A3F10103704795F0000F37D05D
:100B80004FEA11424FEA144721EA024624EA074C91
:100B900002FB07F106FB07F70CFB06F402FB0CFC5B
:100BA00014EB074441EB17414FEA154714EB0C4493
:100BB00041EB1C4125EA074C02FB07F506FB07F752
:100BC0000CFB06F602FB0CFC16EB074645EB174543
:100BD00016EB0C4645EB1C42121951F1000148BFBF
:100BE0007047B619524141EB0101A3F1010370476F
:100BF0004FEA14454FEA114724EA054621EA074C1B
:100C000005FB07F106FB07F70CFB06F24FF00006A9
:100C100005FB0CFC12EB074241EB174112EB0C42B7
:100C200051EB1C4148BF7047921841EB0101A3F101
:100C3000010370472DE9F04F87B0002085490880F7
:100C400081468549086000BF0221844800F080F990
:100C50000028F9D00221814800F01AF97F4800F0FD
:100C600073F9064640F2B71171434800C11700EB13
:100C70009151C1F38F21774A1180002404E00020B4
:100C8000774941F82400641C062CF8DB744800689E
:100C900060B94FF00009002405E06E4800887049F3
:100CA00041F82400641C062CF7DB24E06948008826
:100CB0006B4941F8290009F10100062190FBF1F28E
:100CC00001FB120000F0FF090020624908800025A6
:100CD00008E0634830F825005E49098808445D490A
:100CE00008806D1C062DF4DB5A480088062190FB15
:100CF000F1F0584908805748008806F0D7FD019068
:100D000006F006FD07460022564B06F0E3FA0022E5
:100D1000554BCDE9020106F049F9824606F060F82C
:100D20004D4908600846006806F0F2FC07464F4A45
:100D30004F4B06F0CDFB18D84748006806F0E8FC9A
:100D400007464A4A4B4B06F089FA0ED242480068E1
:100D500006F0DEFC0746484A484B06F073F8824628
:100D600006F03EF83C49086067E03B48006806F042
:100D7000CFFC07463D4A3F4B06F0AAFB18D8364841
:100D8000006806F0C5FC074600223D4B06F066FAF7
:100D90000ED23148006806F0BBFC8246364A374B1B
:100DA00006F050F8074606F01BF82B49086044E0AF
:100DB0002948006806F0ACFC07460022314B06F0DB
:100DC00087FB18D82448006806F0A2FC0746274A8B
:100DD000284B06F043FA0ED21F48006806F098FC34
:100DE0000746254A254B06F02DF8824605F0F8FF08
:100DF0001949086021E01848006806F089FC074698
:100E00000022214B06F064FB17D81348006806F057
:100E10007FFC074600221B4B06F020FA0DD20E483D
:100E2000006806F075FC0746134A144B06F00AF8F2
:100E3000824605F0D5FF0849086004A90648006805
:100E400005F09CF811480499C0F8031007B0BDE8FC
:100E5000F08F000012000020140000200024014048
:100E600050020020000059400088C340CDCCCCCCBB
:100E7000CCCC3340CCCC3B409A9999999999E93F95
:100E800000004240000024400000184008000020FC
:100E900000220A12D3430360704721B1826842F0F6
:100EA0000102826003E0826822F0010282607047E2
:100EB00000B585B00121480203F040FB4FF400402B
:100EC00003F010FB002000908DF8040001208DF845
:100ED00005004FF4602002900020039001208DF85F
:100EE00010006946124800F047F805230122114618
:100EF0000F4800F069F801210D48FFF7CEFF0C48BC
:100F000000F0BEF800BF0A4800F02BF80028FAD124
:100F1000074800F0C5F800BF054800F00BF80028AE
:100F2000FAD10121024800F0B0F805B000BD000080
:100F300000240140014600208A6802F004020AB140
:100F4000012000E0002070470146C86C80B2704765
:100F50000246002013680B400BB1012000E0002086
:100F60007047014600208A6802F008020AB1012099
:100F700000E000207047000030B50246002000234A
:100F800050680F4C20400D790C6844EA052420433A
:100F9000506090680B4C2040D1E902542C434D79AD
:100FA00044EA450420439060D06A20F470000C7C31
:100FB000641EE4B2234340EA0350D06230BD000017
:100FC000FFFEF0FFFDF7F1FFF0B504460D460020EF
:100FD0000021092D11DDE068A5F10A0606EB4607A0
:100FE000072606FA07F18843A5F10A0606EB46062E
:100FF00003FA06F10843E0600CE0206905EB4507C1
:10100000072606FA07F1884305EB450603FA06F1C1
:1010100008432061072A0FDA606B561E06EB86072D
:101020001F2606FA07F18843561E06EB860605FAC8
:1010300006F10843606322E00D2A0FDA206BD61F09
:1010400006EB86071F2606FA07F18843D61F06EB34
:10105000860605FA06F10843206310E0E06AA2F173
:101060000D0606EB86071F2606FA07F18843A2F154
:101070000D0606EB860605FA06F10843E062F0BDB0
:10108000816841F008018160704721B1826842F4B3
:10109000A002826003E0826822F4A00282607047AE
:1010A000816841F004018160704700B585B06846F1
:1010B00003F064FA019805B000BD10B54FF4A060CC
:1010C00002F06EFF4FF470414FF0006002F072FFCB
:1010D00010BD00BFFEE7000070B58AB004460D46A3
:1010E00016464FF480626949694800F07DFF684800
:1010F000A060684820600121092003F01FFA012147
:10110000480603F0FBF94FF48070ADF82400482046
:101110008DF8270009A9604802F080F94FF40070AB
:10112000ADF8240003208DF8260018208DF8270044
:1011300009A9594802F072F901214FF4EA1002F0AE
:10114000F9F913208DF8040002208DF80500032022
:101150008DF8060001208DF8070001A802F0E8FED6
:1011600014208DF8040001A802F0E2FE15208DF88D
:10117000040001A802F0DCFE16208DF8040001A88E
:1011800002F0D6FE434800F0DDFF02A801F024FB88
:1011900000208DF80E0001208DF80F0000208DF842
:1011A000100001208DF811008DF812008DF8130049
:1011B00000208DF80A008DF80B0008208DF80C0037
:1011C00007208DF80D003548B0FBF5F080B2ADF882
:1011D000080002A92F4801F047F9012E18D100207C
:1011E0008DF81E008DF81F0001208DF820000020D2
:1011F000ADF81400ADF81600ADF81800ADF81A00FF
:10120000ADF81C0001208DF8210005A800F0C2FFF8
:10121000012211461F4801F01EF94FF48062204957
:10122000204800F0E1FE1F486060012202211948B9
:1012300001F011F901221021164801F00CF94FF4C8
:1012400080621249124800F0CFFE1148A0600122CE
:101250005102104801F0FFF8012211020D4801F07F
:10126000FAF8012291020B4801F0F5F80122D102AF
:10127000084801F0F0F80122D103064801F0EBF82C
:101280000121044801F089F90AB070BD580C002012
:101290004C0C002000640040000C014080841E00C3
:1012A000706C0020646C00201FB5002220213248A1
:1012B00001F0D1F8002240212F4801F0CCF842E0A3
:1012C0002E48006800902D48001D006800F00F00B7
:1012D0008DF80C00294808300068C0B28DF8040071
:1012E000264808300068010A8DF8051023480830A8
:1012F0000068010C8DF80610204808300068000EC8
:101300008DF807001D480C300068C1B28DF8081038
:101310001A480C300068010A8DF8091017480C3083
:101320000068010C8DF80A1014480C300068000E9B
:101330008DF80B000021104800F020FF104988684C
:10134000694600F05DFE00210B4801F017F9002806
:10135000B6D10421084800F0A1FE0821064800F09B
:101360009DFE01222021044801F075F80122402150
:10137000014801F070F81FBD00640040B0650040F6
:10138000340C00201FB500220421324801F063F81C
:10139000002208212F4801F05EF842E02E48006844
:1013A00000902D48001D006800F00F008DF80C0023
:1013B000294808300068C0B28DF80400264808307B
:1013C0000068010A8DF80510234808300068010CF8
:1013D0008DF80610204808300068000E8DF80700D0
:1013E0001D480C300068C1B28DF808101A480C3046
:1013F0000068010A8DF8091017480C300068010CCC
:101400008DF80A1014480C300068000E8DF80B009F
:101410000121104800F0B2FE10498868694600F0CA
:10142000EFFD01210B4801F0A9F80028B6D12021D9
:10143000084800F033FE4021064800F02FFE01224C
:101440000421044801F007F801220821014801F0B5
:1014500002F81FBD00640040C0650040340C00204D
:10146000F8B54FF48071454800F054FF012812D1BF
:1014700000BF43480088052807D105F0F5FB054665
:101480002A4640A1484803F041FA00BF4FF480715A
:101490003A4800F003FE4FF40071384800F03AFF7C
:1014A000012812D100BF36480088052807D105F071
:1014B000DBFB05462A463DA13B4803F027FA00BF67
:1014C0004FF400712D4800F0E9FD4FF480612B4886
:1014D00000F020FF012812D100BF2948008805280C
:1014E00007D105F0C1FB05462A4639A12E4803F075
:1014F0000DFA00BF4FF48061204800F0CFFD4FF49B
:1015000000611E4800F006FF012818D11B4800F0BA
:1015100097FF0446241100BF19480088052808D108
:1015200005F0A2FB054623462A4632A11E4803F0D9
:10153000EDF900BF4FF40061104800F0AFFD00BFAF
:101540000F480088052811D10C4800F073FF0546AC
:101550000A4800F07BFF064605F086FB0746334647
:101560003A462EA11048009503F0D0F900BF4FF481
:101570000041024800F092FDF8BD00000064004008
:101580000400002024555458542C253038642C4332
:10159000414E31205343453A2043414E5F49545F09
:1015A0004557470D0A0000007CCC002024555458B4
:1015B000542C253038642C43414E31205343453A56
:1015C0002043414E5F49545F4550560D0A000000CC
:1015D00024555458542C253038642C43414E312026
:1015E0005343453A2043414E5F49545F424F460DB5
:1015F0000A00000024555458542C253038642C43DC
:10160000414E31205343453A2043414E5F49545F98
:101610004C45433D25640D0A0000000024555458F4
:10162000542C253038642C43414E31205343453AE5
:10163000204552524F5220434F4E5554455220524E
:10164000583D25642C2054583D25640D0A000000A7
:1016500010B58AB03A493B4800F020FE012816D167
:101660000021384801F05CF968B900BF36480088AD
:10167000052807D105F0F8FA0446224633A13F4871
:1016800003F044F900BF2E492E4800F0EBFC2C4932
:10169000FF312C4800F002FE012817D10121294812
:1016A00001F03EF968B900BF27480088052807D136
:1016B00005F0DAFA0446224631A1304803F026F953
:1016C00000BF1F49FF311F4800F0CCFC38491D48BE
:1016D00000F0E4FD012816D102211A4801F020F99A
:1016E00068B900BF18480088052807D105F0BCFA82
:1016F000044622462FA1214803F008F900BF2C49D7
:10170000104800F0AFFC01210E4800F0C7FC0DE0CE
:1017100001A9344800F03CFC00B90EE001A905A87D
:1017200000F0F0FB05A9074801F066F8054808300D
:10173000006800F0E0500028EAD100BF0AB010BDF8
:101740000100003800640040040000202455545873
:10175000542C253038642C43414E312054583A20C3
:101760004D41494C424F582030207472616E736D68
:101770006974206661696C65640D0A007CCC002088
:1017800024555458542C253038642C43414E312074
:1017900054583A204D41494C424F582031207472E0
:1017A000616E736D6974206661696C65640D0A0011
:1017B0000000013824555458542C253038642C43EB
:1017C000414E312054583A204D41494C424F582007
:1017D00032207472616E736D6974206661696C6524
:1017E000640D0A00646C002070B58AB004460D4692
:1017F00016464FF400726749674800F0F5FB6648EB
:10180000A060664820600121092002F097FE0121B6
:10181000880602F073FE4FF48050ADF82400482093
:101820008DF8270009A95E4801F0F8FD4FF400503B
:10183000ADF8240003208DF8260018208DF827002D
:1018400009A9574801F0EAFD3F208DF80400022065
:101850008DF8050003208DF8060001208DF80700A3
:1018600001A802F065FB40208DF8040001A802F0F9
:101870005FFB41208DF8040001A802F059FB4220D3
:101880008DF8040001A802F053FB444800F05AFC14
:1018900002A800F0A1FF00208DF80E0001208DF8B5
:1018A0000F0000208DF8100001208DF811008DF838
:1018B00012008DF8130000208DF80A008DF80B003F
:1018C00008208DF80C0007208DF80D003548B0FB7E
:1018D000F5F080B2ADF8080002A9304800F0C4FD70
:1018E000012E19D10E208DF81E0000208DF81F004A
:1018F00001208DF820000020ADF81400ADF816008E
:10190000ADF81800ADF81A00ADF81C0001208DF8F4
:10191000210005A800F03EFC012211461F4800F0FE
:101920009AFD4FF400722049204800F05DFB1F48EB
:10193000606001220221194800F08DFD0122102172
:10194000164800F088FD4FF400721249124800F06A
:101950004BFB1148A06001225102104800F07BFDB2
:10196000012211020D4800F076FD012291020B4880
:1019700000F071FD0122D102084800F06CFD012247
:10198000D103064800F067FD0121044800F005FE80
:101990000AB070BD644C0020584C00200068004024
:1019A000000C014080841E007CAC002070AC002044
:1019B0001FB500222021324800F04DFD00224021B9
:1019C0002F4800F048FD42E02E48006800902D4866
:1019D000001D006800F00F008DF80C002948083049
:1019E0000068C0B28DF80400264808300068010A7B
:1019F0008DF80510234808300068010C8DF806109A
:101A0000204808300068000E8DF807001D480C3093
:101A10000068C1B28DF808101A480C300068010A3D
:101A20008DF8091017480C300068010C8DF80A1069
:101A300014480C300068000E8DF80B00002110488F
:101A400000F09CFB10498868694600F0D9FA002133
:101A50000B4800F093FD0028B6D10421084800F09F
:101A60001DFB0821064800F019FB01222021044833
:101A700000F0F1FC01224021014800F0ECFC1FBD08
:101A800000680040B0690040400C00201FB50022F3
:101A90000421324800F0DFFC002208212F4800F02A
:101AA000DAFC42E02E48006800902D48001D0068D6
:101AB00000F00F008DF80C00294808300068C0B213
:101AC0008DF80400264808300068010A8DF80510DA
:101AD000234808300068010C8DF8061020480830B3
:101AE0000068000E8DF807001D480C300068C1B278
:101AF0008DF808101A480C300068010A8DF809109A
:101B000017480C300068010C8DF80A1014480C308E
:101B10000068000E8DF80B000121104800F02EFB2C
:101B200010498868694600F06BFA01210B4800F003
:101B300025FD0028B6D12021084800F0AFFA402149
:101B4000064800F0ABFA01220421044800F083FCAF
:101B500001220821014800F07EFC1FBD0068004002
:101B6000C0690040400C0020F8B54FF48071454832
:101B700000F0D0FB012812D100BF4348008805289F
:101B800007D105F071F805462A4640A1484802F001
:101B9000BDFE00BF4FF480713A4800F07FFA4FF469
:101BA0000071384800F0B6FB012812D100BF36485A
:101BB0000088052807D105F057F805462A463DA1BB
:101BC0003B4802F0A3FE00BF4FF400712D4800F027
:101BD00065FA4FF480612B4800F09CFB012812D17C
:101BE00000BF29480088052807D105F03DF80546C3
:101BF0002A4639A12E4802F089FE00BF4FF48061C9
:101C0000204800F04BFA4FF400611E4800F082FBC0
:101C1000012818D11B4800F013FC0446241100BF12
:101C200019480088052808D105F01EF80546234606
:101C30002A4632A11E4802F069FE00BF4FF400613F
:101C4000104800F02BFA00BF0F480088052811D17A
:101C50000C4800F0EFFB05460A4800F0F7FB06468B
:101C600005F002F8074633463A462EA11048009583
:101C700002F04CFE00BF4FF40041024800F00EFAA3
:101C8000F8BD0000006800400400002024555458AE
:101C9000542C253038642C43414E32205343453A6E
:101CA0002043414E5F49545F4557470D0A000000ED
:101CB0007CCC002024555458542C253038642C43B7
:101CC000414E32205343453A2043414E5F49545FD1
:101CD0004550560D0A00000024555458542C253008
:101CE00038642C43414E32205343453A2043414E01
:101CF0005F49545F424F460D0A0000002455545876
:101D0000542C253038642C43414E32205343453AFD
:101D10002043414E5F49545F4C45433D25640D0AC5
:101D20000000000024555458542C253038642C43AE
:101D3000414E32205343453A204552524F522043A0
:101D40004F4E555445522052583D25642C2054582E
:101D50003D25640D0A00000010B58AB03E493F4899
:101D600000F09CFA01281DD100213C4800F0D8FD6C
:101D700088B900BF3A480088052807D104F074FFED
:101D80000446224637A1434802F0C0FD00BF0020B0
:101D90004149087002E001203F4908702E492F4850
:101DA00000F060F92C49FF312C4800F077FA012847
:101DB00017D10121294800F0B3FD68B900BF2848B8
:101DC0000088052807D104F04FFF0446224633A1BE
:101DD000304802F09BFD00BF1F49FF311F4800F053
:101DE00041F93A491D4800F059FA012816D102215B
:101DF0001A4800F095FD68B900BF19480088052809
:101E000007D104F031FF0446224631A1214802F0F7
:101E10007DFD00BF2D49114800F024F901210F4834
:101E200000F03CF90DE001A9354800F0B1F800B927
:101E30000EE001A905A800F065F805A9074800F023
:101E4000DBFC06480830006800F0E0500028EAD1CA
:101E500000BF0AB010BD000001000038006800405B
:101E60000400002024555458542C253038642C4349
:101E7000414E322054583A204D41494C424F58204F
:101E800030207472616E736D6974206661696C656F
:101E9000640D0A007CCC0020BA0000202455545860
:101EA000542C253038642C43414E322054583A206B
:101EB0004D41494C424F582031207472616E736D10
:101EC0006974206661696C65640D0A000000013860
:101ED00024555458542C253038642C43414E32201C
:101EE00054583A204D41494C424F58203220747288
:101EF000616E736D6974206661696C65640D0A00BA
:101F000070AC002070B505460C46A07B6872A07BC3
:101F100010B90020687203E0A07B022800D168722B
:101F2000607B80B90020287218480078022802D10E
:101F30002068286020E01548007803281CD120681C
:101F4000400D286018E0607B042815D128720F48E6
:101F50000078022802D1206868600DE00B48007804
:101F6000032803D12068C008686005E007480078AE
:101F7000012801D120686860207BA872227B211D86
:101F800005F10B00FDF734FA70BD0000530000208E
:101F900070B502461AB1906808B1908808B900205F
:101FA00070BD10885588A84201D10020F8E7158837
:101FB000906800EB0514207B0873206808600023FC
:101FC00005E0201DC55C081DC554581C83B2087B64
:101FD0009842F6DC1088401C958890FBF5F605FBCE
:101FE000160010800120DBE700B970470023038052
:101FF0004380816009B9838000E0828000BFF4E7FC
:10200000F0B502461AB1906808B1908808B901206D
:10201000F0BD5088401C968890FBF6F706FB170031
:1020200085B21088A84201D10120F1E7087B082879
:1020300001DD082008735688906800EB0614087BC1
:10204000207308682060002305E0081DC65C201D81
:10205000C654581C83B2087B9842F6DC5580002099
:10206000D6E7000000220C4B994202D10023836185
:1020700011E0C1F3130201F000730BB1C2600AE07A
:1020800001F080630BB1026105E001F000630BB168
:10209000826000E0426070477000F030B1F5007F70
:1020A0003AD00FDC202928D006DC01291CD00429D5
:1020B0001DD0082940D11DE0402921D0B1F5807FF5
:1020C0003AD126E0B1F5004F31D006DCB1F5806F92
:1020D00025D0B1F5006F2FD124E0B1F5803F12D0AB
:1020E000B1F5003F28D111E0154A826025E00822B1
:1020F000C26022E01022C2601FE0082202611CE0E0
:102100001022026119E00822426016E010224260AB
:1021100013E00422426010E0042242600DE0042239
:1021200042600AE0002282610422426005E000224F
:1021300082610422426000E000BF00BF70470000DF
:102140000101010010B504460B48844209D1012168
:10215000480602F0E3F900214FF0007002F0DEF9CA
:1021600008E00121880602F0D9F900214FF08060D3
:1021700002F0D4F910BD00000064004021B9C2682B
:1021800042F02002C26003E0026942F020020261D4
:102190007047000010B50021837A012202FA03F192
:1021A0003D4A126842F001023B4B1A603A4A1C3227
:1021B00012688A43384B1C331A60027BCAB9364A0C
:1021C0000C3212688A43344B0C331A604288C3883D
:1021D00042EA0343304A4032847A42F8343002887B
:1021E000838842EA03432C4A4032847A02EBC402D9
:1021F0005360027B012A19D1274A0C3212680A4324
:10220000254B0C331A604288038842EA0343224A72
:102210004032847A42F83430C288838842EA0343E9
:102220001D4A4032847A02EBC4025360C27A3AB942
:10223000194A121D12688A43174B1B1D1A6006E0CB
:10224000154A121D12680A43134B1B1D1A6002899E
:1022500032B9114A143212688A430F4B14331A6090
:102260000289012A06D10C4A143212680A430A4B29
:1022700014331A60427B012A06D1074A1C321268C5
:102280000A43054B1C331A60034A126822F001020C
:10229000014B1A6010BD00000066004010B50246F8
:1022A000002001F4700343B19369C1F31304234088
:1022B0000BB101202DE000202BE001F0807343B131
:1022C0005368C1F3130423400BB1012021E0002027
:1022D0001FE001F0006343B19368C1F3130423408E
:1022E0000BB1012015E0002013E001F0007343B1B1
:1022F000D368C1F3130423400BB1012009E000208F
:1023000007E01369C1F3130423400BB1012000E07F
:10231000002010BD70B504460D46002660692840B7
:10232000002871D0B5F5807F5CD010DC082D35D049
:1023300006DC012D20D0022D24D0042D72D127E0FF
:10234000102D31D0202D35D0402D6BD138E0B5F592
:10235000004F60D009DCB5F5007F49D0B5F5806F3E
:102360004CD0B5F5006F5DD14FE0B5F5803F2DD075
:10237000B5F5003F56D12FE0A0682D4900F00EFCC6
:10238000064651E0E068032100F008FC06464BE0F9
:10239000E068082100F002FC064645E0E0681021F4
:1023A00000F0FCFB06463FE02069032100F0F6FB4D
:1023B000064639E02069082100F0F0FB064633E0CC
:1023C0002069102100F0EAFB06462DE06068082134
:1023D00000F0E4FB064627E06068102100F0DEFB19
:1023E000064621E0A069012100F0D8FB06461BE06B
:1023F000A069022100F0D2FB064615E0A069042185
:1024000000F0CCFB06460FE00FE0A069702100F061
:10241000C5FB064608E06068042100F0BFFB0646E5
:1024200002E0FFE7002600BF00E00026304670BD56
:1024300001010100014600208A69C2F3074070478C
:10244000014600208A6902F07000704701460020B2
:102450008A69100E70471AB143690B43436102E069
:1024600043698B434361704730B502460020002327
:10247000146824F002041460146844F00104146029
:1024800000E05B1C546804F001041CB94FF6FF74B3
:10249000A342F6D1546804F001040CB900206CE0AA
:1024A0008C79012C04D1146844F08004146003E09A
:1024B000146824F080041460CC79012C04D11468D1
:1024C00044F04004146003E0146824F040041460F5
:1024D0000C7A012C04D1146844F02004146003E049
:1024E000146824F0200414604C7A012C04D1146880
:1024F00044F01004146003E0146824F01004146025
:102500008C7A012C04D1146844F00804146003E0B0
:10251000146824F008041460CC7A012C04D11468E7
:1025200044F00404146003E0146824F0040414600C
:102530008C78A407CD7844EA05640D7944EA054413
:102540004D7944EA05540D886D1E2C43D4611468FE
:1025500024F001041460002300E05B1C546804F0C4
:1025600001041CB14FF6FF74A342F6D1546804F085
:1025700001040CB1002000E0012030BD0246002023
:1025800019B9D36803F0030006E0012903D11369E8
:1025900003F0030000E00020704710B502460B4630
:1025A00000204FF6FF71BBB9146824F0020444F018
:1025B0000104146000E0491E546804F00304012C77
:1025C00001D00029F7D1546804F00304012C01D094
:1025D000002032E0012030E0012B13D1146824F0F8
:1025E0000304146000E0491E546804F003040CB1B5
:1025F0000029F8D1546804F003040CB100201CE059
:1026000001201AE0022B17D1146824F0010444F0D1
:102610000204146000E0491E546804F00304022C14
:1026200001D00029F7D1546804F00304022C01D032
:10263000002002E0012000E0002010BD2DE9F04F55
:102640008FB007468B4615464FF6FF79CA46394884
:1026500001680068401C374A106005A840F82170E6
:10266000104600680A2802D300201146086032484C
:102670000078012803D100208DF80E0006E02E48D6
:102680000078022802D10E208DF80E0000208DF86F
:102690000F0001208DF810000598C0F34F30ADF801
:1026A0000400042D07D10421059801EBC00080B27D
:1026B000ADF8060009E0062D07D10421059801EBCD
:1026C000C000801C80B2ADF806006FF060440026A8
:1026D0000AE005A850F826000599C94380EA0108D8
:1026E00004EA0804701CC6B2124800688642F0D39F
:1026F000E4004FF6FF7000EA1440ADF80800042D26
:1027000005D1A0B240F00400ADF80A0006E0062DA5
:1027100004D1A0B240F00600ADF80A000020ADF8E8
:102720000C0001208DF8110001A8FFF733FD0FB058
:10273000BDE8F08F1C000020540000202DE9F04778
:102740009EB080468946924622480078012803D1EF
:1027500000208DF80E0006E01E480078022802D105
:102760000E208DF80E0000208DF80F0001208DF84E
:102770001000BDF814004FF6FF7101EA4010ADF8EB
:1027800004000020ADF806004D11322600240AE0B6
:1027900005A830F81400BDF81410C943484087B2AA
:1027A0003D40601CC4B2B442F2DB4FF6FF7000EA59
:1027B0004510ADF808000020ADF80A00ADF80C0097
:1027C00001208DF8110001A8FFF7E4FC1EB0BDE860
:1027D000F08700005400002000218171C171017256
:1027E00041728172C1728170C17003210171022135
:1027F000417101210180704710B5024600209368A5
:1028000003F08063B3F1806F00D110E0936803F0B0
:102810000063B3F1006F01D1012008E0936803F079
:102820008053B3F1805F01D1022000E0042004282E
:1028300074D002F5C07303EB00131B6803F00104AE
:1028400002F5C07303EB00131C600B7A7BB94B7A63
:102850000C8843EA445302F5C07404EB0014246866
:10286000234302F5C07404EB0014236010E00B7ADC
:102870004C6843EAC4034C7A234302F5C07404EB6A
:1028800000142468234302F5C07404EB0014236091
:102890008B7A03F00F038B7202F5C07303EB001306
:1028A0005B6823F00F0402F5C07303EB00135C6058
:1028B00002F5C07303EB00135B688C7A234302F5C7
:1028C000C07404EB001463608B7B1C064B7B44EAF2
:1028D00003440B7B44EA0323CC7A234302F5C07400
:1028E00004EB0014A3608B7C1C064B7C44EA03447D
:1028F0000B7C44EA0323CC7B234302F5C07404EB36
:102900000014E36002F5C07303EB00131B6843F08F
:10291000010402F5C07303EB00131C6010BD00003E
:1029200010B50246002321B1012907D002290FD199
:1029300009E09068264C00EA04030BE09068254CFF
:1029400000EA040306E09068234C00EA040301E077
:10295000002300BF00BF214C181BA34219D007DC85
:1029600083B16FF08060184470B102282AD11AE058
:10297000B0F5007F1CD01A4C204478B1B0F5003F70
:1029800020D11AE002231FE000230020154C207004
:102990001AE000230020134C207015E000230020D3
:1029A000104C207010E0012301200E4C20700BE031
:1029B000012301200B4C207006E001230120094C6B
:1029C000207001E0002300BF00BFD8B210BD00009E
:1029D00003000004000300080000031000010008C9
:1029E0000001FFF7D000002070B5044600251570E7
:1029F0001D7024B91AB913B9002900DA70BD00207E
:102A000009E01578265C354415701D781678354434
:102A10001D70451CA8B28842F3DB00BFEEE770B51D
:102A200004460D4604B10DB9002070BDA06808B978
:102A30000020FAE72946A068FFF7AAFA06463046C2
:102A4000F3E70000F0B58BB004460E4617460020B1
:102A50000590012C03D0022C01D00BB0F0BD06B1C3
:102A600007B9FAE758E000F035FE8DF818400198F4
:102A700000F002008DF812000198000E8DF8190088
:102A80000198000C8DF81A000198000A8DF81B00BF
:102A90000198C0B28DF81C009DF810008DF81D0043
:102AA000002506E002A8415DA81D06AA1154681C75
:102AB000C5B29DF81000A842F4DC41201A49087004
:102AC0009DF8120070B99DF81000801D0590491CFA
:102AD00005A803F001F80E2206A91348C01CFCF754
:102AE00087FC11E09DF8120002280DD10520059009
:102AF0000D49491C05A802F0EFFFBDF8142006A9F6
:102B00000948C01CFCF774FCBDF81400401D82B2DB
:102B10000549064804F015F801A93046FFF77FFF84
:102B20000028A0D100BF98E7B002002094CC00207C
:102B3000F0B585B004460E4604B116B9012005B0C3
:102B4000F0BD20684769002201212068FFF783FC5F
:102B5000606850B969462068FFF74EFE042801D02E
:102B6000012000E00020054610E031466846FFF7EE
:102B7000C9F969462068FFF73FFE042805D13146B0
:102B80006068FFF73DFA054600E0002507F0010206
:102B900001212068FFF75FFC2846D0E702460020AD
:102BA00002EA01030BB1012000E0002070470000A1
:102BB0007CB504460D4616464FF400722249234860
:102BC00001F067FC2148A060214820600121052018
:102BD00001F0B4FC0121880301F0B0FC4FF48060E7
:102BE000ADF8000004208DF803006946194800F094
:102BF00015FC4FF40070ADF8000003208DF80200C2
:102C000018208DF803006946124800F007FC2520C3
:102C10008DF8040000208DF805008DF806000120D5
:102C20008DF8070001A801F083F9324629460848CB
:102C300000F090F84FF400720749084801F029FCB1
:102C4000064860607CBD0000D0CC0020C4CC0020D1
:102C50000038014000080140E8DE0020DCDE0020F2
:102C60007CB504460D4616464FF48052334934482D
:102C700001F00FFC3248A060324820600121092099
:102C800001F05CFC0121880401F038FC4FF4006085
:102C9000ADF8000004208DF8030069462A4800F0D2
:102CA000BDFB4FF48060ADF8000003208DF80200FA
:102CB00018208DF803006946234800F0AFFB272059
:102CC0008DF8040001208DF8050002208DF8060023
:102CD00001208DF8070001A801F02AF932462946A3
:102CE000184800F037F84FF480521849184801F09E
:102CF000D0FB17486060002240F66A11114802F0CC
:102D000014FD002240F646010E4802F00EFD00229E
:102D100040F226610B4802F008FD002240F22441F7
:102D2000084802F002FD00222821064802F0FDFCBE
:102D300000226021034802F0F8FC7CBDDCCE0020BC
:102D4000D0CE002000480040000C0140F4E00020FC
:102D5000E8E000207FB506460D461446304602F0F6
:102D60005FFC684602F07BFD0020ADF80C0000958A
:102D70000C20ADF80A0004F0010010B1012809D1BF
:102D800003E00020ADF8040008E04FF48050ADF8F7
:102D9000040003E00020ADF8040000BF00BF04F011
:102DA000300020B1102806D020280ED108E00020E5
:102DB000ADF808000DE04FF4C060ADF8080008E081
:102DC0004FF48060ADF8080003E00020ADF8080083
:102DD00000BF00BF04F0C00010B1802809D103E09B
:102DE0000020ADF8080008E04FF40050ADF80800EE
:102DF00003E00020ADF8080000BF00BF6946304680
:102E000002F0B8FC012240F22551304602F08DFC60
:102E1000012240F22771304602F087FC0121304642
:102E200002F0F2FB7FBD70B504460D4604B10DB94A
:102E3000002070BDA06808B90020FAE72946A06804
:102E400001F00AFB06463046F3E770B504460E462D
:102E500004B970BD606858B900BF8021206802F0D5
:102E60002DFC0028F9D03146206802F0F4FC0DE07A
:102E700000BF3146606801F018FB0546012240F2B0
:102E80002771206802F051FC012DF2D000BFE0E76D
:102E900070B505460C4605B104B970BD04E014F8E0
:102EA000011B2846FFF7D1FF20780028F7D100BF8B
:102EB000F3E7704707E04FF4E16100BF0A00A1F1BA
:102EC0000101FBD1401E0028F5D1704770B50446C2
:102ED00004B970BD267906F0F00525B1102D06D095
:102EE000202D0AD104E0204601F054FA05E000BF8D
:102EF0002146284601F0EAF900BF00BF00BFE8E71D
:102F000070B5012000F040F900287DD0012000F0CC
:102F100035F956480078002876D10024A2E0012136
:102F2000534800F04FFB0546002D4CD15149087025
:102F300051480078401C5049087008460078022823
:102F400040D100BF4D480088052807D103F08CFE12
:102F5000064632464AA14F4801F0D8FC00BF002087
:102F6000454908704C480078012814D100BF4348F7
:102F70000088052807D103F077FE0646324647A1B0
:102F8000444801F0C3FC00BF002043490870002101
:102F90004D4801F0F5FF4D480078002860D100BF92
:102FA00036480088052807D103F05EFE0646324603
:102FB00047A1384801F0AAFC00BF06224F495048FB
:102FC00003F0BFFD4CE000202B4908702948007831
:102FD000401C2849087008460078022840D100BFEC
:102FE00026480088052807D103F03EFE06463246F3
:102FF00044A1284801F08AFC00BF00201D49087048
:1030000025480078B0B900E02FE000BF1B480088D9
:10301000052807D103F028FE064632463FA11D4889
:1030200001F074FC00BF01201B49087001212648F3
:1030300001F0A6FF4448007890B900BF0F4800880F
:10304000052807D103F010FE064632463FA111487D
:1030500001F05CFC00BF06224749294803F071FDDE
:10306000601CC4B2032CFFF65AAF70BD8E00002066
:10307000000801403B0000203A000020040000202E
:1030800024555458542C253038642C616363206FC8
:103090006E0D0A007CCC00203D00002024555458C1
:1030A000542C253038642C45585449305F495251CE
:1030B00048616E646C65723A436C6F736520546945
:1030C0006D6572360D0A00000010004057000020A8
:1030D00024555458542C253038642C4558544930C4
:1030E0005F49525148616E646C65723A53656E6413
:1030F00020416363204F6E0D0A0000004400002051
:1031000094CC002024555458542C253038642C611C
:103110006363206F66660D0A000000002455545852
:10312000542C253038642C45585449305F4952514D
:1031300048616E646C65723A4F70656E2054696DBB
:103140006572360D0A0000005600002024555458C0
:10315000542C253038642C45585449305F4952511D
:1031600048616E646C65723A53656E6420416363B6
:10317000204F66660D0A00004A00002001490860E1
:103180007047000014040140014600200022074B54
:103190001B6803EA0102054B14331B680B4013B193
:1031A0000AB1012000E00020704700000004014047
:1031B0000149C860704700000020024030B5044655
:1031C00004254FF4302000F06FF80546042D17D188
:1031D0000C48006940F002000A4908610846446151
:1031E000006940F0400008614FF4302000F05CF8C6
:1031F00005460448006941F6FD710840014908612F
:10320000284630BD0020024004200B49C96801F067
:10321000010109B101200EE00749C96801F004016C
:1032200009B1022007E00449C96801F0100109B1A1
:10323000032000E00420704700200240034800699A
:1032400040F0800001490861704700000020024002
:1032500070B504460D460426F00200F025F8064637
:10326000042E11D10948006940F0010007490861A6
:103270002580F00200F018F806460448006941F67F
:10328000FE71084001490861304670BD00200240CF
:103290000248034948600348486070472301674576
:1032A00000200240AB89EFCD00B502460423FFF7B2
:1032B000ABFF034603E0FFF7A7FF0346521E012BB7
:1032C00001D1002AF7D102B90523184600BD00003C
:1032D00008B50121042001F031F90120ADF800000A
:1032E00003208DF8020004208DF803006946484849
:1032F00000F094F80220ADF8000003208DF80200E1
:1033000004208DF803006946414800F087F84FF427
:103310000060ADF8000003208DF8020010208DF849
:10332000030069463A4800F079F84FF400613848E4
:1033300000F051F91020ADF8000003208DF80200D4
:1033400010208DF803006946314800F067F810211D
:103350002F4800F040F94FF48070ADF800000320D2
:103360008DF8020010208DF803006946284800F00F
:1033700055F84FF48071264800F02DF94FF4805035
:10338000ADF8000003208DF8020004208DF8030042
:1033900069461F4800F042F84020ADF800000320C5
:1033A0008DF8020010208DF803006946194800F0DE
:1033B00035F84021174800F010F94FF40040ADF8FF
:1033C000000003208DF8020004208DF803006946F8
:1033D000104800F023F80120ADF8000003208DF81C
:1033E000020004208DF8030069460B4800F016F82F
:1033F0004FF40060ADF8000003208DF802000420B7
:103400008DF803006946034800F008F808BD000085
:1034100000080140000C0140001001402DE9F0417E
:10342000024600250026002000230024002791F8F2
:1034300003C00CF00F0591F803C00CF0100CBCF1A8
:10344000000F03D091F802C04CEA050591F800C0C6
:10345000BCF1000F31D0146800202BE04FF0010CBC
:103460000CFA00F3B1F800C00CEA03069E4220D12A
:1034700083004FF00F0C0CFA03F7BC4305FA03FC72
:103480004CEA040491F803C0BCF1280F06D14FF0B8
:10349000010C0CFA00FCC2F814C00AE091F803C059
:1034A000BCF1480F05D14FF0010C0CFA00FCC2F83A
:1034B00010C0401C0828D1D31460B1F800C0BCF182
:1034C000FF0F34DD546800202EE000F1080C4FF0AF
:1034D000010808FA0CF3B1F800C00CEA03069E429A
:1034E00021D183004FF00F0C0CFA03F7BC4305FA0F
:1034F00003FC4CEA040491F803C0BCF1280F05D189
:1035000000F1080C08FA0CF8C2F8148091F803C016
:10351000BCF1480F07D100F1080C4FF0010808FA80
:103520000CF8C2F81080401C0828CED35460BDE8C7
:10353000F0810000F0B50A46002300240021002598
:1035400000F00046B6F1004F02D11D4EF16901E0D6
:103550001B4E7168C0F3034583B200F44016B6F504
:10356000401F08D121F07061154E766826F0706614
:10357000134F7E6012E000F48016B6F5801F06D16E
:10358000032606FA05F4A14341F0706106E0460DFA
:10359000360103FA06F6B14341F0706122B1460DDF
:1035A000360103FA06F6314300F00046B6F1004F4B
:1035B00002D1034EF16101E0014E7160F0BD0000E7
:1035C000000001400246002093680B400BB101202F
:1035D00000E00020704741617047016170470000C2
:1035E00038B5052501217C2000F0A8FF002425E046
:1035F000294800EB04100088012805DD264800EB6F
:1036000004100088042800DB17E0234800EB0410B6
:10361000008980B2ADF8000003208DF802001E483A
:1036200000EB0410007B8DF803001B4901EB041133
:1036300048686946FFF7F2FE00BF641CAC42D7D36E
:10364000002425E0144800EB04100088012805DA66
:10365000114800EB04100088002800DC17E00E4839
:1036600000EB0410008980B2ADF8000003208DF853
:103670000200094800EB0410007B8DF803000649A6
:1036800001EB041148686946FFF7C8FE00BF641CDF
:10369000AC42D7D338BD0000587C010800BFFEE71C
:1036A00070B505460C4645F2555000F02BF82846FB
:1036B00000F01CF8204600F01FF800F00FF800F0B2
:1036C00001F870BD4CF6CC4001490860704700001D
:1036D0000030004010B500F001F810BD4AF6AA20F5
:1036E000014908607047000000300040014948600F
:1036F00070470000003000400149886070470000BA
:103700000030004001490860704700000030004070
:103710007FB5044600251E480078012803D100200B
:103720008DF80A0006E01A480078022802D10E201F
:103730008DF80A0000208DF80B0001208DF80C0098
:10374000C4F34F30ADF800004FF6FF7000EAC4003C
:10375000001DADF802006FF06045E04384EA00060A
:103760003540ED004FF6FF7000EA1540ADF804005B
:10377000A8B240F00200ADF806000020ADF8080045
:1037800001208DF80D006846FEF704FD7FBD0000A6
:10379000540000202DE9FF41064600252F480078FF
:1037A000092852DA2D4801780078401C2B4A107005
:1037B0002B4840F821602B480078012803D10020D5
:1037C0008DF80A0006E027480078022802D10E2072
:1037D0008DF80A0000208DF80B0001208DF80C00F8
:1037E0001F480068C0F34F30ADF800001C48008847
:1037F000042101EBC00080B2ADF802006FF060451B
:1038000000240AE0164850F8240015490968C94305
:1038100080EA01073D40601CC4B210480078844231
:10382000F0DBED004FF6FF7000EA1540ADF8040044
:10383000A8B2ADF806000020ADF8080001208DF810
:103840000D006846FEF7A6FC06E00448007809284B
:1038500002DBFF2001490870BDE8FF81380000202D
:1038600068020020540000207FB504460D46002069
:103870008DF80E0004208DF80D0014480560E378E3
:10388000A27861782678C6F3820000F089FA009069
:10389000207900F00F008DF80C009DF80C20611DC0
:1038A00001A8FBF7A5FD0A480078012804D1694664
:1038B0000848FFF73DF907E005480078022803D1E2
:1038C00069460548FFF734F97FBD0000B4000020C9
:1038D00054000020340C0020400C002038B5044671
:1038E0000020009004B938BD0C2000900C496846B7
:1038F00002F0F2F80A49891C204602F0F7F808485D
:10390000801D61680160A1684160BDF80000401D34
:1039100082B20349491E034803F013F900BFE2E7EE
:103920009B00002094CC00202DE9F0438BB005468D
:103930000E46904600200A90012D04D0022D02D0A0
:103940000BB0BDE8F08316B1B8F1000F00D1F7E776
:10395000D3E06E480078012874D1019800F0040784
:103960002FB940F2FF71019801EA505906E0042F87
:1039700004D16FF06041019801EAD00900245DE0B4
:10398000634850F82400484556D18DF814500198EA
:1039900000F002008DF81200019800F004008DF88C
:1039A00011000198000E8DF815000198000C8DF89B
:1039B00016000198000A8DF817000198C0B28DF822
:1039C00018009DF810008DF81900002406E002A8E8
:1039D000015DA01D05AA1154601CC4B29DF8100021
:1039E000A042F4DC9DF8120060B90E200A9049490B
:1039F0000AA802F071F80E2205A94648801CFBF7C0
:103A0000F7FC10E09DF8120002280CD105200A9066
:103A100040490AA802F060F8BDF8282005A93D48F1
:103A2000801CFBF7E5FCBDF82800401D82B2394937
:103A3000491E394803F085F8601CC4B2092C5CDAD1
:103A40009EE7FFE731480078002856D18DF81450E2
:103A5000019800F002008DF81200019800F00400B7
:103A60008DF811000198000E8DF815000198000CDA
:103A70008DF816000198000A8DF817000198C0B261
:103A80008DF818009DF810008DF81900002406E04C
:103A900002A8015DA01D05AA1154601CC4B29DF8C6
:103AA0001000A042F4DC9DF8120060B90E200A90CC
:103AB00018490AA802F010F80E2205A91548801C22
:103AC000FBF796FC10E09DF8120002280CD10520AF
:103AD0000A9010490AA801F0FFFFBDF8282005A9A7
:103AE0000C48801CFBF784FCBDF82800401D82B206
:103AF0000849491E084803F024F801A93046FEF79A
:103B00008EFF00287FF425AF00BF19E7BB0000201F
:103B1000680200202500002094CC00202DE9F0410F
:103B2000044600270CB9BDE8F0812068C0F30746C1
:103B3000EC2E0CD006DCE82E7ED0EA2E7DD0EB2ECB
:103B40007CD15DE0EE2E7AD0FE2EF9D1B8E0E07A9D
:103B50004FF47F0101EA0041A07A4FF47F4202EA6C
:103B600000200144607A0F1859480078B0BB5948CA
:103B700090F8FE0090BB2079102812D10120544902
:103B800008702078534981F8F600E07A110201EAC2
:103B90000041A07A02EA00200144607A08444D49BD
:103BA0000860A0794FF47F4101EA00216079084460
:103BB00085B2F02D04DD0320464981F8FE0084E043
:103BC0004448A0F8F450E079424981F8FC0040F202
:103BD000E240A1F8FA00012081F8FE003C4800789C
:103BE00001280CD13B4890F8FE00012802D00228A1
:103BF00004D102E000F0E2F800E000BF00BF64E0A2
:103C0000344890F8FE00022838D161792079401EAE
:103C1000C0EBC0022F48001D8154A2792079401EBC
:103C2000C0EBC000401C2B49091D0A54E2792079E1
:103C3000401EC0EBC00003E041E03EE044E03DE058
:103C4000801C0A54227A2079401EC0EBC000C01CA0
:103C50000A54627A2079401EC0EBC000001D0A544D
:103C6000A27A2079401EC0EBC000401D0A54E27ABF
:103C70002079401EC0EBC000801D0A5420791549F0
:103C800091F8FD10884206DD124890F8FD00401CB6
:103C9000104981F8FD0040F2EE200E49A1F8FA002B
:103CA000084690F8FD0091F8FC10884204D10120EC
:103CB000084981F8FE0008E007E006E005E004E0BE
:103CC0002046FFF70BFE00E000BF00BF00BF2AE761
:103CD000AE000020340B002070B505460C4620785D
:103CE00020F002002070207920F0F000207120796F
:103CF00000F00F00082804DD207920F00F000830C4
:103D0000207129462046FFF7AFFD70BD70B504460F
:103D1000002504B970BD206941782048007861F31E
:103D200084001E490870EA2048702069C0788870B5
:103D30000846007920F00F00C01C08712069007946
:103D4000C870206940794871206981791348817170
:103D50000021C171FF21017241728172C172017330
:103D60002079012814D1206940792169897940EAB4
:103D700001260A480078C0F382002843850445EAFA
:103D8000060005020548807805432846FFF7C0FC79
:103D900002492046FFF7A0FF00BFBBE7240B00202D
:103DA00030B50446002040EA846041EA104528040A
:103DB00042EA10252802184330BD00000FB59DF8D7
:103DC000001021F01C011C318DF800109DF800102E
:103DD00021F001018DF80010EC218DF801101B4934
:103DE00091F8F6108DF802109DF8041021F00F01E3
:103DF00008318DF804101549086891F8FC10134A31
:103E000092F8FD2091421FDD11218DF8051002224C
:103E10008DF806200D4991F8FD10491CCAB28DF8A5
:103E20000720FF228DF808208DF80920C2B28DF8F6
:103E30000A20020A8DF80B20020C8DF80C200221BA
:103E4000024A82F8FE100FBD00BFFCE7340B0020D1
:103E500070B504460D46002604B970BD11480460D3
:103E60000068856100200F490968C86120690078F1
:103E7000207120698678EF2E11DCEA2E06D0EB2E19
:103E800009D0EC2E08D0EE2E07D103E02046FFF734
:103E90003DFF03E002E001E000E000BF00E000BF02
:103EA00000BFDAE7B000002000BFFEE730B50346F0
:103EB0000C461D46002106E0480035F8200024F895
:103EC0001100481C81B29142F6DB012030BD2DE982
:103ED000F04705460E461746A946FFF7D9F93420A4
:103EE000FFF766F94846FFF769F98046B8F1040F15
:103EF00004D0FFF7A3F90020BDE8F08700240FE00D
:103F000036F8141009EB4400FFF7A2F98046B8F127
:103F1000040F03D0FFF792F90020EDE7601C84B294
:103F2000BC42EDDBFFF78AF90120E5E770470000AE
:103F300070B5002100230F22C47804B3154C246807
:103F400004F4E064C4F5E064210AC1F10403CA404A
:103F5000447804FA03F184781440214309010E4C9B
:103F60000678A155047804F01F050124AC400578BB
:103F70006D11AD0005F1E025C5F8004109E00478B8
:103F800004F01F050124AC40044D0678761145F875
:103F9000264070BD0CED00E000E400E080E100E0B0
:103FA00002490143024A1160704700000000FA050F
:103FB0000CED00E0024A0A400243024B1A607047CF
:103FC00080FFFF1F08ED00E02DE9F0418EB00446B0
:103FD0000E469046012C04D0022C02D00EB0BDE853
:103FE000F08116B1B8F1000F00D1F7E754E08DF879
:103FF00024400598000E8DF825000598000C8DF8DA
:1040000026000598000A8DF827000598C0B28DF8A3
:1040100028009DF820008DF82900002506E006A85C
:10402000415DA81D09AA1154681CC5B29DF8200065
:10403000A842F4DC9DF82000082809DA9DF8202029
:10404000C2F1080113460DF12A029818FBF747FA4E
:10405000059800F0040737B940F2FF71059801EAAE
:104060005050059007E0042F05D16FF0604105988E
:1040700001EAD0000590059801909DF82000ADF868
:1040800010009DF8202006A902A8FBF7F6F90648C3
:104090000068C16901A8884705A93046FEF7BFFC42
:1040A0000028A4D100BF99E7B40000202DE9FF410A
:1040B0000446002500270CB9BDE8FF8132480460A2
:1040C00008208DF80C0030480068006800900098C7
:1040D00000F002008DF80E00009800F004008DF84A
:1040E0000D009DF80D0018B90098000C009006E036
:1040F0009DF80D00042802D10098001F009022486E
:10410000006850F8051F0191406802901E48006841
:10411000007900F00105B5B19DF80D0090B940F2AD
:10412000DF710098884202D100F082F819E000980F
:10413000B0F5FC6F15D30098083086B2304600F019
:104140002BF80EE00DE065B910480078012802D187
:1041500002F034FD05E00D480078022801D102F09C
:104160002DFD0A480078012804D169460848FEF769
:10417000DFFC07E005480078022803D169460548BE
:10418000FEF7D6FC00BF97E7B400002054000020E3
:10419000340C0020400C00202DE9F04186B006468A
:1041A000059622480078012803D100208DF80E00E2
:1041B00006E01E480078022802D10E208DF80E007D
:1041C00000208DF80F0001208DF81000BDF81400BC
:1041D0004FF6FF7101EA4010ADF804000020ADF881
:1041E0000600012700240CE0BDF81400400105A9D9
:1041F00031F8141000EA41101FFA80F84546601C9F
:10420000C4B2BC42F0DBADF808504FF6FF70ADF819
:104210000A000020ADF80C0001208DF8110001A863
:10422000FDF7B8FF06B0BDE8F081000054000020A3
:10423000F0B589B0224B0FCB05AC0FC421480078F4
:10424000012803D100208DF80E0006E01D480078FB
:10425000022802D10E208DF80E0000208DF80F00EC
:1042600001208DF81000BDF814004FF6FF7101EA2F
:104270004010ADF804000020ADF806000826002428
:104280000BE0BDF81400400105A931F8141000EA54
:10429000411087B23D46601CC4B2B442F1DBADF8B8
:1042A00008504FF6FF70ADF80A000020ADF80C0082
:1042B00001208DF8110001A8FDF76CFF09B0F0BDD9
:1042C0003C7C010854000020704700002DE9F041BB
:1042D00086B005460C4600200590019002900390A0
:1042E00004902A4800680090102D2DD12079617922
:1042F0008846A679492E26D1E779022F04D0042FCB
:1043000003D0062F1DD101E000BF00BF0C20059097
:104310000DF1010105A801F0DFFB0DF103012046BD
:1043200001F0E4FB6068CDF80700A068CDF80B0051
:10433000BDF81400401D82B26946154802F001FC28
:1043400000BF00BF00BF1EE0202D1CD10C20059037
:104350000DF1010105A801F0BFFB0DF1030120469D
:1043600001F0C4FB6068CDF80700A068CDF80B0031
:10437000BDF81400401D82B26946054802F0E1FB19
:104380006420FEF797FD06B0BDE8F081547C01087B
:1043900094CC002070B586B00446002005900190B2
:1043A0000290039004902A48006800906679A6F174
:1043B0004100092849D2DFE800F0050C0D0E292A3A
:1043C0002B2C2D00A079A073204601F0C9FC0546D6
:1043D0003BE03AE000BF0D2005900DF1010105A87A
:1043E00001F07AFB0DF10301204601F07FFB6068CC
:1043F000CDF80700A068CDF80B00BDF81400401DF3
:1044000082B26946134802F09CFB1EE01DE01CE0EE
:104410001BE01AE00D2005900DF1010105A801F047
:104420005BFB0DF10301204601F060FB6068CDF8F5
:104430000700A068CDF80B00BDF81400401D82B243
:104440006946044802F07DFB00BF00BF06B070BDA6
:10445000507C010894CC002010B502461AB1906837
:1044600008B1908808B9002010BD10885388984280
:1044700001D10020F8E713889068C05C08701088AC
:10448000401C938890FBF3F403FB14001080012080
:10449000EAE700B97047002303804380816009B9CF
:1044A000838000E0828000BFF4E730B502460B460F
:1044B0001AB1906808B1908808B9012030BD5088C1
:1044C000401C948890FBF4F504FB150081B2108821
:1044D000884201D10120F1E754889068035551804A
:1044E0000020EBE701460020034A506820F44040DA
:1044F00008435060704700000010024029B1064A8E
:10450000D2690243044BDA6104E0034AD269824370
:10451000014BDA61704700000010024029B1064AE1
:1045200012690243044B1A6104E0034A1269824390
:10453000014B1A61704700000010024029B1064A81
:1045400092690243044B9A6104E0034A92698243F0
:10455000014B9A61704700000010024029B1064AE1
:10456000D2680243044BDA6004E0034AD268824313
:10457000014BDA6070470000001002402DE9F04165
:1045800000210022002500230026002400278C465D
:10459000DFF86081D8F8048008F00C0121B104290B
:1045A00007D0082959D109E0DFF84C81C0F8008014
:1045B00058E0DFF84481C0F8008053E0DFF8348130
:1045C000D8F8048008F47012DFF82881D8F8048045
:1045D00008F48035920C0D2A01D0921C00E00622CE
:1045E00035B9DFF8188102FB08F8C0F8008033E025
:1045F000DFF80081D8F82C8008F48036DFF8F480EA
:10460000D8F82C8008F00F0808F1010446B9DFF84B
:10461000E880B8FBF4F808FB02F8C0F800801BE063
:10462000DFF8D080D8F82C80C8F3031808F1010710
:10463000DFF8C080D8F82C80C8F3032808F1020CFA
:10464000DFF8B480B8FBF7F808FB0CF8B8FBF4F817
:1046500008FB02F8C0F8008004E0DFF89C80C0F896
:10466000008000BF00BFDFF88C80D8F8048008F01D
:10467000F0010909DFF8888018F80130D0F80080CF
:1046800028FA03F8C0F80480DFF86880D8F80480BE
:1046900008F4E061090ADFF8688018F80130D0F802
:1046A000048028FA03F8C0F80880DFF84880D8F8BA
:1046B000048008F46051C90ADFF8448018F801301A
:1046C000D0F8048028FA03F8C0F80C80DFF82480C2
:1046D000D8F8048008F44041890BDFF8288018F8E6
:1046E0000130D0F80C80B8FBF3F8C0F81080BDE8BA
:1046F000F08100000010024000127A0000093D0025
:10470000D1000020E1000020704710B500F002F851
:1047100010BD00000CB50020019000903F480068DB
:1047200040F480303D49086000BF3C48006800F418
:10473000003000900198401C0190009818B9019831
:10474000B0F5A06FF1D13548006800F4003010B129
:104750000120009001E000200090009801285BD12A
:104760002F48006840F010002D4908600846006896
:1047700020F0030008600846006840F0020008606E
:104780002648406825494860084640684860084611
:10479000406840F4806048600846C06A214908408B
:1047A0001E49C8620846C06A40F4C860C86208462C
:1047B000006840F08060086000BF1848006800F0A2
:1047C00000600028F9D01548406820F47C10134997
:1047D00048600846406840F4E810486008460068B1
:1047E00040F08070086000BF0C48006800F0007066
:1047F0000028F9D00948406820F0030007494860C4
:104800000846406840F00200486000BF0348406826
:1048100000F00C000828F9D10CBD00000010024087
:104820000020024000F0FEFF38B504460025092CA8
:1048300007D14FF416400090851009202649C87012
:1048400035E0192C08D14FF4C95000904FF496452B
:1048500019202149C8702AE0572C08D145F2607010
:1048600000904FF4614557201B49C8701FE0112C80
:1048700008D141F2521000904FF4E1351120164951
:10488000C87014E0232C08D142F2043000904FF499
:10489000613523201049C87009E0462C07D144F245
:1048A000086000904FF4E12546200B49C8700022B3
:1048B00029460A48FEF7D4F9012269460848FFF75D
:1048C00006FB4FF47A70FEF7F5FA06220249034818
:1048D00002F037F938BD00006400002094CC0020BD
:1048E00000F8030810B500224FF4E1310448FEF748
:1048F0005FF90020034908800A200349088010BDA1
:104900007CCC002002000020040000200FB438B549
:10491000044606A800904FF480710748009B059A52
:10492000FAF74CFD0020009003492046FEF7B0FA4C
:1049300038BC5DF814FB0000380100200020044959
:10494000A1F8000881F80208024988637047000056
:1049500020030020C402002010490968491C0F4AA6
:10496000116011464968491C5160114649680C4A5A
:10497000914206D30021094A516011468968491CB9
:1049800091600649C86805E0016811B10168491ED7
:10499000016040680028F7D170470000380200200D
:1049A00080EE360010B51648006840F0010014494A
:1049B00008600846406813490840114948600846A5
:1049C0000068114908400E4908600846006820F454
:1049D000802008600846406820F4FE0048600846D1
:1049E000006820F0A05008604FF47F00886000202D
:1049F000C862FFF78AFE05480549086010BD00003F
:104A0000001002400000FFF0FFFFF6FE00F000087B
:104A100008ED00E010B501217B4800F0B1FB002853
:104A20007ED07A480078401C78490870FEF752FE24
:104A300076480078032874D101217548FEF7C2FD3D
:104A40000446002C6ED17349087073480078012821
:104A500009D10020704908700021704800F090FAD8
:104A600000206F4908806F480078012809D1002094
:104A70006C49087000216C4800F082FA00206B49F4
:104A800008806B48007800287ED14FF400616048B0
:104A9000FEF798FD044624B94FF400615C48FEF728
:104AA0009CFD4FF400616348FEF78CFD0446012C29
:104AB0006FD161480078401C5F4908700846007853
:104AC000142866D100200870E1025148FEF783FDEA
