:020000040800F2
:10000000003C0020E9020008F1020008F3020008A9
:10001000F5020008F7020008F902000800000000DD
:10002000000000000000000000000000FB020008CB
:10003000FD02000800000000FF020008BD4A0008A1
:100040000303000803030008030300080303000878
:100050000303000803030008030300080303000868
:100060000303000803030008030300080303000858
:100070000303000803030008030300080303000848
:100080000303000803030008030300084D230008CE
:10009000951F0008792000085D210008030300086F
:1000A0000303000803030008030300080303000818
:1000B000754B00080303000803030008030300084E
:1000C00003030008030300080303000803030008F8
:1000D0000303000889500008055100083951000841
:1000E00003030008030300080303000800000000E6
:1000F0000000000000000000000000000000000000
:1001000000000000000000000303000803030008D3
:10011000215000085550000803030008030300089D
:100120000303000803030008030300080303000897
:100130000303000803030008030300086D2A0008F6
:10014000B5260008992700087D2800080303000849
:10015000000000000000000000000000EFCDAB86B2
:10016000746C6177020100000002620EA87609003B
:10017000150000000C0000009F8601000000000038
:1001800000F002F800F090F80AA090E8000C824419
:100190008344AAF10107DA4501D100F085F8AFF2F6
:1001A000090EBAE80F0013F0010F18BFFB1A43F055
:1001B00001031847785A0000985A0000103A24BFEB
:1001C00078C878C1FAD8520724BF30C830C144BFBC
:1001D00004680C60704700000023002400250026FE
:1001E000103A28BF78C1FBD8520728BF30C148BF9A
:1001F0000B6070476E2900F02382702900F0748331
:10020000662905F03784652905F03484672905F0EF
:1002100031846129AFF3008003681B0A28BF41F0D5
:100220008001692900F0D081642900F0CD81752911
:1002300000F0CA816F2900F0FF82782900F0408326
:10024000E92900F09782E42900F09482F52900F072
:100250009182EF2900F0FC82F82900F03F830368C7
:10026000DB0928BF41F08001632900F0048773296E
:1002700000F00987E32900F01487F32900F01987BB
:10028000002070471FB500F05DFF04000020002132
:1002900005F0C4FB401C60600020002105F0D4FB89
:1002A000E0601FBD10B510BD00F027FF1146FFF73D
:1002B000E9FF05F069FA00F0FBFF03B4FFF7F2FF76
:1002C00003BC01F03FF800004FF0010080F31388F9
:1002D000014802490160FEE70CED00E00400FA0568
:1002E00072B6704762B670470948804709480047B0
:1002F000FEE7FEE7FEE7FEE7FEE7FEE7FEE7FEE7D6
:10030000FEE7FEE704480549054A064B7047000032
:10031000094B00088101000800360020003C002045
:1003200000380020003800207CB51D4616460C0021
:10033000009001D02044401E074B7B442A4669466A
:100340000190304600F097F905461CB1002069463F
:1003500000F0A4F928467CBD690300002DE9F041B6
:100360000E460546002400E0641C285D00F0BBF842
:100370000746305D00F0B7F8381A02D1295D002930
:10038000F2D1BDE8F08110B5431C02E010F8011B6A
:1003900071B18107FAD14FF0013202C88C1A8C4337
:1003A00014EAC211F9D0C01A0A0603D0C01E10BD4B
:1003B000C01A10BD0A0401D0801E10BD0902FCD075
:1003C000401E10BD032A40F2308010F0030C00F0F4
:1003D000158011F8013BBCF1020F624498BF11F87F
:1003E00001CB00F8013B38BF11F8013BA2F1040238
:1003F00098BF00F801CB38BF00F8013B11F00303B0
:1004000000F04483083AC0F0088051F8043B083AF1
:1004100051F804CBA0E80810F5E7121D5CBF51F8B5
:10042000043B40F8043BAFF30080D20724BF11F82F
:10043000013B11F801CB48BF11F8012B24BF00F894
:10044000013B00F801CB48BF00F8012B70474FF08B
:1004500000020429C0F0128010F0030C00F01B8091
:10046000CCF1040CBCF1020F18BF00F8012BA8BF9F
:1004700020F8022BA1EB0C0100F00DB85FEAC17C63
:1004800024BF00F8012B00F8012B48BF00F8012B16
:1004900070474FF0000200B5134694469646203947
:1004A00022BFA0E80C50A0E80C50B1F12001BFF42D
:1004B000F7AF090728BFA0E80C5048BF0CC05DF893
:1004C00004EB890028BF40F8042B08BF704748BFE1
:1004D00020F8022B11F0804F18BF00F8012B704755
:1004E00070477047704710B5044600F001FB006884
:1004F000005DC00602D504F1200010BD204610BDED
:1005000070B5044685690068C10601D5302600E053
:100510002026C00708D070BDD4E90121304690479D
:10052000206A00F1010020626D1EF5D570BD70B526
:10053000044685690078C00708D170BDD4E901215F
:1005400020209047206A00F1010020626D1EF5D541
:1005500070BD09684A0501D540B27047C905FCD590
:1005600000B2704709684A0501D5C0B27047C90595
:10057000FCD580B2704770B50C460546012A05D0FF
:100580002878800600D5EA69002302E0012305E00F
:100590005B1C934202D2E05C0028F9D1A869E618FE
:1005A000C01AA861286A184428622846FFF7A8FFE5
:1005B00004E0D5E9012114F8010B9047B442F8D3C7
:1005C0002846FFF7B4FF70BD2DE9F0410646002430
:1005D00010687529314616A511D0FFF7BAFF00281B
:1005E00003DAC0F1000013A507E031688A0701D5DE
:1005F00011A502E0490704D510A5012401E0FFF789
:10060000B1FF00210A2306F1240707E0B0FBF3F253
:1006100003FB1200303078541046491C0028F5D1F5
:1006200023462A463046BDE8F04100F0AEBA00004D
:10063000000000002D0000002B0000002000000042
:1006400011680268006A530501D508700BE0D305F4
:1006500001D5088007E0130603D5C217C1E90002DF
:1006600001E05206086001207047000001694A1C41
:1006700002610878704700B58FB0CDE901310021E3
:10068000059105497944CDE903101146684600F00B
:1006900037F90FB000BD0000E5FFFFFF0A6802F860
:1006A000010B0A607047D1E900239A4202D2531C21
:1006B0000B601070704700002DE9FF5F15468A46F9
:1006C0000446DFF8AC80F8440027D8E900103E4625
:1006D000CDE9001011E03AF816106A4602A800F0C1
:1006E000ECFC411C07D02178890603D5E269391852
:1006F00091420ED8074406F101062078800602D503
:10070000E069B84205DDAE42E5DB3AF816000028A4
:10071000E1D1A069C01BA0612046FFF7F1FED8E936
:100720000010CDE90010002016E03AF818106A46D3
:1007300002A800F0C2FC8146401C0BD000250DF140
:10074000080B05E0D4E901211BF8050090476D1C5A
:100750004D45F7D308F10100B0428046E5DB206A41
:10076000384420622046FFF7E2FEBDE8FF9F00000C
:100770007A5400002DE9F0418046D21D22F0070294
:100780000025D2E90002F52914A612D0002A06DAC3
:100790000023D0EB030063EB020211A608E0D8F8B7
:1007A00000108B0701D50FA602E0490701D50EA660
:1007B00001251146002408F1240704E000F0A0F907
:1007C00030323A55641C50EA0102F7D12B463246CA
:1007D00021464046BDE8F04100F0D7B900000000D6
:1007E0002D0000002B0000002000000030B400218C
:1007F00000F124040CE002F0070505F130054FEA92
:10080000D20242EA4372655401F101014FEAD30377
:1008100052EA0305EFD10468002310A2250708D58A
:1008200004F020040C4304D0C46901230CA2641E0C
:10083000C46130BC00F0A9B910B504462146106867
:10084000FFF790FE02462046BDE810400023CDE7AA
:10085000D21D22F00701D1E90023C7E70000000004
:1008600030000000F0B40D460188090502D5234C84
:100870007C4402E0214C7C440E34002100F124062B
:100880000BE002F00F074FEA1212E75D42EA037233
:100890004FEA1313775401F1010152EA0307F0D133
:1008A00002780023120704D5702D06D009B1113447
:1008B00002232246F0BC00F068B910340123F8E7A7
:1008C00070B504460D4621461068FFF74BFE024600
:1008D00029462046BDE870400023C3E7D21D22F020
:1008E0000703D3E90023BDE70368126843F0200340
:1008F00003600823C3610023B4E70000D85200005E
:100900002DE9F05F894604464FF0000ADFF878B120
:10091000FB44C0F820A02046E1688847002875D035
:10092000252806D0D4E901219047206A401C206286
:10093000F1E700265F462046E16888472028054603
:1009400008DB312D06D207EB050010F8200C08B1AA
:100950000643F0E7B00701D526F00406C4F81CA052
:100960000027C4F818A02A2D09D0284604F004FF57
:1009700038B304EB8708303DC8F8185019E059F82F
:10098000041B204604EB87029161E1688847012F30
:10099000054618D1E069002820DA26F020061DE07F
:1009A000D8F8180000EB800005EB40003038C8F89C
:1009B00018002046E1688847054604F0DDFE00285F
:1009C000EED1012F0AD02E2D08D12046E1688847AC
:1009D0007F1C0546022F46F02006C4DBA0690028D4
:1009E00003DA404246F00106A061F00701D026F08C
:1009F00010066C2D0BD0682D09D04C2D39D06A2DE6
:100A000035D0742D35D07A2D33D016E038E0E1683A
:100A10002F4620468847B842054609D16C2F26D07C
:100A20004FF48060E168064320468847054604E0AD
:100A30006C2F1AD04FF4807006430DB3A5F141001E
:100A4000192802D8203546F400664A462946204631
:100A500026604E46FFF7CEFB80B101280BD0F61D75
:100A600026F0070000F1080955E74020E4E7802060
:100A7000D8E70020D6E706F104094CE7284651E7FD
:100A8000206ABDE8F09F00006052000010B5203AD7
:100A9000C0F00B80B1E81850203AA0E81850B1E837
:100AA0001850A0E81850BFF4F5AF5FEA027C24BFED
:100AB000B1E81850A0E8185044BF18C918C0BDE8E4
:100AC00010405FEA827C24BF51F8043B40F8043BAD
:100AD00008BF7047D20728BF31F8023B48BF11F862
:100AE000012B28BF20F8023B48BF00F8012B7047BC
:100AF00010B500F027FB001D10BD00BF214F000006
:100B000030B5B0F10A024FEA900E71F100034EEADF
:100B1000817EB0EB0E0061EB91014FEA101E4EEAB0
:100B2000017E10EB0E0041EB11114FEA102E4EEA40
:100B3000016E10EB0E0041EB11214FEA104E4EEA10
:100B4000014E10EB0E0041EB1141401841F1000144
:100B50004FEAD00040EA41704FEAD10110EB800526
:100B60004FEA810444EA907444EB01046D1944EBAC
:100B70000404521BA3414FF0000348BF0A3200D5C2
:100B800030BD401C41F1000130BD2DE9F0470D465C
:100B900099469246044600F124080168880604D567
:100BA000E06921F01001216000E00120A84202DD8F
:100BB000A0EB050700E00027A16907EB050202EBA7
:100BC0000900A1EB0000A0612078C00602D42046F5
:100BD000FFF796FC002608E0D4E901211AF8060088
:100BE0009047206A401C761C20624E45F4DB20783A
:100BF000C0060AD52046FFF783FC06E0D4E90121B0
:100C000030209047206A401C2062381EA7F101075F
:100C1000F4DC07E0D4E9012118F805009047206AC8
:100C2000401C2062281EA5F10105F3DC2046FFF7D9
:100C30007EFC2078000602D50220BDE8F087012066
:100C4000FBE770472DE9FF4F0C461E464FF0FF377C
:100C50008BB0D2E90001DDF860800A908A46C1F3CA
:100C60000A5505B93D46002108464FF00000BAF18B
:100C7000000F00F4400005DA00EB80004FF4400163
:100C800001EA50004FEA9059B9F1010F00DDB94671
:100C90000A9850EA4A000ED044F61050A5F2FF35EB
:100CA00045432F14B8F1000F1ED07542291E1EDDDA
:100CB000C9F100021CE0B8F1010F4FF0000001D0B3
:100CC000302103E0F24305E02154401CB042FBDB3D
:100CD00030460022002121540B99C1F80880C1E957
:100CE00000200FB0BDE8F08FBD1B6D1CDEE74A464B
:100CF00000DA694206A800F069FA06AB07CB03AB3D
:100D000007C350460A9900F024FB8DE80700A0F5C0
:100D100000501F3800900398002D09DD42F21F019A
:100D20004A46084403A90390684600F083FD08E0A2
:100D3000A0F500504A461F3803A90390684600F00A
:100D40008DFD8DE807000004000C03D04FF0FF304C
:100D5000410800E01046B8F1000F03D000220092D5
:100D600015461FE0751E06D4FFF7CAFE02F13002D9
:100D700062556D1EF8D5B3460122084302D0002209
:100D80007F1C04E02078302801D100227F1E002A39
:100D9000099787D01DE0112D07DAFFF7B1FE303239
:100DA00062556D1C50EA0102F5D108430FD10021B4
:100DB000681E05E0235C625C6354491C2254401E9B
:100DC0008142F7DBAB46A81B401E099001E000986A
:100DD00048B1002004F80B000B98099AC0F808806D
:100DE000C0E9002B7DE711264FF000085AE72DE9F6
:100DF000F04F88460446D21D22F0070191B0D1E998
:100E00000001CDE90A0104F0A3FC02460B98C00FD3
:100E100001D02D2007E02068810701D52B2002E0BA
:100E2000202101EAC000032A099001D0072A05DB2E
:100E300003464146204600F089F90FE120788006FC
:100E400001D5E06900E00620B8F1650F814606D0C3
:100E5000B8F1660F18D0B8F1670F72D132E00020F8
:100E6000B9F1110F009001DB112301E009F1010339
:100E70000AAA01A90CA8FFF7E5FEDDE90C7000261F
:100E800009F10105834648E001204B4600904FF0F0
:100E900000470AAA01A90CA8FFF7D4FEDDE90DB0AE
:100EA0000C995D46002618B909F1010001EB000517
:100EB000B9EB050003D4C0F1FF3609F10105A5EB3C
:100EC00009002BE0B9F1010F01DA4FF00109002010
:100ED000B9F1110F0090484601DD112300E00346EF
:100EE0000AAA01A90CA8FFF7ADFEDDE90C704D467A
:100EF00000268346207800070AD4AB4500DA5D4619
:100F000001A8012D04DD411911F8011C302907D079
:100F10004F4502DA17F1040F04DA0120824610E08F
:100F20006D1EEEE7002F02DCED1B3E4403E0781C53
:100F3000A84200DD0546A7EB060000F1010A4FF0CC
:100F400000472078000703D4AA4501DB4FF0FF3AA1
:100F50000021B7F1004F0DF143088DF8431023D065
:100F600002202B23002F01DA7F422D234FF00A0CA1
:100F7000011EA0F1010000DC4FB197FBFCF10CFB5E
:100F800011720F4602F1300208F8012DF0E7A8F1C6
:100F9000010003702188090501D5452100E0652184
:100FA000A0F1010800F8011C09980FA9A1EB08079E
:100FB00007F1070700B1012000EB050101EBEA7022
:100FC000A1693844A1EB0000A0F10100A0612078E4
:100FD000C00602D42046FFF793FA099830B1D4E94D
:100FE00001219047206A00F1010020622078C006AC
:100FF00020D52046FFF784FA1CE0002E04DBB34521
:1010000002DD01A8805D00E03020D4E90121904795
:10101000206A761C401CBAF1010A20620AD100F055
:1010200091F8C0680168405CD4E901219047206ACA
:10103000401C2062281EA5F10105DEDC07E0D4E992
:10104000012118F8010B9047206A401C2062381ECD
:10105000A7F10107F3DC2046FFF769FA022011B07F
:1010600040E610B5436913B1AFF3008001E0FFF72C
:1010700082FA012010BD127800F124010A700022CA
:101080004A700122EDE711684FF0FF32E9E710B531
:10109000436913B1AFF3008001E0FFF70DFB0120BE
:1010A00010BD128800F1240182840022C284012232
:1010B000EDE711684FF0FF32E9E770B516460C46D0
:1010C0000546FFF715FD036893F80101012806D0D6
:1010D000FF2C0FD8185D68B101202C7070BDD3F8BB
:1010E00007013246214603442846BDE8704003F21A
:1010F000071318474FF0FF3070BD754600F0DEF85B
:10110000AE4605006946534620F00700854618B0F4
:1011100020B5FFF7F7F8BDE820404FF000064FF08C
:1011200000074FF000084FF0000B21F00701AC461C
:10113000ACE8C009ACE8C009ACE8C009ACE8C0093B
:101140008D46704700487047BC3500202DE9F041BE
:101150001F46044603260168072A01F4006004DBE9
:1011600008B116A505E016A503E008B115A500E035
:1011700015A521F010002060A069C01EA0610FB16C
:10118000401EA0612046FFF7BBF94FB1D4E9012111
:1011900038469047206A401C2062C01C206206E04E
:1011A000206AFAE7D4E9012115F8010B9047761E71
:1011B000F8D22046FFF7BBF9BDE8F0814E414E0062
:1011C0006E616E00494E4600696E66002DE9F0477B
:1011D000814616468AB035487844D0E900238068B5
:1011E0000092CDE90130314878440C38D0E902232F
:1011F000006903924FF03702CDE9043041F69B308D
:10120000014491FBF2F0A0F1800502FB10141B3C9D
:1012100002D56442012000E00020DFF890A0804663
:101220000027FA44AAF1C60A0DE0E00709D03246C9
:10123000684607EB47010AEB810100F00FFB8DE8E0
:10124000070064107F1C002CEFD1184F7F44B43F7F
:1012500017E0E80713D007EB04100DF1180A90E827
:101260000E00AAE80E00C068F04201D1981908905B
:10127000324606A903A800F0F1FA03AB07C36D10CC
:10128000641C002DE5D132466946B8F1000F03A871
:1012900002D000F0CFFA01E000F0E0FAC9E9000165
:1012A000C9F808200AB0BDE8F0870000284A00000D
:1012B0000446AFF300802046FEF7FFFF004870476A
:1012C0009C3500204FF0013C50F8042B51F8043BB2
:1012D0009A4221D1A2EB0C03934313EACC1317D10A
:1012E00050F8042B51F8043B9A4215D1A2EB0C03A1
:1012F000934313EACC130BD150F8042B51F8043B61
:101300009A4209D1A2EB0C03934313EACC13DBD02E
:101310004FF00000704700BFD01A01BAB1FA81F156
:1013200001F0180122FA01F0CB40C1F12001DBB23B
:10133000C0B2C01A2CFA01F3D11A914311EAC311B9
:10134000E6D1704701491820ABBEFEE72600020037
:1013500070475FEA400C08BF91F0000F4FEA8C2302
:101360004FEAC12243EA51514FEA1C5018BF00F521
:10137000F0404FEA300018BF41F000415FEA6C5C7A
:1013800000F02980BCF1FF3F08BF40F0804070476B
:10139000130C06BF12044FF0100C4FF0000C130E8C
:1013A00004BF12020CF1080C130F04BF12010CF160
:1013B000040C930F04BF92000CF1020CD30F04BF76
:1013C00052000CF1010C11464FF00002A0F11F0079
:1013D000A0EB0C00704711F0004F08BF704731F0D0
:1013E00000413FF4D5AF0B0C06BF09044FF0100CC1
:1013F0004FF0000C0B0E04BF09020CF1080C0B0F90
:1014000004BF09010CF1040C8B0F04BF89000CF11F
:10141000020CCB0F04BF49000CF1010CCCF12003EE
:10142000A0EB0C0022FA03F302FA0CF241EA0301EA
:1014300000F10100704720F07F4C80EA030023F0A8
:101440007F47ACEB070303F57C5300F0004003F14A
:10145000FF032DE980494FEA154B09B44FEA1443C5
:1014600025EA0B4E24EA03480FF2042606EB132765
:1014700049083E785FEA320203FB0667C7F50007BA
:1014800007FB06F64FEA54374FEAD64606F1020646
:1014900007FB066CCCF1005C4FEA1C472CEA074CBA
:1014A00007FB06F40CFB06F504EB15464FEA96160F
:1014B00034BF00204FF000404FEAD13706FB07FC55
:1014C0004FEA1C4C0CFB0BF7D21B03FB0CF761EB38
:1014D00007010CFB0EF7B0EB074072EB17420CFB59
:1014E00008F734BFA2EB0742B2EB074261EB1741AA
:1014F0004FEA0C444FEA910706FB07FC4FEA1C4CED
:101500000CFB0BF7B0EBC74072EB573203FB0CF749
:1015100034BFA2EBC742B2EBC74261EB57310CFBC1
:101520000EF7B0EBC70072EB57720CFB08F734BF35
:10153000A2EBC702B2EBC70261EB5771039F4FEA00
:10154000816141EA921104EBCC044FEAD1374FEAB2
:10155000826206FB07FC42EA90124FEA80604FEA83
:101560001C4C0CFB0BF7D21B03FB0CF761EB0701C8
:101570000CFB0EF7B0EB074072EB17420CFB08F7C1
:1015800034BFA2EB0742B2EB074261EB17414FEACF
:101590008C554FEA910704EB9C2406FB07FC4FEAAD
:1015A0001C4C0CFB0BF7B0EBC74072EB573203FB44
:1015B0000CF734BFA2EBC742B2EBC74261EB573125
:1015C0000CFB0EF7B0EBC70072EB57720CFB08F781
:1015D00034BFA2EBC702B2EBC70261EB577115EB48
:1015E0004C254FEA816141EA92114FEA82624FEA4B
:1015F000D13742EA901206FB07FC44F100044FEA9F
:1016000080604FEA1C4C0CFB0BF7D21B03FB0CF762
:1016100061EB07010CFB0EF7B0EB074072EB1742D2
:101620000CFB08F734BFA2EB0742B2EB074261EBB9
:10163000174115EB1C154FEA813141EA92414FEAFF
:10164000823242EA90424FEA80304FEA0C7644F10F
:10165000000448EA03434EEA0B484FF0000EB2EB99
:10166000080C71EB030724BF624639464EEB0E0EA1
:101670004FF0000B0018524149414BEB0B0BB2EB02
:10168000080C71EB03077BF1000B24BF624639465F
:101690004EEB0E0E4FF0000B0018524149414BEB40
:1016A0000B0BB2EB080C71EB03077BF1000B24BFB3
:1016B000624639464EEB0E0E51EA020718BF46F05D
:1016C000010616EB0E7655F1000254F1000103D528
:1016D000BDE88901BDE80088BDE88901BDE8004892
:1016E000B619524141EB0101A3F10103704780801B
:1016F0007F7E7D7C7B7A797877767675747372716C
:1017000071706F6E6E6D6C6C6B6A6A696868676623
:1017100066656464636362616160605F5F5E5E5DB5
:101720005D5C5C5B5B5A5A59595858575756565529
:1017300055555454535352525251515050504F4F8B
:101740004F4E4E4D4D4D4C4C4C4B4B4B4A4A4A49DB
:10175000494948484847474747464646454545441E
:101760004444444343434342424242414141002BAB
:1017700026D4770021D01CB54FEA370703B44FF0C9
:1017800010004FF010014FF000000FBCBDE81040FA
:101790000BF1010BBBF1010F08BF5FEA170722BF76
:1017A00012F1010211F101014FF0004143F1000378
:1017B00000F0004043EA00007047F9D35708DAE729
:1017C00046EA064613F1400F4FEA16461FDD13F1B5
:1017D000200FDFBF16430A46002120335B42C8D0EA
:1017E000C3F1200746EA064602FA07F74FEA164613
:1017F00046EA0706C3F1200722FA03F201FA07F7C7
:1018000021FA03F14FF0000342EA0702B1E746EA8A
:10181000020646EA06464FEA164646EA0106BCBFFD
:1018200046EA0646360C4FF000034FF000024FF038
:1018300000019EE72DE9C048934630B491E8380096
:1018400007C831EA400C48BF34EA430C03D5FFF720
:10185000F2FDFFF78CFFF0BCBDE800882DE9C04821
:10186000934630B491E8380007C810F0804F08BFA5
:1018700013F0804F03D100F005F8FFF778FFF0BCBC
:10188000BDE8008820F07F4780EA030023F07F4C0A
:1018900007EB0C03A3F57C5300F00040A3F1FE031B
:1018A00092F0000F00F0B38095F0000F00F0778009
:1018B0002DE901494FEA11404FEA144621EA004858
:1018C00000FB06FC24EA064708FB06F607FB08F8BF
:1018D00000FB07F718EB06484CEB164C4FEA124B8F
:1018E00018EB07484FEA15464CEB174022EA0B4E1F
:1018F0000BFB06FC25EA06470EFB06F607FB0EFE71
:101900000BFB07F71EEB064E4CEB164C4FF0000698
:101910001EEB074E4CEB174B18EB0B0840F1000089
:1019200018EB0E0B58EB000840F100008F1A4FF037
:1019300000013CBFC943661B14BFB5EB040C00217A
:101940003CBFC943F61B4FEA17444EEA8E0E27EA06
:1019500004454FEA1C4704FB07622CEA074C05FBD1
:1019600007F70CFB05F604FB0CFC16EB074642EBF5
:10197000174216EB0C4642EB1C421BEB060658EBDB
:101980000202414146EA9E0601D5BDE80189B61929
:10199000524141EB0101A3F10103BDE801894FEA86
:1019A00014454FEA114724EA054621EA074C05FB96
:1019B00007F406FB07F70CFB06F105FB0CFC11EB2B
:1019C000074144EB17444FEA124711EB0C4144EB3B
:1019D0001C4422EA074C05FB07F206FB07F70CFB49
:1019E00006F605FB0CFC16EB074642EB174216EB1E
:1019F0000C4642EB1C456A1854F1000148BF704781
:101A0000B619524141EB0101A3F10103704795F072
:101A1000000F37D04FEA11424FEA144721EA02463D
:101A200024EA074C02FB07F106FB07F70CFB06F460
:101A300002FB0CFC14EB074441EB17414FEA15473E
:101A400014EB0C4441EB1C4125EA074C02FB07F563
:101A500006FB07F70CFB06F602FB0CFC16EB074631
:101A600045EB174516EB0C4645EB1C42121951F19C
:101A7000000148BF7047B619524141EB0101A3F183
:101A8000010370474FEA14454FEA114724EA05461F
:101A900021EA074C05FB07F106FB07F70CFB06F2F2
:101AA0004FF0000605FB0CFC12EB074241EB17411F
:101AB00012EB0C4251EB1C4148BF7047921841EBAE
:101AC0000101A3F10103704770B500BF022129484D
:101AD00000F0B8F80028F9D00221264800F052F8AA
:101AE000244800F0ABF8064640F2B71171434800B5
:101AF000C11700EB9151C1F38F211F4A11801F487C
:101B0000006868B900201E490870002405E01A48E2
:101B100000881A4941F82400641C062CF7DB27E0F2
:101B2000154800881549164A127841F822001448D1
:101B30000078401C062190FBF1F201FB12001049D5
:101B4000087000200C490880002508E00B4830F898
:101B50002500094909880844074908806D1C062D9D
:101B6000F4DB05480088062190FBF1F0024908806B
:101B700070BD00000024014018000020500000202B
:101B80000400002000220A12D3430360704721B1F1
:101B9000826842F00102826003E0826822F0010262
:101BA0008260704700B585B00121480202F0DCFB7D
:101BB0004FF4004002F0ACFB002000908DF80400D0
:101BC00001208DF805004FF4602002900020039062
:101BD00001208DF810006946124800F047F80523EF
:101BE000012200210F4800F069F801210D48FFF79C
:101BF000CEFF0C4800F0BEF800BF0A4800F02BF8FA
:101C00000028FAD1074800F0C5F800BF054800F0E9
:101C10000BF80028FAD10121024800F0B0F805B015
:101C200000BD000000240140014600208A6812F037
:101C3000040F01D0012000E0002070470146C86C6D
:101C400080B270470246002013680B4201D0012089
:101C500000E000207047014600208A6812F0080F5B
:101C600001D0012000E000207047000030B502469E
:101C70000020002350680F4C20400D790C6844EA86
:101C800005242043506090680B4C2040D1E9025459
:101C90002C434D7944EA450420439060D06A20F4F7
:101CA00070000C7C641EE4B2234340EA0350D0620F
:101CB00030BD0000FFFEF0FFFDF7F1FFF0B5044678
:101CC0000D4600200021092D11DDE068A5F10A066E
:101CD00006EB4607072606FA07F18843A5F10A0630
:101CE00006EB460603FA06F10843E0600CE02069C3
:101CF00005EB4507072606FA07F1884305EB45067D
:101D000003FA06F108432061072A0FDA606B561EBA
:101D100006EB86071F2606FA07F18843561E06EBD8
:101D2000860605FA06F10843606322E00D2A0FDA01
:101D3000206BD61F06EB86071F2606FA07F188439D
:101D4000D61F06EB860605FA06F10843206310E06D
:101D5000E06AA2F10D0606EB86071F2606FA07F1D8
:101D60008843A2F10D0606EB860605FA06F1084344
:101D7000E062F0BD816841F008018160704721B1E7
:101D8000826842F4A002826003E0826822F4A0022A
:101D900082607047816841F004018160704700B53E
:101DA00085B0684602F000FB019805B000BD10B593
:101DB0004FF4A06002F0B6F900214FF0006002F08D
:101DC000BBF910BD70B58AB004460E4680226A4940
:101DD0006A4800F06DFF6948A060694820600121F1
:101DE000092002F0C1FA0121480602F09DFA4FF4E1
:101DF0008070ADF8240048208DF8270009A96148BB
:101E000001F0C0FF4FF40070ADF8240003208DF8FE
:101E1000260018208DF8270009A95A4801F0B2FFC2
:101E200001214FF4EA1002F037F813208DF8040076
:101E300002208DF8050003208DF8060001208DF8A2
:101E4000070001A802F034F914208DF8040001A85D
:101E500002F02EF915208DF8040001A802F028F9EF
:101E600016208DF8040001A802F022F9444800F081
:101E7000CDFF02A801F046FA00208DF80E000120E7
:101E80008DF80F0000208DF8100001208DF8110052
:101E90008DF812008DF8130000208DF80A008DF8DF
:101EA0000B0008208DF80C0007208DF80D00364837
:101EB000B0FBF6F080B2ADF8080002A9304801F09E
:101EC00037F900251AE08DF81E5000208DF81F000C
:101ED00001208DF820000020ADF81400ADF81600A8
:101EE000ADF81800ADF81A00ADF81C0001208DF80F
:101EF000210005A800F0B2FF681CC5B21C2DE2DB72
:101F0000012211461E4801F00AF980221F4920488B
:101F100000F0CEFE1E48606001220221184801F048
:101F2000FEF801221021164801F0F9F8802212492A
:101F3000124800F0BDFE1148A06001225102104875
:101F400001F0EDF8012211020D4801F0E8F801223C
:101F500091020B4801F0E3F80122D102084801F098
:101F6000DEF80122D103064801F0D9F80121044826
:101F700001F077F90AB070BD000B0020F40A0020D0
:101F800000640040000C014080841E00181B0020EB
:101F90000C1B00201FB500222021314801F0BFF8A2
:101FA000002240212E4801F0BAF840E02D48006898
:101FB00000902D48006800F00F008DF80C002B48B1
:101FC0000068C0B28DF80400284800684FEA10216C
:101FD0008DF80510254800684FEA10418DF806106D
:101FE000224800684FEA10608DF80700204800681A
:101FF000C1B28DF808101E4800684FEA10218DF814
:1020000009101B4800684FEA10418DF80A10184863
:1020100000684FEA10608DF80B004FF00001104887
:1020200000F010FF13498868694600F04DFE00215A
:102030000B4801F007F90028B8D10421084800F046
:1020400091FE0821064800F08DFE0122202104485F
:1020500001F065F801224021014801F060F81FBD40
:1020600000640040B0650040B4650040B8650040C1
:10207000BC650040DC0A00201FB500220421314865
:1020800001F04DF8002208212E4801F048F840E008
:102090002D48006800902D48006800F00F008DF872
:1020A0000C002B480068C0B28DF804002848006876
:1020B0004FEA10218DF80510254800684FEA1041BD
:1020C0008DF80610224800684FEA10608DF807006E
:1020D00020480068C1B28DF808101E4800684FEA19
:1020E00010218DF809101B4800684FEA10418DF847
:1020F0000A10184800684FEA10608DF80B004FF086
:102100000101104800F09EFE13498868694600F0FE
:10211000DBFD01210B4801F095F80028B8D1202102
:10212000084800F01FFE4021064800F01BFE012277
:102130000421044800F0F3FF01220821014800F0C7
:10214000EEFF1FBD00640040C0650040C465004054
:10215000C8650040CC650040DC0A0020F8B54FF4AB
:102160008071454800F03AFF012812D100BF434872
:102170000088052807D103F01FFC05462A4640A128
:10218000484802F0EBFB00BF4FF480713A4800F082
:10219000E9FD4FF40071384800F020FF012812D10A
:1021A00000BF36480088052807D103F005FC054626
:1021B0002A463DA13B4802F0D1FB00BF4FF400711D
:1021C0002D4800F0CFFD4FF480612B4800F006FF52
:1021D000012812D100BF29480088052807D103F043
:1021E000EBFB05462A4639A12E4802F0B7FB00BF9B
:1021F0004FF48061204800F0B5FD4FF400611E48A7
:1022000000F0ECFE012818D11B4800F07DFF0446C9
:10221000241100BF19480088052808D103F0CCFB21
:10222000054623462A4632A11E4802F097FB00BF0E
:102230004FF40061104800F095FD00BF0F48008882
:10224000052811D10C4800F059FF05460A4800F056
:1022500061FF064603F0B0FB074633463A462EA11F
:102260001048009502F07AFB00BF4FF4004102488D
:1022700000F078FDF8BD000000640040260000205A
:1022800024555458542C253038642C43414E312069
:102290005343453A2043414E5F49545F4557470DEC
:1022A0000A000000242B002024555458542C2530BB
:1022B00038642C43414E31205343453A2043414E2C
:1022C0005F49545F4550560D0A000000245554588C
:1022D000542C253038642C43414E31205343453A29
:1022E0002043414E5F49545F424F460D0A000000B3
:1022F00024555458542C253038642C43414E3120F9
:102300005343453A2043414E5F49545F4C45433D5A
:1023100025640D0A0000000024555458542C253023
:1023200038642C43414E31205343453A20455252A4
:102330004F5220434F4E555445522052583D25642C
:102340002C2054583D25640D0A00000010B58AB0B9
:102350003C493D4800F006FE012816D100213A48CC
:1023600001F074F868B900BF38480088052807D123
:1023700003F022FB0446224635A1414802F0EEFA62
:1023800000BF3049304800F0D1FC2E49FF312E48C3
:1023900000F0E8FD012817D101212B4801F056F883
:1023A00068B900BF29480088052807D103F004FB5D
:1023B0000446224633A1324802F0D0FA00BF214938
:1023C000FF31214800F0B2FC3A491F4800F0CAFD35
:1023D000012816D102211C4801F038F868B900BF65
:1023E0001A480088052807D103F0E6FA0446224679
:1023F00031A1234802F0B2FA00BF2E49124800F082
:1024000095FC0121104800F0ADFC11E001A936480F
:1024100000F022FC00B911E0142105A8FEF739F8FC
:1024200001A905A800F0F2FB05A9074800F07AFF12
:1024300005480830006810F0E05FE7D100BF0AB03F
:1024400010BD00000100003800640040260000209C
:1024500024555458542C253038642C43414E312097
:1024600054583A204D41494C424F58203020747204
:10247000616E736D6974206661696C65640D0A0034
:10248000242B002024555458542C253038642C43D8
:10249000414E312054583A204D41494C424F58202A
:1024A00031207472616E736D6974206661696C6548
:1024B000640D0A000000013824555458542C25306E
:1024C00038642C43414E312054583A204D41494CF8
:1024D000424F582032207472616E736D69742066A9
:1024E00061696C65640D0A000C1B002070B58AB030
:1024F00004460E4680226849684800F0D9FB6748C8
:10250000A060674820600121092001F02DFF012112
:10251000880601F009FF4FF48050ADF824004820F0
:102520008DF8270009A95F4801F02CFC4FF40050FA
:10253000ADF8240003208DF8260018208DF8270020
:1025400009A9584801F01EFC3F208DF80400022024
:102550008DF8050003208DF8060001208DF8070096
:1025600001A801F0A5FD40208DF8040001A801F0AC
:102570009FFD41208DF8040001A801F099FD422043
:102580008DF8040001A801F093FD454800F03EFCE1
:1025900002A800F0B7FE00208DF80E0001208DF893
:1025A0000F0000208DF8100001208DF811008DF82B
:1025B00012008DF8130000208DF80A008DF80B0032
:1025C00008208DF80C0007208DF80D003648B0FB70
:1025D000F6F080B2ADF8080002A9314800F0A8FD7D
:1025E00000251AE08DF81E5000208DF81F000120F4
:1025F0008DF820000020ADF81400ADF81600ADF8FD
:102600001800ADF81A00ADF81C0001208DF821006B
:1026100005A800F023FC681CC5B21C2DE2DB0122DA
:1026200011461F4800F07BFD80222049204800F021
:102630003FFB1F48606001220221194800F06FFD36
:1026400001221021164800F06AFD80221249134829
:1026500000F02EFB1148A06001225102104800F04A
:102660005EFD012211020E4800F059FD0122910287
:102670000B4800F054FD0122D102094800F04FFD43
:102680000122D103064800F04AFD0121044800F070
:10269000E8FD0AB070BD00000C13002000130020FC
:1026A00000680040000C014080841E0024230020AC
:1026B000182300201FB500222021314800F02FFDF3
:1026C000002240212E4800F02AFD40E02D480068FD
:1026D00000902D48006800F00F008DF80C002B488A
:1026E0000068C0B28DF80400284800684FEA102145
:1026F0008DF80510254800684FEA10418DF8061046
:10270000224800684FEA10608DF8070020480068F2
:10271000C1B28DF808101E4800684FEA10218DF8EC
:1027200009101B4800684FEA10418DF80A1018483C
:1027300000684FEA10608DF80B004FF00001104860
:1027400000F080FB13498868694600F0BDFA00215B
:102750000B4800F077FD0028B8D10421084800F0AC
:1027600001FB0821064800F0FDFA0122202104485F
:1027700000F0D5FC01224021014800F0D0FC1FBD33
:1027800000680040B0690040B4690040B86900408A
:10279000BC690040E80A00201FB50022042131482E
:1027A00000F0BDFC002208212E4800F0B8FC40E0FB
:1027B0002D48006800902D48006800F00F008DF84B
:1027C0000C002B480068C0B28DF80400284800684F
:1027D0004FEA10218DF80510254800684FEA104196
:1027E0008DF80610224800684FEA10608DF8070047
:1027F00020480068C1B28DF808101E4800684FEAF2
:1028000010218DF809101B4800684FEA10418DF81F
:102810000A10184800684FEA10608DF80B004FF05E
:102820000101104800F00EFB13498868694600F06A
:102830004BFA01210B4800F005FD0028B8D12021FA
:10284000084800F08FFA4021064800F08BFA012278
:102850000421044800F063FC01220821014800F033
:102860005EFC1FBD00680040C0690040C4690040B4
:10287000C8690040CC690040E80A0020F8B54FF470
:102880008071454800F0AAFB012812D100BF4348DF
:102890000088052807D103F08FF805462A4640A195
:1028A000484802F05BF800BF4FF480713A4800F0EE
:1028B00059FA4FF40071384800F090FB012812D10A
:1028C00000BF36480088052807D103F075F8054693
:1028D0002A463DA13B4802F041F800BF4FF4007189
:1028E0002D4800F03FFA4FF480612B4800F076FB52
:1028F000012812D100BF29480088052807D103F01C
:102900005BF805462A4639A12E4802F027F800BF99
:102910004FF48061204800F025FA4FF400611E4812
:1029200000F05CFB012818D11B4800F0EDFB0446C9
:10293000241100BF19480088052808D103F03CF88D
:10294000054623462A4632A11E4802F007F800BF7A
:102950004FF40061104800F005FA00BF0F480088EE
:10296000052811D10C4800F0C9FB05460A4800F0C3
:10297000D1FB064603F020F8074633463A462EA11F
:102980001048009501F0EAFF00BF4FF400410248F3
:1029900000F0E8F9F8BD00000068004026000020C3
:1029A00024555458542C253038642C43414E322041
:1029B0005343453A2043414E5F49545F4557470DC5
:1029C0000A000000242B002024555458542C253094
:1029D00038642C43414E32205343453A2043414E04
:1029E0005F49545F4550560D0A0000002455545865
:1029F000542C253038642C43414E32205343453A01
:102A00002043414E5F49545F424F460D0A0000008B
:102A100024555458542C253038642C43414E3220D0
:102A20005343453A2043414E5F49545F4C45433D33
:102A300025640D0A0000000024555458542C2530FC
:102A400038642C43414E32205343453A204552527C
:102A50004F5220434F4E555445522052583D256405
:102A60002C2054583D25640D0A00000010B58AB092
:102A70003C493D4800F076FA012816D100213A4839
:102A800000F0E4FC68B900BF38480088052807D189
:102A900002F092FF0446224635A1414801F05EFF54
:102AA00000BF3049304800F041F92E49FF312E482F
:102AB00000F058FA012817D101212B4800F0C6FC7C
:102AC00068B900BF29480088052807D102F074FFC3
:102AD0000446224633A1324801F040FF00BF21499D
:102AE000FF31214800F022F93A491F4800F03AFA34
:102AF000012816D102211C4800F0A8FC68B900BFCB
:102B00001A480088052807D102F056FF04462246DD
:102B100031A1234801F022FF00BF2E49124800F0E6
:102B200005F90121104800F01DF911E001A936480E
:102B300000F092F800B911E0142105A8FDF7A9FCF6
:102B400001A905A800F062F805A9074800F0EAFB12
:102B500005480830006810F0E05FE7D100BF0AB018
:102B600010BD000001000038006800402600002071
:102B700024555458542C253038642C43414E32206F
:102B800054583A204D41494C424F582030207472DD
:102B9000616E736D6974206661696C65640D0A000D
:102BA000242B002024555458542C253038642C43B1
:102BB000414E322054583A204D41494C424F582002
:102BC00031207472616E736D6974206661696C6521
:102BD000640D0A000000013824555458542C253047
:102BE00038642C43414E322054583A204D41494CD0
:102BF000424F582032207472616E736D6974206682
:102C000061696C65640D0A00182300202DE9F0410C
:102C100004460D46287800F0020717B102206072C2
:102C200001E000206072287800F004062EB1042034
:102C300020722868C008606004E0002020722868C4
:102C4000400D2060287BA0722A7B291D04F10B0017
:102C5000FDF7B8FBBDE8F08170B502461AB1906887
:102C600008B1908808B9002070BD10885588A84226
:102C700001D10020F8E71588906800EB0514207B4F
:102C8000087320680860002305E0201DC55C081D4E
:102C9000C554581C83B2087B9842F6DC1088401C4F
:102CA000958890FBF5F605FB160010800120DBE708
:102CB00000B97047002303804380816009B9838095
:102CC00000E0828000BFF4E7F0B502461AB19068D8
:102CD00008B1908808B90120F0BD5088401C968842
:102CE00090FBF6F706FB170085B21088A84201D1C9
:102CF0000120F1E7087B082801DD082008735688C9
:102D0000906800EB0614087B20730868206000239D
:102D100005E0081DC65C201DC654581C83B2087B04
:102D20009842F6DC55800020D6E7000000220C4BCC
:102D3000994202D10023836111E0C1F3130211F023
:102D4000007F01D0C2600AE011F0806F01D0026103
:102D500005E011F0006F01D0826000E04260704732
:102D60007000F030B1F5007F3AD00FDC202928D078
:102D700006DC01291CD004291DD0082940D11DE002
:102D8000402921D0B1F5807F3AD126E0B1F5004F3E
:102D900031D006DCB1F5806F25D0B1F5006F2FD1B1
:102DA00024E0B1F5803F12D0B1F5003F28D111E009
:102DB000154A826025E00822C26022E01022C2602B
:102DC0001FE0082202611CE01022026119E00822C3
:102DD000426016E01022426013E00422426010E0DC
:102DE000042242600DE0042242600AE00022826177
:102DF0000422426005E0002282610422426000E079
:102E000000BF00BF704700000101010010B504467B
:102E10000B48844209D10121480601F095FA0021AE
:102E20004FF0007001F090FA08E00121880601F0EF
:102E30008BFA00214FF0806001F086FA10BD00008F
:102E40000064004021B9C26842F02002C26003E081
:102E5000026942F0200202617047000010B50021B3
:102E6000837A012202FA03F13D4A126842F001021C
:102E70003B4B1A603A4A1C3212688A43384B1C3367
:102E80001A60027BCAB9364A0C3212688A43344B44
:102E90000C331A604288C38842EA0343304A403206
:102EA000847A42F834300288838842EA03432C4A09
:102EB0004032847A02EBC4025360027B012A19D1AA
:102EC000274A0C3212680A43254B0C331A60428899
:102ED000038842EA0343224A4032847A42F834307B
:102EE000C288838842EA03431D4A4032847A02EB57
:102EF000C4025360C27A3AB9194A121D12688A4351
:102F0000174B1B1D1A6006E0154A121D12680A4372
:102F1000134B1B1D1A60028932B9114A1432126810
:102F20008A430F4B14331A600289012A06D10C4AD6
:102F3000143212680A430A4B14331A60427B012A86
:102F400006D1074A1C3212680A43054B1C331A602B
:102F5000034A126822F00102014B1A6010BD000002
:102F60000066004010B50246002011F4700F08D032
:102F70009369C1F31304234201D001202DE0002006
:102F80002BE011F0807F08D05368C1F31304234273
:102F900001D0012021E000201FE011F0006F08D0D7
:102FA0009368C1F31304234201D0012015E00020EF
:102FB00013E011F0007F08D0D368C1F3130423425B
:102FC00001D0012009E0002007E01369C1F31304D8
:102FD000234201D0012000E0002010BD70B504465E
:102FE0000D4600266069284271D0B5F5807F5CD01F
:102FF00010DC082D35D006DC012D20D0022D24D088
:10300000042D72D127E0102D31D0202D35D0402D48
:103010006BD138E0B5F5004F60D009DCB5F5007F25
:1030200049D0B5F5806F4CD0B5F5006F5DD14FE05C
:10303000B5F5803F2DD0B5F5003F56D12FE0A06803
:103040002D4900F059FB064651E0E068032100F0ED
:1030500053FB06464BE0E068082100F04DFB0646B6
:1030600045E0E068102100F047FB06463FE020699C
:10307000032100F041FB064639E02069082100F0F9
:103080003BFB064633E02069102100F035FB064685
:103090002DE06068082100F02FFB064627E06068FD
:1030A000102100F029FB064621E0A069012100F073
:1030B00023FB06461BE0A069022100F01DFB06462B
:1030C00015E0A069042100F017FB06460FE00FE0B1
:1030D000A069702100F010FB064608E0606804213A
:1030E00000F00AFB064602E0FFE7002600BF00E012
:1030F0000026304670BD000001010100014600209D
:103100008A69C2F307407047014600208A6902F0CD
:1031100070007047014600208A69100E70471AB18E
:1031200043690B43436102E043698B43436170474A
:1031300030B5024600200023146824F00204146015
:10314000146844F00104146000E05B1C546814F03F
:10315000010F03D1A3F57F44FF3CF6D1546814F06E
:10316000010F01D100206CE08C79012C04D114688E
:1031700044F08004146003E0146824F080041460B8
:10318000CC79012C04D1146844F04004146003E0AD
:10319000146824F0400414600C7A012C04D11468E3
:1031A00044F02004146003E0146824F02004146048
:1031B0004C7A012C04D1146844F01004146003E02C
:1031C000146824F0100414608C7A012C04D1146863
:1031D00044F00804146003E0146824F00804146048
:1031E000CC7A012C04D1146844F00404146003E088
:1031F000146824F0040414608C78A407CD7844EAA1
:1032000005640D7944EA05444D7944EA05540D8876
:103210006D1E2C43D461146824F001041460002353
:1032200000E05B1C546814F0010F03D0A3F57F4449
:10323000FF3CF6D1546814F0010F01D0002000E0EB
:10324000012030BD0246002019B9D36803F0030005
:1032500006E0012903D1136903F0030000E0002018
:10326000704710B502460B4600204FF6FF71BBB900
:10327000146824F0020444F00104146000E0491EC4
:10328000546804F00304012C01D00029F7D15468DC
:1032900004F00304012C01D0002032E0012030E0D2
:1032A000012B13D1146824F00304146000E0491EBC
:1032B000546814F0030F01D00029F8D1546814F0B9
:1032C000030F01D000201CE001201AE0022B17D1CF
:1032D000146824F0010444F00204146000E0491E64
:1032E000546804F00304022C01D00029F7D154687B
:1032F00004F00304022C01D0002002E0012000E0D1
:10330000002010BD00218171C17101724172817272
:10331000C1728170C17003210171022141710121CB
:103320000180704710B502460020936803F0806367
:10333000B3F1806F00D110E0936803F00063B3F144
:10334000006F01D1012008E0936803F08053B3F1CE
:10335000805F01D1022000E00420042874D002F52F
:10336000C07303EB00131B6803F0010402F5C07384
:1033700003EB00131C600B7A7BB94B7A0C8843EA91
:10338000445302F5C07404EB00142468234302F58F
:10339000C07404EB0014236010E00B7A4C6843EA1D
:1033A000C4034C7A234302F5C07404EB0014246870
:1033B000234302F5C07404EB001423608B7A03F0FE
:1033C0000F038B7202F5C07303EB00135B6823F0ED
:1033D0000F0402F5C07303EB00135C6002F5C073C9
:1033E00003EB00135B688C7A234302F5C07404EB93
:1033F000001463608B7B1C064B7B44EA03440B7B0D
:1034000044EA0323CC7A234302F5C07404EB00148E
:10341000A3608B7C1C064B7C44EA03440B7C44EA8F
:103420000323CC7B234302F5C07404EB0014E36058
:1034300002F5C07303EB00131B6843F0010402F5AF
:10344000C07303EB00131C6010BD000010B50246F2
:10345000002321B1012907D002290FD109E090688A
:103460001D4C00EA04030BE090681C4C00EA0403C6
:1034700006E090681A4C00EA040301E0002300BF54
:1034800000BF184C181BA34216D007DC83B16FF0A5
:10349000806018180ED0022818D111E0B0F5007F16
:1034A00010D0114C001909D0B0F5003F0ED10BE03F
:1034B00002230DE000230BE0002309E0002307E0D6
:1034C000012305E0012303E0012301E0002300BF05
:1034D00000BFD8B210BD00000300000400030008C4
:1034E00000000310000100080001FFF770B504465A
:1034F0000D4604B10DB9002070BDA06808B90020C8
:10350000FAE72946A068FFF7A7FB06463046F3E72F
:103510002DE9F04792B005460E461746012D04D01E
:10352000022D02D012B0BDE8F08706B107B9F9E765
:1035300098E009A9284600F0E7F8002800DD91E0AE
:103540008DF834500998000E8DF835000998000C5C
:103550008DF836000998000A8DF837000998C0B236
:103560008DF838009DF830008DF83900002406E011
:103570000AA8015DA01D0DAA1154601CC4B29DF8DB
:103580003000A042F4DC9DF83000082809DA9DF8EC
:103590003020C2F1080113460DF13A029818FCF7E9
:1035A00056FF4FF00008C14600240AE00DA8005D58
:1035B000404400F0FF0809EB080000F0FF09601C20
:1035C000C4B20E2CF2DB8DF842808DF8439000BF20
:1035D00029480088052820D102F0EEF982469DF89E
:1035E00041009DF840109DF83F209DF83E30CDE908
:1035F0000432CDE906109DF83D209DF83C009DF871
:103600003B109DF83A30CDE90031CDE902022B465E
:1036100052461A491A4801F0A1F900BF552138460F
:1036200000F039FA0221384600F035FA00240EE0A5
:103630000DA8005D552803D15521384600F02BFA1E
:103640000DA8015D384600F026FA601CC4B2102CAB
:10365000EEDB5521384600F01EFA0321384600F013
:103660001AFA00BF09A93046FFF740FF00287FF48F
:1036700060AF00BF56E7000026000020785A00081F
:10368000242B0020F0B585B004460E4604B116B9CF
:10369000012005B0F0BD20684769002201212068A3
:1036A000FFF73DFD606850B969462068FFF73AFEB4
:1036B000042801D0012000E00020054614E0142178
:1036C0006846FCF7E6FE31466846FFF79FFA694612
:1036D0002068FFF727FE042805D131466068FFF710
:1036E000F3FA054600E0002507F0010201212068F9
:1036F000FFF715FD2846CCE7024600200A4201D01C
:10370000012000E0002070472DE9F04180460C4682
:1037100000260027207810F0040F03D0207810F046
:10372000020F02D00020BDE8F0812068C6082548BD
:10373000864212D1207B03280FD1207900283FD167
:103740006079EE283CD1A079002839D11E48017853
:10375000404600F027FF0120E5E71C48B0EB262F8C
:103760002ED1F7B201201A49C8551A48007808B17D
:103770000120D8E71448007887421FD1211D164840
:1037800000F0FEF8002805DA0F480178404600F006
:1037900009FF13E00C490978481E00F0E9FE0546D0
:1037A000002D04DAFE21404600F0FCFE06E006494A
:1037B0000D7008460178404600F0F4FE0120B2E7A3
:1037C0000020B0E7FEFFEA1805000020FFEE180019
:1037D00074080020220000201A0000207CB5044656
:1037E0000D4616464FF400722249234800F067FD4B
:1037F0002148A060214820600121052000F0B4FD8F
:103800000121880300F0B0FD4FF48060ADF80000A6
:1038100004208DF803006946194800F0B3FA4FF40C
:103820000070ADF8000003208DF8020018208DF81C
:1038300003006946124800F0A5FA25208DF804001F
:1038400000208DF805008DF8060001208DF8070096
:1038500001A800F02DFC32462946084800F0A0F8E7
:103860004FF400720749084800F029FD06486060DF
:103870007CBD0000782B00206C2B0020003801401C
:1038800000080140902F0020842F00207CB50446C2
:103890000D4616464FF400723349344800F00FFDD0
:1038A0003248A060324820600121092000F05CFD10
:1038B0000121880400F038FD4FF40060ADF80000ED
:1038C00004208DF8030069462A4800F05BFA4FF4A3
:1038D0008060ADF8000003208DF8020018208DF8FC
:1038E00003006946234800F04DFA27208DF80400B4
:1038F00001208DF8050002208DF8060001208DF8CA
:10390000070001A800F0D4FB32462946184800F011
:1039100047F84FF480621849184800F0D0FC174867
:103920006060002240F66A11114801F0D4FC0022C8
:1039300040F646010E4801F0CEFC002240F226611E
:103940000B4801F0C8FC002240F22441084801F075
:10395000C2FC00222821064801F0BDFC00226021A3
:10396000034801F0B8FC7CBD842D0020782D002098
:1039700000480040000C01409C31002090310020A4
:1039800030B503460C46072106E0585C655C421BD7
:103990000AB1104630BD491E0029F6DA0020F9E7C9
:1039A0007FB506460D461446304601F00FFC6846CA
:1039B00001F02BFD0020ADF80C0000950C20ADF8B7
:1039C0000A0014F0010002D0012809D103E0002010
:1039D000ADF8040008E04FF48050ADF8040003E0B7
:1039E0000020ADF8040000BF00BF14F0300004D088
:1039F000102806D020280ED108E00020ADF80800DD
:103A00000DE04FF4C060ADF8080008E04FF48060AE
:103A1000ADF8080003E00020ADF8080000BF00BFCB
:103A200014F0C00002D0802809D103E00020ADF8D6
:103A3000080008E04FF40050ADF8080003E0002053
:103A4000ADF8080000BF00BF6946304601F068FCD1
:103A5000012240F22551304601F03DFC012240F2A6
:103A60002771304601F037FC0121304601F0A2FBFE
:103A70007FBD70B504460D4604B10DB9002070BD80
:103A8000A06808B90020FAE72946A06800F0FAFB10
:103A900006463046F3E770B504460E4604B970BDDD
:103AA000606858B900BF8021206801F0DDFB002864
:103AB000F9D03146206801F0A4FC0DE000BF31468A
:103AC000606800F008FC0546012240F2277120687A
:103AD00001F001FC012DF2D000BFE0E770B5064611
:103AE0000C4615460EB104B105B970BD04E014F8DA
:103AF000011B3046FFF7CFFF2800A5F101018DB271
:103B0000F5D100BFF1E770B505460C4605B104B923
:103B100070BD04E014F8011B2846FFF7BCFF2078B5
:103B20000028F7D100BFF3E707E04FF4E16100BFE1
:103B30000A00A1F10101FBD1401E0028F5D1704718
:103B40000149C860704700000020024030B50446BB
:103B500004254FF4302000F06FF80546042D17D1EE
:103B60000C48006940F002000A49086108464461B7
:103B7000006940F0400008614FF4302000F05CF82C
:103B800005460448006941F6FD7108400149086195
:103B9000284630BD0020024004200B49C96811F0BE
:103BA000010F01D001200EE00749C96811F0040F90
:103BB00001D0022007E00449C96811F0100F01D0BC
:103BC000032000E004207047002002400348006901
:103BD00040F0800001490861704700000020024069
:103BE00070B504460D460426F00200F025F806469E
:103BF000042E11D10948006940F00100074908610D
:103C00002580F00200F018F806460448006941F6E5
:103C1000FE71084001490861304670BD0020024035
:103C200002480349486003484860704723016745DC
:103C300000200240AB89EFCD00B502460423FFF718
:103C4000ABFF034603E0FFF7A7FF0346521E012B1D
:103C500001D1002AF7D102B90523184600BD0000A2
:103C600008B50121042000F07FFB0120ADF8000021
:103C700003208DF8020000208DF8030069463F48BC
:103C800000F080F84FF40060ADF8000003208DF8DC
:103C9000020010208DF803006946384800F072F8E1
:103CA0004020ADF8000003208DF8020010208DF8B0
:103CB00003006946324800F065F88020ADF8000046
:103CC00003208DF8020010208DF8030069462C486F
:103CD00000F058F84FF48070ADF8000003208DF824
:103CE000020010208DF803006946254800F04AF8CC
:103CF0000120ADF8000003208DF8020010208DF89F
:103D0000030069461E4800F03DF80220ADF80000AF
:103D100003208DF8020010208DF803006946184832
:103D200000F030F84FF47A70FFF7FEFE802114485F
:103D300000F005F94021124800F001F94FF400614C
:103D40000E4800F0FCF86420FFF7EEFE4FF480719F
:103D50000B4800F0F4F84FF47A70FFF7E5FE4FF4EB
:103D60008071074800F0E9F8C820FFF7DDFE4FF446
:103D70008071034800F0E3F808BD0000000801402E
:103D8000001001402DE9F0410246002500260020E8
:103D900000230024002791F803C00CF00F0591F8D0
:103DA00003C01CF0100F03D091F802C04CEA0505C7
:103DB00091F800C0BCF1000F31D0146800202BE056
:103DC0004FF0010C0CFA00F3B1F800C00CEA030646
:103DD0009E4220D183004FF00F0C0CFA03F7BC4336
:103DE00005FA03FC4CEA040491F803C0BCF1280F67
:103DF00006D14FF0010C0CFA00FCC2F814C00AE026
:103E000091F803C0BCF1480F05D14FF0010C0CFA3A
:103E100000FCC2F810C0401C0828D1D31460B1F8CF
:103E200000C0BCF1FF0F34DD546800202EE000F12B
:103E3000080C4FF0010808FA0CF3B1F800C00CEAC6
:103E400003069E4221D183004FF00F0C0CFA03F7BA
:103E5000BC4305FA03FC4CEA040491F803C0BCF12E
:103E6000280F05D100F1080C08FA0CF8C2F81480EC
:103E700091F803C0BCF1480F07D100F1080C4FF0D6
:103E8000010808FA0CF8C2F81080401C0828CED3AC
:103E90005460BDE8F0810000F0B50A46002300241C
:103EA0000021002500F00046B6F1004F02D11D4E62
:103EB000F16901E01B4E7168C0F3034583B200F461
:103EC0004016B6F5401F08D121F07061154E766896
:103ED00026F07066134F7E6012E000F48016B6F58F
:103EE000801F06D1032606FA05F4A14341F0706154
:103EF00006E0460D360103FA06F6B14341F0706163
:103F000022B1460D360103FA06F6314300F00046B1
:103F1000B6F1004F02D1034EF16101E0014E716034
:103F2000F0BD00000000014002460020D3680B42B3
:103F300001D0012000E0002070474161704701611D
:103F400070470000084A1070010A5170C0F3044124
:103F500091703421D170002111718621517100219D
:103F600091712021D17170471A00002038B50525C4
:103F700001217C2000F0F8F9002425E0294800EB1D
:103F800004100088012805DD264800EB0410008895
:103F9000042800DB17E0234800EB0410008980B2FE
:103FA000ADF8000003208DF802001E4800EB04105D
:103FB000007B8DF803001B4901EB0411486869463A
:103FC000FFF7E0FE00BF641CAC42D7D3002425E01D
:103FD000144800EB04100088012805DA114800EBB2
:103FE00004100088002800DC17E00E4800EB0410E5
:103FF000008980B2ADF8000003208DF80200094866
:1040000000EB0410007B8DF80300064901EB04115E
:1040100048686946FFF7B6FE00BF641CAC42D7D3C0
:1040200038BD0000F45A000810B502460B46074C94
:10403000002106E0480034F8200022F81100481C56
:1040400081B29942F6DB012010BD000000F80308A0
:104050002DE9F04105460E46DFF85080FFF7E0FD00
:104060003420FFF76DFD4046FFF770FD0746042F33
:1040700004D0FFF7ABFD0020BDE8F08100240EE086
:1040800035F8141008EB4400FFF7AAFD0746042F8B
:1040900003D0FFF79BFD0020EEE7601C84B2B44222
:1040A000EEDBFFF793FD0120E6E7000000F80308D0
:1040B00070B5002100230F22C4780CB3164C24687D
:1040C00004F4E064C4F5E064210AC1F10403CA40C9
:1040D000447804FA03F184781440214309010F4C19
:1040E0000678A155047804F01F050124AC4005783A
:1040F0006D114FF0E02606EB8505C5F8004109E09B
:10410000047804F01F050124AC40054D06787611B3
:1041100045F8264070BD00000CED00E000E400E032
:1041200080E100E002490143024A1160704700004B
:104130000000FA050CED00E0024A0A400243024B7F
:104140001A60704780FFFF1F08ED00E02DE9F04F77
:104150008BB005460F469046002F00DD1DB90020AC
:104160000BB0BDE8F08F2846FCF70DF908B9002028
:10417000F6E7002406E0285D092801D12020285513
:10418000601C04B2BC4202DA285D0028F3D100248E
:1041900004E000204DF82400601C04B20A2CF8D37F
:1041A00000200A900026002414E00A9850B9285DE7
:1041B00020280DD028194DF82600701C06B20120C9
:1041C0000A9005E0285D202802D1002028550A9099
:1041D000601C04B2BC4203DA285D08B10A2EE4DB9D
:1041E0000EB90020BCE74FF0000B002429E01C4969
:1041F00051F83400FCF7C7F80FFA80F90098FCF783
:10420000C2F80FFA80FAD14500D018E0144A52F8EB
:1042100034000099FCF7A2F880B9701E06B210486D
:1042200000EBC400406840B1B1B20D4800EBC400DF
:1042300001AA436840469847834607E000BF601CD8
:1042400004B2074850F834000028D0D100BFBBF1B9
:10425000000F03D103A1404600F080FB00207FE760
:10426000D45A00080D0A3E204D455353414745207E
:104270004953204E4F5420535550504F52544544AB
:104280000D0A000010B502461AB1906808B1908876
:1042900008B9002010BD10885388984201D1002031
:1042A000F8E713889068C05C08701088401C9388F9
:1042B00090FBF3F403FB140010800120EAE700B93F
:1042C0007047002303804380816009B9838000E048
:1042D000828000BFF4E730B502460B461AB1906801
:1042E00008B1908808B9012030BD5088401C9488DE
:1042F00090FBF4F504FB150081B21088884201D1CF
:104300000120F1E754889068035551800020EBE7C5
:1043100001460020034A506820F4404008435060A2
:10432000704700000010024029B1064AD2690243DA
:10433000044BDA6104E0034AD2698243014BDA613B
:10434000704700000010024029B1064A126902437A
:10435000044B1A6104E0034A12698243014B1A615B
:10436000704700000010024029B1064A92690243DA
:10437000044B9A6104E0034A92698243014B9A61BB
:10438000704700000010024029B1064AD26802437B
:10439000044BDA6004E0034AD2688243014BDA60DE
:1043A00070470000001002402DE9F041002100227A
:1043B000002500230026002400278C46DFF86081BA
:1043C000D8F8048008F00C0121B1042907D008298D
:1043D00059D109E0DFF84C81C0F8008058E0DFF8DF
:1043E0004481C0F8008053E0DFF83481D8F80480BD
:1043F00008F47012DFF82881D8F8048008F48035BA
:10440000920C0D2A01D0921C00E0062235B9DFF88B
:10441000188102FB08F8C0F8008033E0DFF8008163
:10442000D8F82C8008F48036DFF8F480D8F82C8097
:1044300008F00F0808F1010446B9DFF8E880B8FB7E
:10444000F4F808FB02F8C0F800801BE0DFF8D08029
:10445000D8F82C80C8F3031808F10107DFF8C080F2
:10446000D8F82C80C8F3032808F1020CDFF8B480D8
:10447000B8FBF7F808FB0CF8B8FBF4F808FB02F8F7
:10448000C0F8008004E0DFF89C80C0F8008000BF26
:1044900000BFDFF88C80D8F8048008F0F00109092B
:1044A000DFF8888018F80130D0F8008028FA03F887
:1044B000C0F80480DFF86880D8F8048008F4E06170
:1044C000090ADFF8688018F80130D0F8048028FA6B
:1044D00003F8C0F80880DFF84880D8F8048008F4B2
:1044E0006051C90ADFF8448018F80130D0F8048020
:1044F00028FA03F8C0F80C80DFF82480D8F804808C
:1045000008F44041890BDFF8288018F80130D0F812
:104510000C80B8FBF3F8C0F81080BDE8F081000013
:104520000010024000127A0000093D003C0000200B
:104530004C0000201FB50B48009003208DF80C00A4
:1045400000208DF80400EE218DF8051000218DF873
:10455000061069460448FFF795F869460348FFF7D7
:1045600091F81FBDF4FF57C7DC0A0020E80A0020BD
:1045700010B50246A023114607E00948405C18B96F
:104580000120074C605402E0491EA029F5DA00BF63
:10459000A02901DB084610BD4FF0FF30FBE700000B
:1045A000740800202DE9FF4104460D460027012C28
:1045B00002D0022C04D101E00E4F03E00E4F01E0C7
:1045C000BDE8FF8100BF0D482843C60046F0040641
:1045D000009608208DF80C000948FFF7B3FC094845
:1045E000016801914068029069463846FFF74AF831
:1045F00000BFE5E7DC0A0020E80A002000FFEE1813
:10460000563412001A00002010B500F001F810BD59
:104610000CB50020019000903E48006840F48030C6
:104620003C49086000BF3B48006800F4003000903F
:104630000198401C0190009818B90198B0F5A06F3E
:10464000F1D13448006810F4003F02D001200090FE
:1046500001E0002000900098012859D12E48006800
:1046600040F010002C4908600846006820F0030064
:1046700008600846006840F002000860254840686D
:10468000244948600846406848600846406840F44D
:10469000806048600846C06A204908401D49C862D9
:1046A0000846C06A40F4C860C8620846006840F026
:1046B0008060086000BF1748006810F0006FFAD0F3
:1046C0001448406820F47C1012494860084640684D
:1046D00040F4E81048600846006840F080700860C8
:1046E00000BF0C48006810F0007FFAD0094840680D
:1046F00020F00300074948600846406840F0020087
:10470000486000BF0348406800F00C000828F9D159
:104710000CBD0000001002400020024000F0FEFF2F
:104720002DE9FC47054688469146194C19A12846B3
:1047300000F014F923A1284600F010F92078218810
:10474000C1F30721CDE900102068C0F30743020E32
:1047500024A1284600F002F92DA330A232A1284658
:1047600000F0FCF801F014F94FF47A71B0FBF1F6A7
:1047700001F008F9074633463A4633A1284600F0CF
:10478000EDF83AA1284600F0E9F80120BDE8FC87E1
:10479000640100080D0A6F6F6F6F6F6F6F6F6F6F3F
:1047A0006F6F6F6F6F6F6F6F6F6F6F6F6F6F6F6F19
:1047B0006F6F6F6F6F6F6F6F6F6F6F6F6F6F6F6F09
:1047C0006F0D0A006F2044657669636554797065E2
:1047D0003A202020202020202045393632340D0A6E
:1047E000000000006F20536F667457617265205699
:1047F000657273696F6E203A2056253032782E2507
:104800003032782E253032782E253032780D0A005D
:1048100031373A34383A3039000000004D617220A7
:1048200032322032303138006F20536F6674576156
:104830007265204275696454696D653A202573205C
:1048400025730D0A000000006F20546F703A20207D
:1048500020202020202020202020202020256468C7
:104860006F75722C202564730D0A00006F6F6F6FD7
:104870006F6F6F6F6F6F6F6F6F6F6F6F6F6F6F6F48
:104880006F6F6F6F6F6F6F6F6F6F6F6F6F6F6F6F38
:104890006F6F6F6F6F6F6F0D0A00000010B5002211
:1048A0004FF4E1310448FEF799FF002003490880E6
:1048B0000A200349088010BD242B0020240000207A
:1048C0002600002070B505460C46202C01DB7E2C0E
:1048D00009DD082C07D00D2C05D00A2C03D01B2C89
:1048E00001D0012070BD082C0CD11A48008808B1F5
:1048F000012000E0002017490988081A00B2154974
:10490000088024E00D2C01D00A2C10D1002112487F
:10491000104AB2F9002081542A460E48B0F900101E
:104920000D48FFF713FC00200A4908800FE00948F2
:10493000B0F900004F280ADA61B20648B0F9002049
:104940000088401C00B2034B1880034881540020AB
:10495000C8E7000024000020740900200FB438B517
:10496000044606A800904FF480710748009B059A02
:10497000FBF7DAFC0020009003492046FFF7C3F85C
:1049800038BC5DF814FB0000C409002070B5064671
:104990000D461446012D02D0022D42D11DE023A167
:1049A0002068FBF7DBFC10B9FBF78EFC14E021A1BB
:1049B0002068FBF7D3FC68B920480088052804D19B
:1049C0001FA13046FFF7CAFF06E022A13046FFF7DD
:1049D000C5FF01E0002070BD25E016A12068FBF7AF
:1049E000BDFCD8B921A16068FBF7B8FC38B9052037
:1049F000124908801FA13046FFF7B0FF10E023A145
:104A00006068FBF7ABFC38B90A200C49088021A18B
:104A10003046FFF7A3FF03E00020DCE70020DAE7E1
:104A200001E00020D7E700BF0120D4E752455345FD
:104A3000540000004D4F44450000000026000020B7
:104A40003E20525455204D4F444520444542554741
:104A50000D0A00003E20525455204D4F444520522F
:104A6000454C454153450D0A000000004445425560
:104A7000470000003E20525455204D4F44452044ED
:104A800045425547204F4B0D0A00000052454C450A
:104A9000415345003E20525455204D4F444520522D
:104AA000454C45415345204F4B0D0A0070B5044617
:104AB0000D461646FBF708FC012070BD1049096839
:104AC000491C0F4A116011464968491C5160114642
:104AD00049680C4A914206D30021094A51601146A7
:104AE0008968491C91600649C86805E0016811B1F0
:104AF0000168491E016040680028F7D17047000036
:104B0000C40A002080EE360010B51648006840F058
:104B100001001449086008464068134908401149DB
:104B2000486008460068114908400E490860084678
:104B3000006820F4802008600846406820F4FE00E9
:104B400048600846006820F0A05008604FF47F00DD
:104B500088600020C862FFF757FD4FF000600449ED
:104B6000086010BD001002400000FFF0FFFFF6FEDD
:104B700008ED00E070B51E240121880700F0E4F97B
:104B800000285ED0FCF7A0FF30480088B0F5FA7F1F
:104B900008DD2F480088401C2D49088000202D4941
:104BA000088007E02B480088401C2A490880002024
:104BB00027490880274800880A2805DD0020254964
:104BC0000880022024490870214800880A2805DD51
:104BD00000201F49088001201F4908701E480078E6
:104BE000012818D1C1021D48FFF79EF9002828D1DD
:104BF0004FF400611948FFF7A2F900BF1848008878
:104C0000052807D100F0D8FE05462A4615A11E4802
:104C1000FFF7A4FE15E010480078022811D18102A8
:104C20000E48FFF78AF900BF0D480088052807D114
:104C300000F0C2FE05462A4614A11348FFF78EFE77
:104C400000BF0121880700F07CF870BD180000202B
:104C50000C0000200E000020000000200008014091
:104C60002600002024555458542C253038642C54E8
:104C7000494D325F49525148616E646C65723A61C8
:104C80006363206F6E0D0A00242B002024555458B6
:104C9000542C253038642C54494D325F49525148C8
:104CA000616E646C65723A616363206F66660D0ABB
:104CB000000000001FB501210846FFF735FB4FF04B
:104CC000804000F04DF844F61F60ADF808001A4827
:104CD000006844F62061B0FBF1F0401E80B2ADF8F0
:104CE00004000020ADF80A00ADF8060001A94FF05D
:104CF000804000F043F90121880700F01FF80122ED
:104D00001146900700F031F90121880700F01CF8E6
:104D10004FF44070FFF706FA1C208DF800000F20BA
:104D20008DF8010001208DF802008DF8030068461F
:104D3000FFF7BEF91FBD000028000020CA43028211
:104D40007047CA430282704721B1028842F00102D3
:104D5000028004E002884FF6FE731A40028070471A
:104D600010B504466848844208D10121C014FFF7F9
:104D70000BFB0021E014FFF707FBC4E0B4F1804F08
:104D800008D101210846FFF7DFFA00210120FFF7D3
:104D9000DBFAB8E05D48844208D101210220FFF728
:104DA000D3FA00210220FFF7CFFAACE05848844242
:104DB00008D101210420FFF7C7FA00210420FFF7E2
:104DC000C3FAA0E05348844208D101210820FFF72C
:104DD000BBFA00210820FFF7B7FA94E04E4884425E
:104DE00008D101211020FFF7AFFA00211020FFF7B2
:104DF000ABFA88E04948844208D101212020FFF71E
:104E0000A3FA00212020FFF79FFA7CE04448844267
:104E100008D101214014FFF7B7FA00216014FFF711
:104E2000B3FA70E03F48844209D10121C804FFF77A
:104E3000ABFA00214FF40020FFF7A6FA63E03A48EE
:104E4000844209D101210805FFF79EFA00214FF4A1
:104E50008010FFF799FA56E03448844209D10121C5
:104E60004805FFF791FA00214FF40010FFF78CFA84
:104E700049E02F48844208D101214020FFF764FA1D
:104E800000214020FFF760FA3DE02A48844208D123
:104E900001218020FFF758FA00218020FFF754FA03
:104EA00031E02548844208D101218015FFF74CFAF2
:104EB0000021A015FFF748FA25E02048844209D1D7
:104EC00001210804FFF760FA00214FF48030FFF75A
:104ED0005BFA18E01A48844209D101214804FFF71F
:104EE00053FA00214FF40030FFF74EFA0BE015485B
:104EF000844208D101218804FFF746FA00214FF4CB
:104F00008020FFF741FA10BD002C01400004004052
:104F100000080040000C0040001000400014004059
:104F200000340140004C0140005001400054014059
:104F300000180040001C00400020004000400140DC
:104F4000004401400048014030B5024600200023E3
:104F50000024158A05EA0103958905EA010413B1C5
:104F60000CB1012000E0002030BD1AB183890B4351
:104F7000838102E083898B4383817047002202880A
:104F80001D4B98420ED01D4B98420BD0B0F1804F74
:104F900008D01B4B984205D01A4B984202D01A4BAE
:104FA000984204D14FF68F731A404B881A43174B1F
:104FB000984207D0164B984204D04FF6FF431A4050
:104FC000CB881A4302808B8883850B8803850A4B24
:104FD00098420BD0094B984208D00E4B984205D00E
:104FE0000D4B984202D00D4B984201D10B7A0386AB
:104FF0000123838270470000002C014000340140EF
:105000000004004000080040000C00400010004078
:1050100000140040004001400044014000480140AD
:1050200010B500BF40F22551094800F02AF90128C7
:1050300003D1074800F0E0F9C4B20548008810F039
:10504000080F03D0024800F0D7F9C4B210BD000029
:10505000004C004010B500BF40F22551094800F057
:1050600010F9012803D1074800F0C6F9C4B2054879
:10507000008810F0080F03D0024800F0BDF9C4B258
:1050800010BD00000050004008B59DF800000090E1
:1050900040F22771184800F0F4F8012810D1694651
:1050A0001648FFF7EFF828B19DF80010124800F0FD
:1050B000A8F905E0002240F227710F4800F00BF933
:1050C00040F225510C4800F0DCF8012809D10A48CB
:1050D00000F092F9C0B200909DF800100848FFF768
:1050E000FAF80548008810F0080F04D0024800F0D4
:1050F00083F9C0B2009008BD00380140842F002021
:105100006C2B002010B500BF40F22551094800F07B
:10511000B8F8012803D1074800F06EF9C4B2054879
:10512000008810F0080F03D0024800F065F9C4B2FF
:1051300010BD00000044004008B59DF8000000903C
:1051400040F22771184800F09CF8012810D16946F8
:105150001648FFF797F828B19DF80010124800F0A4
:1051600050F905E0002240F227710F4800F0B3F833
:1051700040F225510C4800F084F8012809D10A4872
:1051800000F03AF9C0B200909DF800100848FFF70F
:10519000A2F80548008810F0080F04D0024800F07B
:1051A0002BF9C0B2009008BD0048004090310020AB
:1051B000782D002021B1828942F40052828104E0DE
:1051C00082894DF6FF731A408281704710B50446FC
:1051D0002048844209D101218803FFF7D5F8002136
:1051E0004FF48040FFF7D0F832E01B48844209D1E9
:1051F00001214804FFF7A8F800214FF40030FFF721
:10520000A3F825E01548844209D101218804FFF75D
:105210009BF800214FF48020FFF796F818E0104823
:10522000844209D10121C804FFF78EF800214FF410
:105230000020FFF789F80BE00A48844208D10121D9
:105240000805FFF781F800214FF48010FFF77CF884
:1052500010BD0000003801400044004000480040FC
:10526000004C00400050004002460020B1F5007F95
:1052700000D100BF13880B4201D0012000E00020C4
:10528000704770B502460024002300250020A1F5D8
:1052900010666A3E00D100BFC1F3421501F01F0342
:1052A000012606FA03F3012D02D19689334006E068
:1052B000022D02D1168A334001E0968A33400C1247
:1052C000012606FA04F41688344013B10CB101200B
:1052D00000E0002070BDF0B5034600240026002544
:1052E0000020A1F510676A3F00D100BF1846C1F346
:1052F000421401F01F06012707FA06F5012C01D11F
:105300000C3004E0022C01D1103000E014301AB14E
:1053100007682F43076002E00768AF430760F0BDEE
:105320002DE9F04786B005460E460024A24600BF90
:10533000A1460027B08900B100BF2F462C8A4CF649
:10534000FF700440F08804432C82AC894EF6F310C1
:105350000440B08831890843718908430443AC8113
:10536000AC8A4FF6FF400440B0890443AC8201A8E8
:10537000FFF71AF81F48874202D1DDF810A001E0BC
:10538000DDF80CA0A88910F4004F08D00AEBCA0081
:1053900000EB0A1031684900B0FBF1F807E00AEBB6
:1053A000CA0000EB0A1031688900B0FBF1F86420F4
:1053B000B8FBF0F004012009642101FB1089A889E1
:1053C00010F4004F08D0322000EBC900B0FBF1F020
:1053D00000F00700044308E0322000EB09106421CC
:1053E000B0FBF1F000F00F0004432C8106B0BDE8E3
:1053F000F08700000038014001468888C0F30800AB
:105400007047C1F30802828070474FF41651016063
:1054100000218180C18001810C2141810021818195
:10542000704700002DE9FF4107460C460026207812
:10543000012802D0022804D101E0164E01E0164EE8
:1054400000BF00BF0EB9BDE8FF81002000900190B1
:105450000290039060780006A17840EA0140E1786C
:1054600040EA012021790843009060798DF80C0012
:10547000002505E0A81D215C01A84155681CC5B2A6
:105480006079A842F6DC69463046FEF7FBF800BFBB
:10549000D9E70000DC0A0020E80A00202DE9F041ED
:1054A0008AB004460F4696A103C9CDE9080196A12A
:1054B00003C9CDE9060196A103C9CDE9040196A16E
:1054C00003C9CDE90201964890F8080810B10128F7
:1054D0007DD12BE09248D0F8040802280BD29048E6
:1054E000D0F804088E490C540846D0F80408401C33
:1054F000C1F8040819E08A48007855280CD188487A
:105500004078022808D1864884700321C0F8041826
:10551000012180F8081808E0814840788049087027
:10552000084644700221C0F80418E4E07C48D0F832
:105530000428D0F80408401C7949C1F8040808463A
:105540008454D0F80408042800D2D4E07448D0F879
:105550000408801E7249085C55287DD10846D0F8A1
:105560000408401E085C0328F7D14FF0000800260D
:10557000022516E06A48405D552808D1B8F1010FB0
:1055800002D14FF000080BE04FF0010801E04FF0AE
:1055900000086348425D3046761C62490A5400BFE9
:1055A0006D1C5F48D0F80408801EA842E2D85C4811
:1055B000C0F80468D0F80408032863D1584890F86C
:1055C0000204852807D1072208A9384600E08BE0AD
:1055D000FEF784FA4FE0524890F8020487281CD165
:1055E00051495248FCF7EEFB4F495148FCF77EFF0A
:1055F00001215048FEF7A3FC02214E48FEF79DFC16
:1056000041F234200190012101A8FEF721FD07227B
:1056100004A93846FEF762FA2DE0414890F80204EA
:1056200088281ED144494148FCF7CCFB42494048F8
:10563000FCF75CFF02213F48FEF781FC01213D4859
:10564000FEF77BFC4FF6FF700190012101A8FEF7E9
:10565000FFFC072202A900E022E03846FEF73EFAEE
:1056600009E02F4890F80204892804D1082206A9ED
:105670003846FEF733FA00212948C0F8041880F8AC
:10568000081824E02648D0F8040808281FD3244925
:1056900091F80418891EC8B22249FFF7C3FE16E02C
:1056A0001F48D0F80408801E1D49085C55280ED1FB
:1056B0000846D0F80408401E085C022807D155208F
:1056C00008700220487002211548C0F804181448D8
:1056D000D0F80408B0F5806F05D300211048C0F859
:1056E000041880F8081806E000210D48C0F80418D6
:1056F00080F8081800BF00BF00200AB0BDE8F081A4
:105700005502868686550300550276302E3955039C
:1057100055028787875503005502888888550300FE
:10572000680000206A04002020A10700DC0A002095
:10573000E80A00200010014090D003000021034837
:10574000C0F8041880F808187047000068000020AE
:10575000490050EAC12018BF04204A0D18BF40F08C
:10576000010040F2FF72B2EB515F08BF40F002004F
:10577000012808BF0520704730380A2801D20120CF
:1057800070470020704700001CB5FCF710FBFEF7C7
:10579000EDFBFFF783F8FEF763FAFCF703FAFFF778
:1057A00089FA00F00FF900224FF4E1315848FEF772
:1057B0006DF801216846FEF737FCBDF80000A0F542
:1057C0009051343910D153495348FCF7FBFA5149F1
:1057D0005248FCF78BFE01215148FEF7B0FB022135
:1057E0004F48FEF7AAFB0FE04E494B48FCF7EAFA98
:1057F0004C494A48FCF77AFE02214948FEF79FFBD4
:1058000001214748FEF799FBFFF798FF00BF464884
:105810000088052807D100F0CFF80646324643A19C
:105820004A48FFF79BF800BF4FF480714848FAF7E9
:1058300030FE012047490870FEF77CFE00F0BCF8FE
:105840004549086062E000F0B7F8044604E09DF8BE
:1058500004103E48FFF736F801A93C48FEF709F965
:105860000028F4D104E02A499DF80400FFF716FE51
:1058700001A92748FEF7FDF80028F4D1244A26495B
:105880000120FDF745FE224A24490220FDF740FE93
:105890003048007818B330480068201AFA281ED91A
:1058A0002E480078FEF764FE0546002D08DAFE213A
:1058B0000120FEF777FEFE210220FEF773FE0BE0CB
:1058C00026490D70084601780120FEF76BFE23483B
:1058D00001780220FEF766FE00201E49087000F0E5
:1058E0006BF8611D884211D900BF0F480088052858
:1058F0000BD100F061F8061B00F05EF80746334656
:105900003A4617A11148FFF729F800BF9BE70000AE
:105910003C2B002020A10700DC0A0020E80A002020
:105920000010014090D00300260000202455545858
:10593000542C253038642C6170706C696361746913
:105940006F6E207374617274210D0A00242B002085
:10595000740800202200002008000020050000201C
:1059600024555458542C253038642C6D61696E20B0
:105970006C6F6F70207469636B73203C25643E0DFF
:105980000A0000000148806870470000C40A002037
:105990000148406870470000C40A002000B9704701
:1059A000002101600349C96841600249C86000BF25
:1059B000F5E70000C40A00200148006870470000B5
:1059C000C40A002070B5FCF7EAF904464FF47A7077
:1059D000B4FBF0F5681E4FF0E0214861FF200D494F
:1059E00008704FF0E020006940F005004FF0E02122
:1059F00008610846006940F002000861002006497D
:105A0000C86008604860886001F11000FFF7C6FFB9
:105A100070BD000023ED00E0C40A002010B500298D
:105A20000AD00878002807D005487844FBF74AFCDC
:105A3000002801D0002010BD0248784410BD0000AD
:105A4000220200001A02000010B500290AD00878CE
:105A5000002807D005487844FBF734FC002801D023
:105A6000002010BD0248784410BD0000060300006D
:105A7000FE020000FBF7BBB924555458542C2530C6
:105A800038642C43414E25642072656369657665F0
:105A900020646174613A20307825303258203078A3
:105AA0002530325820307825303258203078253053
:105AB000325820307825303258203078253032580E
:105AC00020307825303258203078253032580D0A71
:105AD000000000001C5C000821470008255C00084D
