:020000040800F2
:10000000881B00204D020008550200085702000816
:10001000590200085B0200085D02000800000000B1
:100020000000000000000000000000005F02000867
:10003000610200080000000063020008A913000824
:1000400067020008670200086702000867020008EC
:1000500067020008670200086702000867020008DC
:1000600067020008670200086702000867020008CC
:1000700067020008670200086702000867020008BC
:1000800067020008670200086702000867020008AC
:10009000670200086702000867020008670200089C
:1000A000670200086702000867020008670200088C
:1000B0006114000867020008670200086702000870
:1000C000670200086702000867020008670200086C
:1000D00067020008D51800085119000885190008A2
:1000E00067020008670200086702000800000000BD
:1000F0000000000000000000000000000000000000
:10010000000000000000000067020008670200080D
:100110006D180008A11800086702000867020008AF
:10012000670200086702000867020008670200080B
:1001300067020008670200086702000867020008FB
:1001400067020008670200086702000867020008EB
:10015000000000000000000000000000EFCDAB86B2
:10016000746C6177020100000002620EA87609003B
:10017000150000000C0000009F8601000000000038
:1001800000F002F800F043F80AA090E8000C824466
:100190008344AAF10107DA4501D100F038F8AFF243
:1001A000090EBAE80F0013F0010F18BFFB1A43F055
:1001B00001031847941C0000B41C0000103A24BF2F
:1001C00078C878C1FAD8520724BF30C830C144BFBC
:1001D00004680C60704700000023002400250026FE
:1001E000103A28BF78C1FBD8520728BF30C148BF9A
:1001F0000B6070471FB500F0B3F904000020002128
:1002000001F00CFE401C60601FBD10B510BD00F079
:1002100082F91146FFF7EEFF01F062FD00F0B2F93E
:1002200003B4FFF7F2FF03BC00F0F2F9EFF309802B
:10023000704780F309887047EFF30880704780F3B8
:100240000888704740BA7047C0BA7047094880476D
:1002500009480047FEE7FEE7FEE7FEE7FEE7FEE7A8
:10026000FEE7FEE7FEE7FEE704480549054A064BC0
:1002700070470000F5130008810100088815002070
:10028000881B0020881700208817002070B50646BC
:1002900000F078F80468054630460A22002100F094
:1002A00075F82C6070BD032A40F2308010F0030C0A
:1002B00000F0158011F8013BBCF1020F624498BFB9
:1002C00011F801CB00F8013B38BF11F8013BA2F156
:1002D000040298BF00F801CB38BF00F8013B11F0D1
:1002E000030300F08B80083AC0F0088051F8043B0B
:1002F000083A51F804CBA0E80810F5E7121D5CBFDE
:1003000051F8043B40F8043BAFF30080D20724BF10
:1003100011F8013B11F801CB48BF11F8012B24BFA4
:1003200000F8013B00F801CB48BF00F8012B7047F3
:100330004FF0000200B5134694469646203922BF7E
:10034000A0E80C50A0E80C50B1F12001BFF4F7AFC9
:10035000090728BFA0E80C5048BF0CC05DF804EBAB
:10036000890028BF40F8042B08BF704748BF20F819
:10037000022B11F0804F18BF00F8012B7047704717
:100380007047704700487047281500202DE9F04756
:1003900091460F4680460446002614F8015B2DB1B5
:1003A00000F062F80068405DC007F6D12B2D02D046
:1003B0002D2D18D0641E4A463946204600F05CF8C0
:1003C00027B13968A14201D1C7F800804FF002047B
:1003D00071050BD54042002803DDFFF7D3FF046011
:1003E000A007BDE8F08746F48066E4E70028F8DA65
:1003F000FFF7C8FF04606FF00040F2E710B5203A45
:10040000C0F00B80B1E81850203AA0E81850B1E8CD
:100410001850A0E81850BFF4F5AF5FEA027C24BF83
:10042000B1E81850A0E8185044BF18C918C0BDE87A
:1004300010405FEA827C24BF51F8043B40F8043B43
:1004400008BF7047D20728BF31F8023B48BF11F8F8
:10045000012B28BF20F8023B48BF00F8012B704752
:10046000004870472815002010B500F079F8001DED
:1004700010BD00BFA91900002DE9F05F82461546A6
:100480008B4600270AF10104B9460078302801D0D4
:100490009DB113E014F8010B0127782803D05828E8
:1004A00001D045B10AE00DB1102D07D1002714F895
:1004B000010B102502E0082500E00A250026B046C1
:1004C0000EE005FB080005FB06F101271FFA80F886
:1004D00001EB1046B6F5803F00D3B94614F8010B86
:1004E000294600F041F80028EBDABBF1000F05D0F7
:1004F0000FB1641E00E05446CBF80040B9F1000F84
:1005000006D0FFF73FFF02210160C81EBDE8F09F43
:1005100048EA0640FAE77546FFF7A2FFAE46050037
:100520006946534620F00700854618B020B5FFF70E
:100530009BFEBDE820404FF000064FF000074FF053
:1005400000084FF0000B21F00701AC46ACE8C009F1
:10055000ACE8C009ACE8C009ACE8C0098D467047FA
:1005600000487047481500203A2800D2303820F063
:100570002002412A01D3A2F13700884201D34FF073
:10058000FF3070470446AFF300802046FFF748FE77
:100590004FF0013C50F8042B51F8043B9A4221D112
:1005A000A2EB0C03934313EACC1317D150F8042B9E
:1005B00051F8043B9A4215D1A2EB0C03934313EA82
:1005C000CC130BD150F8042B51F8043B9A4209D1BB
:1005D000A2EB0C03934313EACC13DBD04FF00000E3
:1005E000704700BFD01A01BAB1FA81F101F01801C9
:1005F00022FA01F0CB40C1F12001DBB2C0B2C01A37
:100600002CFA01F3D11A914311EAC311E6D17047D4
:1006100001491820ABBEFEE726000200704700B576
:1006200085B0684600F054FD019805B000BD10B5D6
:100630004FF4A06000F014FB00214FF0006000F0C8
:1006400019FB10BDF0B505460E460024AF1905E0B4
:1006500015F8011BA0B201F00AFB0446BD42F7D316
:10066000A0B2002101F003FB04462046002101F066
:10067000FEFA04462046F0BD7CB504460D461646FB
:100680004FF480623349344800F0B9FC3248A0602E
:10069000324820600121052000F0FAFC0121880386
:1006A00000F0F6FC4FF48060ADF8000004208DF8F7
:1006B000030069462A4800F00CFA4FF40070ADF8C8
:1006C000000003208DF8020018208DF80300694611
:1006D000234800F0FEF925208DF8040000208DF855
:1006E00005008DF8060001208DF8070001A800F034
:1006F0007FFA32462946194800F0B2F84FF480627A
:100700001849194800F07BFC17486060002240F649
:100710006A11124801F005FA002240F646010F481E
:1007200001F0FFF9002240F226610C4801F0F9F9CE
:10073000002240F22441094801F0F3F90022282167
:10074000064801F0EEF900226021044801F0E9F9C1
:100750007CBD000004050020F804002000380140A2
:10076000000801401C0D0020100D00207CB504463F
:100770000D4616464FF480623349344800F03FFC82
:100780003248A060324820600121092000F080FC3E
:100790000121880400F05CFC4FF40060ADF800001B
:1007A00004208DF8030069462A4800F092F94FF4BE
:1007B0008060ADF8000003208DF8020018208DF84D
:1007C00003006946234800F084F927208DF80400CF
:1007D00001208DF8050002208DF8060001208DF81B
:1007E000070001A800F004FA32462946184800F034
:1007F00037F84FF480621849184800F000FC174899
:100800006060002240F66A11114801F08AF9002266
:1008100040F646010E4801F084F9002240F22661BC
:100820000B4801F07EF9002240F22441084801F013
:1008300078F900222821064801F073F9002260218E
:10084000034801F06EF97CBD100900200409002066
:1008500000480040000C0140281100201C1100201D
:100860007FB506460D461446304601F0D5F8684679
:1008700001F0F1F90020ADF80C0000950C20ADF866
:100880000A0004F0010010B1012809D103E00020A2
:10089000ADF8040008E04FF48050ADF8040003E028
:1008A0000020ADF8040000BF00BF04F0300020B10C
:1008B000102806D020280ED108E00020ADF808004E
:1008C0000DE04FF4C060ADF8080008E04FF4806020
:1008D000ADF8080003E00020ADF8080000BF00BF3D
:1008E00004F0C00010B1802809D103E00020ADF869
:1008F000080008E04FF40050ADF8080003E00020C5
:10090000ADF8080000BF00BF6946304601F02EF97F
:10091000012240F22551304601F003F9012240F254
:100920002771304601F0FDF80121304601F068F8EA
:100930007FBD70B504460D4604B10DB9002070BDF1
:10094000A06808B90020FAE72946A06800F03AFB41
:1009500006463046F3E770B504460E4604B970BD4E
:10096000606858B900BF8021206801F0A3F8002812
:10097000F9D03146206801F06AF90DE000BF314638
:10098000606800F048FB0546012240F227712068AC
:1009900001F0C7F8012DF2D000BFE0E707E04FF407
:1009A000E16100BF0A00A1F10101FBD1401E002856
:1009B000F5D170470149C86070470000002002402F
:1009C00030B5044604254FF4302000F06FF805469A
:1009D000042D17D10C48006940F002000A49086153
:1009E00008464461006940F0400008614FF430203F
:1009F00000F05CF805460448006941F6FD710840C6
:100A000001490861284630BD0020024004200B49FE
:100A1000C96801F0010109B101200EE00749C96868
:100A200001F0040109B1022007E00449C96801F09E
:100A3000100109B1032000E00420704700200240AB
:100A40000348006940F080000149086170470000D8
:100A50000020024070B504460D460426F00200F066
:100A600025F80646042E11D10948006940F001001E
:100A7000074908612580F00200F018F8064604488E
:100A8000006941F6FE71084001490861304670BDB9
:100A9000002002400248034948600348486070470C
:100AA0002301674500200240AB89EFCD00B5024627
:100AB0000423FFF7ABFF034603E0FFF7A7FF03465E
:100AC000521E012B01D1002AF7D102B90523184685
:100AD00000BD2DE9F041024600250026002000233C
:100AE0000024002791F803C00CF00F0591F803C013
:100AF0000CF0100CBCF1000F03D091F802C04CEACE
:100B0000050591F800C0BCF1000F31D01468002039
:100B10002BE04FF0010C0CFA00F3B1F800C00CEA26
:100B200003069E4220D183004FF00F0C0CFA03F70E
:100B3000BC4305FA03FC4CEA040491F803C0BCF181
:100B4000280F06D14FF0010C0CFA00FCC2F814C0BB
:100B50000AE091F803C0BCF1480F05D14FF0010C39
:100B60000CFA00FCC2F810C0401C0828D1D3146055
:100B7000B1F800C0BCF1FF0F34DD546800202EE056
:100B800000F1080C4FF0010808FA0CF3B1F800C0AE
:100B90000CEA03069E4221D183004FF00F0C0CFAA1
:100BA00003F7BC4305FA03FC4CEA040491F803C0C4
:100BB000BCF1280F05D100F1080C08FA0CF8C2F8B6
:100BC000148091F803C0BCF1480F07D100F1080C64
:100BD0004FF0010808FA0CF8C2F81080401C0828F1
:100BE000CED35460BDE8F08101E000F037FBFCE7B4
:100BF00070B5002100230F22C47804B3154C24687B
:100C000004F4E064C4F5E064210AC1F10403CA40BD
:100C1000447804FA03F184781440214309010E4C0E
:100C20000678A155047804F01F050124AC4005782E
:100C30006D11AD0005F1E025C5F8004109E004782B
:100C400004F01F050124AC40044D0678761145F8E8
:100C5000264070BD0CED00E000E400E080E100E023
:100C600002490143024A1160704700000000FA0582
:100C70000CED00E0024A0A400243024B1A60704742
:100C800080FFFF1F08ED00E02DE9F04FADF6240DC9
:100C900083460C4617460020CDF820084FF0040884
:100CA0004FF480610DF58160FFF742FB4FF48061E6
:100CB00002A8FFF73DFB4FF000090020019094F8D7
:100CC000080410B1012877D154E0B4F806040128D3
:100CD00006DA6770B4F80604401CA4F8060448E07D
:100CE000607818282BD006DC012809D0022812D001
:100CF000042836D11AE041282BD0612831D129E0CF
:100D0000A7700320A4F80604012084F808048020BA
:100D1000A54908602CE0A7700320A4F80604012070
:100D200084F808048002A049086021E006215846A2
:100D300000F0B6FF0121880700F02CFC00BF002066
:100D4000A4F8060484F80804FF200DF6240DBDE87D
:100D5000F08F00BF0020A4F8060484F80804FF20E8
:100D6000F3E70020A4F8060484F80804FF20ECE769
:100D700000BF16E1B4F80614481CA4F80604675432
:100D8000B4F8061488480068801D81427ED1A0789E
:100D9000E17881F0FF0188420FD01821584600F019
:100DA0007FFF1821584600F07BFF0020A4F80604BE
:100DB00084F80804FF20C8E7EDE07B480068001DC8
:100DC000205C4FEA002A78480068401D205C5044AF
:100DD0001FFA80FA74480168201DFFF733FC504564
:100DE0000ED01821584600F05BFF1821584600F03D
:100DF00057FF0020A4F8060484F80804FF20A4E7A5
:100E000000206A49087000214FF0804000F0C2FBCA
:100E1000607801287ED1664800780028B6D1002588
:100E2000261D05E016F8012B28466D1C61490A5461
:100E3000307808B1402DF5D3002228466D1C5D495D
:100E40000A540025761C06E016F8012B28466D1C76
:100E50000DF501610A543078202801D0102DF3D30C
:100E6000002228466D1C0DF501610A540846FFF763
:100E70000DFACDF80C080DF60801081D00F020FF52
:100E80004D49DDF80C08884210D900E082E01821B5
:100E9000584600F005FF1821584600F001FF0020D9
:100EA000A4F8060484F80804FF204EE70020A4F804
:100EB000060484F80804FFF7EDFD62200190342059
:100EC000FFF778FD4FF000090FE03C490A1402FBE0
:100ED0000910FFF775FD8046B8F1040F03D0FFF746
:100EE000AFFD002031E709F101090198814502D2E7
:100EF000B8F1040FE9D0FFF7A3FD0621584600F032
:100F0000CFFE4321584600F0CBFE29480078401C14
:100F1000274900E001E008703CE06078022839D100
:100F20004202211D02A8FFF7BEF9FFF7B3FD00251D
:100F30001CE002AA32F81510214A126802EB4500A3
:100F4000FFF788FD8046B8F1040F0ED018215846EF
:100F500000F0A6FE1821584600F0A2FE0020A4F8DA
:100F6000060484F80804FF20EFE66D1CB5F5007F49
:100F7000DFD3FFF765FD1248006800F58060104977
:100F800008600020A4F8060484F8080406215846E6
:100F900000F086FE05E00020A4F8060484F80804AA
:100FA00000BF00BF0020D0E61C0000201800002079
:100FB00008000020700400200110030000F0000869
:100FC0000400002010B502461AB1906808B190885C
:100FD00008B9002010BD10885388984201D1002024
:100FE000F8E713889068C05C08701088401C9388EC
:100FF00090FBF3F403FB140010800120EAE700B932
:101000007047002303804380816009B9838000E03A
:10101000828000BFF4E730B502460B461AB19068F3
:1010200008B1908808B9012030BD5088401C9488D0
:1010300090FBF4F504FB150081B21088884201D1C1
:101040000120F1E754889068035551800020EBE7B8
:1010500029B1064AD2690243044BDA6104E0034A2B
:10106000D2698243014BDA617047000000100240F0
:1010700029B1064A12690243044B1A6104E0034A8B
:1010800012698243014B1A61704700000010024050
:1010900029B1064A92690243044B9A6104E0034A6B
:1010A00092698243014B9A61704700000010024030
:1010B00029B1064AD2680243044BDA6004E0034ACD
:1010C000D2688243014BDA60704700000010024092
:1010D0002DE9F041002100220025002300260024F4
:1010E00000278C46DFF86081D8F8048008F00C01F6
:1010F00021B1042907D0082959D109E0DFF84C8132
:10110000C0F8008058E0DFF84481C0F8008053E068
:10111000DFF83481D8F8048008F47012DFF82881F1
:10112000D8F8048008F48035920C0D2A01D0921C66
:1011300000E0062235B9DFF8188102FB08F8C0F894
:10114000008033E0DFF80081D8F82C8008F4803686
:10115000DFF8F480D8F82C8008F00F0808F10104BB
:1011600046B9DFF8E880B8FBF4F808FB02F8C0F8ED
:1011700000801BE0DFF8D080D8F82C80C8F303187B
:1011800008F10107DFF8C080D8F82C80C8F30328E5
:1011900008F1020CDFF8B480B8FBF7F808FB0CF894
:1011A000B8FBF4F808FB02F8C0F8008004E0DFF8B0
:1011B0009C80C0F8008000BF00BFDFF88C80D8F8AA
:1011C000048008F0F0010909DFF8888018F8013080
:1011D000D0F8008028FA03F8C0F80480DFF86880AF
:1011E000D8F8048008F4E061090ADFF8688018F88C
:1011F0000130D0F8048028FA03F8C0F80880DFF83E
:101200004880D8F8048008F46051C90ADFF84480A7
:1012100018F80130D0F8048028FA03F8C0F80C80E0
:10122000DFF82480D8F8048008F44041890BDFF807
:10123000288018F80130D0F80C80B8FBF3F8C0F81B
:101240001080BDE8F08100000010024000127A001A
:1012500000093D00380000204800002010B500F0D3
:1012600027FD10BD10B500F001F810BD0CB5002031
:10127000019000903F48006840F480303D4908608C
:1012800000BF3C48006800F4003000900198401C0A
:101290000190009818B90198B0F5A06FF1D13548C8
:1012A000006800F4003010B10120009001E000203F
:1012B0000090009801285BD12F48006840F0100092
:1012C0002D4908600846006820F0030008600846C1
:1012D000006840F0020008602648406825494860E0
:1012E0000846406848600846406840F480604860AE
:1012F0000846C06A214908401E49C8620846C06ABB
:1013000040F4C860C8620846006840F08060086029
:1013100000BF1848006800F000600028F9D01548A8
:10132000406820F47C10134948600846406840F447
:10133000E81048600846006840F08070086000BF10
:101340000C48006800F000700028F9D00948406897
:1013500020F00300074948600846406840F002005A
:10136000486000BF0348406800F00C000828F9D12D
:101370000CBD0000001002400020024000F0FEFF03
:1013800010B500224FF4E1310448FFF775F9002051
:10139000034908800A200349088010BDB0040020DA
:1013A000000000200200002010490968491C0F4A73
:1013B000116011464968491C5160114649680C4A40
:1013C000914206D30021094A516011468968491C9F
:1013D00091600649C86805E0016811B10168491EBD
:1013E000016040680028F7D1704700004C000020E1
:1013F00080EE360010B51648006840F00100144930
:10140000086008464068134908401149486008468A
:101410000068114908400E4908600846006820F439
:10142000802008600846406820F4FE0048600846B6
:10143000006820F0A05008604FF47F008860002012
:10144000C862FFF70FFF4FF000600449086010BD4D
:10145000001002400000FFF0FFFFF6FE08ED00E084
:1014600010B50121880700F095F900283BD02048ED
:10147000007801281ED11F480088032815D11E4876
:1014800000681E490840B0F1005F0ED11A4840685C
:101490001B490860084600681A4908601649086830
:1014A000FEF7CDFE17480068804712480088401CB0
:1014B000104908800E480078A8B90F4800680F4905
:1014C0000840B0F1005F0ED10B4840680C4908603D
:1014D000084600680B49086007490868FEF7AFFE38
:1014E0000848006880470121880700F050F810BDC7
:1014F000180000202000002000F000080000FE2F4F
:1015000014000020100000201FB501210846FFF73D
:101510009FFD4FF0804000F049F844F61F60ADF8A1
:1015200008001848006844F62061B0FBF1F0401E46
:1015300080B2ADF804000020ADF80A00ADF8060056
:1015400001A94FF0804000F03FF90121880700F029
:101550001BF801221146900700F02DF94FF440705E
:10156000FFF77EFB1C208DF800000F208DF8010096
:1015700001208DF802008DF803006846FFF738FB64
:101580001FBD000024000020CA4302827047CA43E6
:101590000282704721B1028842F00102028004E019
:1015A00002884FF6FE731A400280704710B5044659
:1015B0006848844208D10121C014FFF779FD002159
:1015C000E014FFF775FDC4E0B4F1804F08D10121AC
:1015D0000846FFF74DFD00210120FFF749FDB8E067
:1015E0005D48844208D101210220FFF741FD00211E
:1015F0000220FFF73DFDACE05848844208D10121AC
:101600000420FFF735FD00210420FFF731FDA0E0A5
:101610005348844208D101210820FFF729FD002109
:101620000820FFF725FD94E04E48844208D10121AF
:101630001020FFF71DFD00211020FFF719FD88E0A5
:101640004948844208D101212020FFF711FD0021E3
:101650002020FFF70DFD7CE04448844208D10121A1
:101660004014FFF725FD00216014FFF721FD70E015
:101670003F48844209D10121C804FFF719FD002128
:101680004FF40020FFF714FD63E03A48844209D18B
:1016900001210805FFF70CFD00214FF48010FFF732
:1016A00007FD56E03448844209D101214805FFF77F
:1016B000FFFC00214FF40010FFF7FAFC49E02F482F
:1016C000844208D101214020FFF7D2FC00214020B4
:1016D000FFF7CEFC3DE02A48844208D1012180205A
:1016E000FFF7C6FC00218020FFF7C2FC31E025484F
:1016F000844208D101218015FFF7BAFC0021A01512
:10170000FFF7B6FC25E02048844209D101210804F6
:10171000FFF7CEFC00214FF48030FFF7C9FC18E042
:101720001A48844209D101214804FFF7C1FC002175
:101730004FF40030FFF7BCFC0BE01548844208D1A1
:1017400001218804FFF7B4FC00214FF48020FFF74B
:10175000AFFC10BD002C0140000400400008004018
:10176000000C004000100040001400400034014014
:10177000004C01400050014000540140001800405E
:10178000001C004000200040004001400044014097
:101790000048014030B50246002000230024158A8D
:1017A00005EA0103958905EA010413B10CB1012092
:1017B00000E0002030BD1AB183890B43838102E031
:1017C00083898B4383817047002202881D4B984296
:1017D0000ED01D4B98420BD0B0F1804F08D01B4B60
:1017E000984205D01A4B984202D01A4B984204D125
:1017F0004FF68F731A404B881A43174B984207D005
:10180000164B984204D04FF6FF431A40CB881A4338
:1018100002808B8883850B8803850A4B98420BD006
:10182000094B984208D00E4B984205D00D4B984278
:1018300002D00D4B984201D10B7A0386012383829B
:1018400070470000002C01400034014000040040BB
:1018500000080040000C0040001000400014004050
:1018600000400140004401400048014010B500BF65
:1018700040F22551094800F02AF9012803D1074810
:1018800000F0E0F9C4B20548008800F0080018B183
:10189000024800F0D7F9C4B210BD0000004C00406F
:1018A00010B500BF40F22551094800F010F9012899
:1018B00003D1074800F0C6F9C4B20548008800F01B
:1018C000080018B1024800F0BDF9C4B210BD000014
:1018D0000050004008B59DF80000009040F22771CC
:1018E000184800F0F4F8012810D169461648FFF7AF
:1018F00069FB28B19DF80010124800F0A8F905E036
:10190000002240F227710F4800F00BF940F22551F8
:101910000C4800F0DCF8012809D10A4800F092F9DF
:10192000C0B200909DF800100848FFF774FB05480E
:10193000008800F0080020B1024800F083F9C0B22E
:10194000009008BD00380140100D0020F804002070
:1019500010B500BF40F22551094800F0B8F8012841
:1019600003D1074800F06EF9C4B20548008800F0C2
:10197000080018B1024800F065F9C4B210BD0000BB
:101980000044004008B59DF80000009040F2277127
:10199000184800F09CF8012810D169461648FFF756
:1019A00011FB28B19DF80010124800F050F905E035
:1019B000002240F227710F4800F0B3F840F22551A1
:1019C0000C4800F084F8012809D10A4800F03AF9DF
:1019D000C0B200909DF800100848FFF71CFB0548B6
:1019E000008800F0080020B1024800F02BF9C0B2D6
:1019F000009008BD004800401C1100200409002090
:101A000021B1828942F40052828104E082894DF63C
:101A1000FF731A408281704710B504462048844203
:101A200009D101218803FFF743FB00214FF48040D7
:101A3000FFF73EFB32E01B48844209D101214804F4
:101A4000FFF716FB00214FF40030FFF711FB25E0F4
:101A50001548844209D101218804FFF709FB0021C0
:101A60004FF48020FFF704FB18E01048844209D1AE
:101A70000121C804FFF7FCFA00214FF40020FFF712
:101A8000F7FA0BE00A48844208D101210805FFF764
:101A9000EFFA00214FF48010FFF7EAFA10BD0000C2
:101AA000003801400044004000480040004C004025
:101AB0000050004002460020B1F5007F00D100BF79
:101AC00013880B400BB1012000E00020704770B577
:101AD0000246002400230025002040F66A16B14289
:101AE00000D100BFC1F3421501F01F03012606FA21
:101AF00003F3012D02D19689334006E0022D02D175
:101B0000168A334001E0968A33400C12012606FA09
:101B100004F41688344013B10CB1012000E0002019
:101B200070BDF0B50346002400260025002040F6D5
:101B30006A17B94200D100BF1846C1F3421401F040
:101B40001F06012707FA06F5012C01D10C3004E02D
:101B5000022C01D1103000E014301AB107682F4375
:101B6000076002E00768AF430760F0BD2DE9F0476A
:101B700086B005460E460024A24600BFA1460027B7
:101B8000B08900B100BF2F462C8A4CF6FF7004408C
:101B9000F08804432C82AC894EF6F3100440B088E0
:101BA00031890843718908430443AC81AC8A4FF6FC
:101BB000FF400440B0890443AC8201A8FFF788FAD3
:101BC0001F48874202D1DDF810A001E0DDF80CA02B
:101BD000A88900F4004040B10AEBCA0000EB0A10EB
:101BE00031684900B0FBF1F807E00AEBCA0000EBEE
:101BF0000A1031688900B0FBF1F86420B8FBF0F0FE
:101C000004012009642101FB1089A88900F4004027
:101C100040B1322000EBC900B0FBF1F000F007004A
:101C2000044308E0322000EB09106421B0FBF1F01E
:101C300000F00F0004432C8106B0BDE8F0870000DF
:101C40000038014001468888C0F308007047C1F39E
:101C50000802828070474FF4165101600021818094
:101C6000C18001810C21418100218181704710B523
:101C700003460C46194644F4807200BF49005200E6
:101C800002F4807000B1491C01F4803010B141F2BF
:101C90002100414002F480300028EFD088B210BD0E
:101CA00070B504460D4629462046FEF754FE70BD29
:101CB00010B5024800F076F810BD00006400002066
:101CC00008B901B970470268120E0A700268120C56
:101CD0004A700288120A8A700278CA7000BFF1E75F
:101CE00010B50024FEF7A3FCFFF74AFB00224FF4D7
:101CF000E1310D48FEF73AFD00F028F8FFF704FC4B
:101D00004FF4FA70FEF74AFE43210748FEF723FE20
:101D100043210648FEF71FFE01218807FFF73AFC22
:101D2000FEF762FF002010BDC8040020B0040020B0
:101D300000B97047002101600349C9684160024948
:101D4000C86000BFF5E700004C00002070B5FEF74A
:101D500066FC04464FF47A70B4FBF0F5681E4FF051
:101D6000E0214861FF200D4908704FF0E020006934
:101D700040F005004FF0E02108610846006940F09E
:101D80000200086100200649C86008604860886059
:101D900001F11000FFF7CCFF70BD000023ED00E063
:101DA0004C00002038B5044669461848FEF7C1FDCE
:101DB00090B19DF80000012804D115490870002059
:101DC0001449087012480078012805D19DF80020B8
:101DD00021460E48FEF758FF69460F48FEF7A9FD59
:101DE00090B19DF80000012804D10A490870002034
:101DF0000749087007480078012805D19DF80020A0
:101E000021460548FEF740FF38BD0000C804002009
:101E10001A00002019000020B004002010B500298D
:101E20000AD00878002807D005487844FEF7B0FBB0
:101E3000002801D0002010BD0248784410BD0000E9
:101E40003E00000036000000781F0008000000205F
:101E50004C000000BC010008C41F00084C0000201A
:101E60003C1B0000D80100081001000043000000E6
:101E7000F8FFFFFF004040404040404040404141AB
:101E8000414141404040404040404040404040404F
:101E900040404040400502020202020202020202E9
:101EA00002020202022020202020202020202002E6
:101EB0000202020202029090909090901010101076
:101EC0001010101010101010101010101010101012
:101ED00002020202020288888888888808080808A6
:101EE0000808080808080808080808080808080872
:101EF000020202024000000000000000000000009A
:101F000000000000000000000000000000000000D1
:101F100000000000000000000000000000000000C1
:101F200000000000000000000000000000000000B1
:101F300000000000000000000000000000000000A1
:101F40000000000000000000000000000000000091
:101F50000000000000000000000000000000000081
:101F60000000000000000000000000000000000071
:101F700000000000000000000000000000F0000869
:101F80000000000000000000000000000000000051
:101F900001000000000000000000000000A24A0450
:101FA0000000000000000000010203040607080909
:101FB00000000000010203040102030406070809EF
:041FC0000204060809
:04000005080001816D
:00000001FF
