:020000040800F2
:10F00000A8480020D1F200086D3E0108B93301087C
:10F01000E93D0108311101085554010800000000C4
:10F02000000000000000000000000000A1430108F3
:10F030004D2C010800000000093F01088D46010821
:10F04000EBF20008EBF20008EBF20008EBF200082C
:10F05000EBF20008EBF20008892D0108EBF2000842
:10F06000EBF20008EBF20008EBF20008EBF200080C
:10F07000EBF20008EBF20008EBF20008EBF20008FC
:10F08000EBF20008EBF20008EBF200086116010851
:10F090000D130108F1130108D5140108EBF2000863
:10F0A000EBF20008EBF20008EBF20008EBF20008CC
:10F0B000EBF2000849470108EBF20008EBF2000808
:10F0C000EBF20008EBF20008EBF20008EBF20008AC
:10F0D000EBF20008B54F010881500108B550010856
:10F0E000EBF20008EBF20008EBF200080000000071
:10F0F0000000000000000000000000000000000010
:10F10000000000000000000005480108EBF20008C4
:10F110004D4F0108814F010859480108EBF20008E2
:10F12000EBF20008EBF20008EBF20008EBF200084B
:10F13000EBF20008EBF20008EBF20008D51A010828
:10F14000D1170108B518010899190108EBF2000858
:10F15000000000000000000000000000EFCDAB86C2
:10F16000746C6177020100000002620EA87609004B
:10F17000150000000C0000009F8601000000000048
:10F1800000F002F800F094F80AA090E8000C824425
:10F190008344AAF10107DA4501D100F089F8AFF202
:10F1A000090EBAE80F0013F0010F18BFFB1A43F065
:10F1B00001031847F87F000018800000103A24BFB0
:10F1C00078C878C1FAD8520724BF30C830C144BFCC
:10F1D00004680C607047000000230024002500260E
:10F1E000103A28BF78C1FBD8520728BF30C148BFAA
:10F1F0000B6070476E2900F07F82702900F0D08389
:10F20000662907F03487652907F03187672907F0F9
:10F210002E876129AFF3008003681B0A28BF41F0E5
:10F220008001692900F02C82642900F02982752967
:10F2300000F026826F2900F05B83782900F09C8320
:10F24000E92900F0F382E42900F0F082F52900F0CA
:10F25000ED82EF2900F05883F82900F09B830368C2
:10F26000DB0928BF41F08001632900F07E87732904
:10F2700000F08387E32900F08E87F32900F093875D
:10F28000002070471FB59DE8030000F05FF900F013
:10F29000DBFF04000020002106F092FF401C6060AC
:10F2A0000020002106F0A2FFE0601FBD10B510BDD8
:10F2B00000F0A5FF1146FFF7E5FF06F01DFC01F089
:10F2C00079F803B4FFF7F2FF03BC01F0A7F80000E0
:10F2D0000948804709480047FEE7FEE7FEE7FEE7EA
:10F2E000FEE7FEE7FEE7FEE7FEE7FEE70448054926
:10F2F000054A064B70470000D946010881F1000815
:10F30000A83C0020A8480020A8440020A8440020D1
:10F3100070B5064600F0FEF8056806F10B0020F017
:10F320000704B4429CBF002070BD2B466A68BAB186
:10F330001068A04210D304F1080188423CBF506815
:10F34000586007D35168101941601168091B0160AA
:10F3500058601460101D70BD13465268002AE7D132
:10F360002146284600F0DEF80028DED170BD70B5D9
:10F370000446051F00F0CEF80068002C14BF446856
:10F3800070BD002C18BFAC423CBF20466468F8D367
:10F3900001680A18AA4218BF456003D12A680546C9
:10F3A0001144016028684119A1421CBF6C6070BD06
:10F3B0006168696021680844286070BD7CB51D469D
:10F3C00016460C00009001D02044401E074B7B44A1
:10F3D0002A4669460190304600F0A9F905461CB15D
:10F3E0000020694600F0B6F928467CBD8D03000078
:10F3F000032A40F2308010F0030C00F0158011F861
:10F40000013BBCF1020F624498BF11F801CB00F838
:10F41000013B38BF11F8013BA2F1040298BF00F88C
:10F4200001CB38BF00F8013B11F0030300F08A83E1
:10F43000083AC0F0088051F8043B083A51F804CB70
:10F44000A0E80810F5E7121D5CBF51F8043B40F836
:10F45000043BAFF30080D20724BF11F8013B11F841
:10F4600001CB48BF11F8012B24BF00F8013B00F885
:10F4700001CB48BF00F8012B70474FF00002042970
:10F48000C0F0128010F0030C00F01B80CCF1040CD3
:10F49000BCF1020F18BF00F8012BA8BF20F8022B07
:10F4A000A1EB0C0100F00DB85FEAC17C24BF00F8AD
:10F4B000012B00F8012B48BF00F8012B70474FF0DB
:10F4C000000200B5134694469646203922BFA0E8B4
:10F4D0000C50A0E80C50B1F12001BFF4F7AF0907C0
:10F4E00028BFA0E80C5048BF0CC05DF804EB8900B1
:10F4F00028BF40F8042B08BF704748BF20F8022BF4
:10F5000011F0804F18BF00F8012B7047704770470B
:10F510007047000000487047503C0020704770471B
:10F520007047704738B504460A4600206946AFF375
:10F530000080002808BF38BD02460099204600F030
:10F540003FFB012038BD012000F051BEF8B5AFF3FC
:10F550000080054600200C46102000BF0646A81972
:10F56000A0420DD9324669460020AFF30080070063
:10F5700008BF00F03CFE0098A04218BF0546C41921
:10F58000FFF7C8FF05600746F01D20F00700461989
:10F59000284600F00AF8B44208BFF8BDA21B314665
:10F5A0003868BDE8F84000F00BBB00210160C0E9FD
:10F5B000011070471020704770B5044685690068D7
:10F5C000C10601D5302600E02026C00708D070BD56
:10F5D000D4E9012130469047206A00F10100206201
:10F5E0006D1EF5D570BD70B5044685690078C007FD
:10F5F00008D170BDD4E9012120209047206A00F194
:10F60000010020626D1EF5D570BD09684A0501D55F
:10F6100040B27047C905FCD500B2704709684A0579
:10F6200001D5C0B27047C905FCD580B2704770B52E
:10F630000C460546012A05D02878800600D5EA69DF
:10F64000002302E0012305E05B1C934202D2E05C50
:10F650000028F9D1A869E618C01AA861286A1844D8
:10F6600028622846FFF7A8FF04E0D5E9012114F835
:10F67000010B9047B442F8D32846FFF7B4FF70BDA2
:10F680002DE9F0410646002410687529314616A57B
:10F6900011D0FFF7BAFF002803DAC0F1000013A56C
:10F6A00007E031688A0701D511A502E0490704D5B2
:10F6B00010A5012401E0FFF7B1FF00210A2306F1A4
:10F6C000240707E0B0FBF3F203FB1200303078545C
:10F6D0001046491C0028F5D123462A463046BDE88D
:10F6E000F04100F0CCBA0000000000002D00000046
:10F6F0002B0000002000000011680268006A53051A
:10F7000001D508700BE0D30501D5088007E013068A
:10F7100003D5C217C1E9000201E0520608600120CA
:10F720007047000001694A1C02610878704700B503
:10F730008FB0CDE901310021059105497944CDE92A
:10F7400003101146684600F037F90FB000BD000005
:10F75000E5FFFFFF0A6802F8010B0A607047D1E974
:10F7600000239A4202D2531C0B60107070470000B5
:10F770002DE9FF5F15468A460446DFF8AC80F84461
:10F780000027D8E900103E46CDE9001011E03AF814
:10F7900016106A4602A800F00AFD411C07D0217825
:10F7A000890603D5E269391891420ED8074406F15B
:10F7B00001062078800602D5E069B84205DDAE4238
:10F7C000E5DB3AF816000028E1D1A069C01BA06172
:10F7D0002046FFF7F1FED8E90010CDE90010002027
:10F7E00016E03AF818106A4602A800F0E0FC8146DC
:10F7F000401C0BD000250DF1080B05E0D4E90121D8
:10F800001BF8050090476D1C4D45F7D308F101002A
:10F81000B0428046E5DB206A384420622046FFF78C
:10F82000E2FEBDE8FF9F0000527900002DE9F041A3
:10F830008046D21D22F007020025D2E90002F529F8
:10F8400014A612D0002A06DA0023D0EB030063EBE3
:10F85000020211A608E0D8F800108B0701D50FA608
:10F8600002E0490701D50EA601251146002408F142
:10F87000240704E000F0BEF930323A55641C50EA27
:10F880000102F7D12B46324621464046BDE8F04101
:10F8900000F0F5B9000000002D0000002B00000072
:10F8A0002000000030B4002100F124040CE002F03C
:10F8B000070505F130054FEAD20242EA437265546A
:10F8C00001F101014FEAD30352EA0305EFD10468C5
:10F8D000002310A2250708D504F020040C4304D00F
:10F8E000C46901230CA2641EC46130BC00F0C7B916
:10F8F00010B5044621461068FFF790FE02462046E8
:10F90000BDE810400023CDE7D21D22F00701D1E968
:10F910000023C7E70000000030000000F0B40D46EF
:10F920000188090502D5234C7C4402E0214C7C442B
:10F930000E34002100F124060BE002F00F074FEA1D
:10F940001212E75D42EA03724FEA1313775401F192
:10F95000010152EA0307F0D102780023120704D50F
:10F96000702D06D009B1113402232246F0BC00F0FC
:10F9700086B910340123F8E770B504460D462146D8
:10F980001068FFF74BFE024629462046BDE870404E
:10F990000023C3E7D21D22F00703D3E90023BDE70C
:10F9A0000368126843F0200303600823C361002347
:10F9B000B4E70000B07700002DE9F05F8946044607
:10F9C0004FF0000ADFF878B1FB44C0F820A02046D1
:10F9D000E1688847002875D0252806D0D4E90121A0
:10F9E0009047206A401C2062F1E700265F462046CF
:10F9F000E16888472028054608DB312D06D207EB51
:10FA0000050010F8200C08B10643F0E7B00701D557
:10FA100026F00406C4F81CA00027C4F818A02A2D5C
:10FA200009D0284605F02CFD38B304EB8708303D9B
:10FA3000C8F8185019E059F8041B204604EB870257
:10FA40009161E1688847012F054618D1E0690028D7
:10FA500020DA26F020061DE0D8F8180000EB800020
:10FA600005EB40003038C8F818002046E1688847A8
:10FA7000054605F005FD0028EED1012F0AD02E2DF8
:10FA800008D12046E16888477F1C0546022F46F0D2
:10FA90002006C4DBA069002803DA404246F00106D4
:10FAA000A061F00701D026F010066C2D0BD0682D58
:10FAB00009D04C2D39D06A2D35D0742D35D07A2D02
:10FAC00033D016E038E0E1682F4620468847B84238
:10FAD000054609D16C2F26D04FF48060E1680643BB
:10FAE00020468847054604E06C2F1AD04FF48070FA
:10FAF00006430DB3A5F14100192802D8203546F47C
:10FB000000664A462946204626604E46FFF772FBAD
:10FB100080B101280BD0F61D26F0070000F108097E
:10FB200055E74020E4E78020D8E70020D6E706F13B
:10FB300004094CE7284651E7206ABDE8F09F000021
:10FB40003877000010B5203AC0F00B80B1E81850AB
:10FB5000203AA0E81850B1E81850A0E81850BFF4B7
:10FB6000F5AF5FEA027C24BFB1E81850A0E8185056
:10FB700044BF18C918C0BDE810405FEA827C24BFAA
:10FB800051F8043B40F8043B08BF7047D20728BF38
:10FB900031F8023B48BF11F8012B28BF20F8023B87
:10FBA00048BF00F8012B704700487047483C0020D0
:10FBB00010B500F049FB001D10BD00BF0566000038
:10FBC000034640688C46002818BF88423CBF034665
:10FBD0004068F8D318681844884207D00CF1030035
:10FBE00020F00700001D411A521A0146081D0A6044
:10FBF000FFF7BDBB30B5B0F10A024FEA900E71F1CC
:10FC000000034EEA817EB0EB0E0061EB91014FEAFA
:10FC1000101E4EEA017E10EB0E0041EB11114FEA6F
:10FC2000102E4EEA016E10EB0E0041EB11214FEA4F
:10FC3000104E4EEA014E10EB0E0041EB1141401800
:10FC400041F100014FEAD00040EA41704FEAD10192
:10FC500010EB80054FEA810444EA907444EB010400
:10FC60006D1944EB0404521BA3414FF0000348BF3D
:10FC70000A3200D530BD401C41F1000130BD2DE9F4
:10FC8000F0470D4699469246044600F12408016863
:10FC9000880604D5E06921F01001216000E0012010
:10FCA000A84202DDA0EB050700E00027A16907EBF1
:10FCB000050202EB0900A1EB0000A0612078C0065C
:10FCC00002D42046FFF778FC002608E0D4E90121A1
:10FCD0001AF806009047206A401C761C20624E45A8
:10FCE000F4DB2078C0060AD52046FFF765FC06E065
:10FCF000D4E9012130209047206A401C2062381E40
:10FD0000A7F10107F4DC07E0D4E9012118F80500A8
:10FD10009047206A401C2062281EA5F10105F3DCF3
:10FD20002046FFF760FC2078000602D50220BDE8DF
:10FD3000F0870120FBE770472DE9FF4F0C461E4678
:10FD40004FF0FF378BB0D2E90001DDF860800A90F8
:10FD50008A46C1F30A5505B93D46002108464FF0D1
:10FD60000000BAF1000F00F4400005DA00EB80005B
:10FD70004FF4400101EA50004FEA9059B9F1010FE8
:10FD800000DDB9460A9850EA4A000ED044F61050F9
:10FD9000A5F2FF3545432F14B8F1000F1ED0754270
:10FDA000291E1EDDC9F100021CE0B8F1010F4FF061
:10FDB000000001D0302103E0F24305E02154401C53
:10FDC000B042FBDB30460022002121540B99C1F8E0
:10FDD0000880C1E900200FB0BDE8F08FBD1B6D1C8D
:10FDE000DEE74A4600DA694206A800F071FA06AB7F
:10FDF00007CB03AB07C350460A9900F076FB8DE8AA
:10FE00000700A0F500501F3800900398002D09DD71
:10FE100042F21F014A46084403A90390684600F0D5
:10FE2000D5FD08E0A0F500504A461F3803A903900D
:10FE3000684600F0DFFD8DE807000004000C03D0E9
:10FE40004FF0FF30410800E01046B8F1000F03D03A
:10FE50000022009215461FE0751E06D4FFF7CAFE69
:10FE600002F1300262556D1EF8D5B34601220843F7
:10FE700002D000227F1C04E02078302801D100222B
:10FE80007F1E002A099787D01DE0112D07DAFFF7A2
:10FE9000B1FE303262556D1C50EA0102F5D10843C3
:10FEA0000FD10021681E05E0235C625C6354491C8D
:10FEB0002254401E8142F7DBAB46A81B401E09902E
:10FEC00001E0009848B1002004F80B000B98099A53
:10FED000C0F80880C0E9002B7DE711264FF000082C
:10FEE0005AE72DE9F04F88460446D21D22F007015B
:10FEF00091B0D1E90001CDE90A0105F0ADFA024661
:10FF00000B98C00F01D02D2007E02068810701D594
:10FF10002B2002E0202101EAC000032A099001D031
:10FF2000072A05DB03464146204600F091F90FE120
:10FF30002078800601D5E06900E00620B8F1650F61
:10FF4000814606D0B8F1660F18D0B8F1670F72D1AC
:10FF500032E00020B9F1110F009001DB112301E024
:10FF600009F101030AAA01A90CA8FFF7E5FEDDE9E2
:10FF70000C70002609F10105834648E001204B463C
:10FF800000904FF000470AAA01A90CA8FFF7D4FE81
:10FF9000DDE90DB00C995D46002618B909F10100A4
:10FFA00001EB0005B9EB050003D4C0F1FF3609F100
:10FFB0000105A5EB09002BE0B9F1010F01DA4FF0C3
:10FFC00001090020B9F1110F0090484601DD11230D
:10FFD00000E003460AAA01A90CA8FFF7ADFEDDE97F
:10FFE0000C704D4600268346207800070AD4AB45A6
:10FFF00000DA5D4601A8012D04DD411911F8011C4C
:020000040801F1
:10000000302907D04F4502DA17F1040F04DA012036
:10001000824610E06D1EEEE7002F02DCED1B3E4431
:1000200003E0781CA84200DD0546A7EB060000F1BE
:10003000010A4FF000472078000703D4AA4501DBEE
:100040004FF0FF3A0021B7F1004F0DF143088DF852
:10005000431023D002202B23002F01DA7F422D23CF
:100060004FF00A0C011EA0F1010000DC4FB197FB1C
:10007000FCF10CFB11720F4602F1300208F8012D61
:10008000F0E7A8F1010003702188090501D5452199
:1000900000E06521A0F1010800F8011C09980FA9F2
:1000A000A1EB080707F1070700B1012000EB0501EC
:1000B00001EBEA70A1693844A1EB0000A0F1010056
:1000C000A0612078C00602D42046FFF775FA09988F
:1000D00030B1D4E901219047206A00F1010020628B
:1000E0002078C00620D52046FFF766FA1CE0002ED7
:1000F00004DBB34502DD01A8805D00E03020D4E9D7
:1001000001219047206A761C401CBAF1010A206246
:100110000AD100F099F8C0680168405CD4E9012177
:100120009047206A401C2062281EA5F10105DEDCF4
:1001300007E0D4E9012118F8010B9047206A401C20
:100140002062381EA7F10107F3DC2046FFF74BFAC7
:10015000022011B040E610B5436913B1AFF300803F
:1001600001E0FFF764FA012010BD127800F12401CC
:100170000A7000224A700122EDE711684FF0FF3249
:10018000E9E710B5436913B1AFF3008001E0FFF771
:10019000EFFA012010BD128800F1240182840022B0
:1001A000C2840122EDE711684FF0FF32E9E770B534
:1001B00016460C460546FFF7FBFC036893F8010161
:1001C000012806D0FF2C0FD8185D68B101202C70D3
:1001D00070BDD3F807013246214603442846BDE8E6
:1001E000704003F2071318474FF0FF3070BD10B591
:1001F00000F0ECF8BDE8104000F0E2B8704775463A
:10020000FFF7D2FCAE4605006946534620F00700D2
:10021000854618B020B5FFF769F8BDE820404FF0DB
:1002200000064FF000074FF000084FF0000B21F0E0
:100230000701AC46ACE8C009ACE8C009ACE8C009AD
:10024000ACE8C0098D46704700487047683C002004
:100250002DE9F0411F46044603260168072A01F4F0
:10026000006004DB08B116A505E016A503E008B19F
:1002700015A500E015A521F010002060A069C01EA2
:10028000A0610FB1401EA0612046FFF795F94FB164
:10029000D4E9012138469047206A401C2062C01CE6
:1002A000206206E0206AFAE7D4E9012115F8010B83
:1002B0009047761EF8D22046FFF795F9BDE8F08109
:1002C0004E414E006E616E00494E4600696E6600FA
:1002D0002DE9F047814616468AB035487844D0E982
:1002E000002380680092CDE90130314878440C3811
:1002F000D0E90223006903924FF03702CDE90430C0
:1003000041F69B30014491FBF2F0A0F1800502FB25
:1003100010141B3C02D56442012000E00020DFF8ED
:1003200090A080460027FA44AAF1C60A0DE0E00733
:1003300009D03246684607EB47010AEB810100F01D
:1003400059FB8DE8070064107F1C002CEFD1184F7B
:100350007F44B43F17E0E80713D007EB04100DF11A
:10036000180A90E80E00AAE80E00C068F04201D119
:1003700098190890324606A903A800F03BFB03AB8E
:1003800007C36D10641C002DE5D132466946B8F1F3
:10039000000F03A802D000F019FB01E000F02AFBD7
:1003A000C9E90001C9F808200AB0BDE8F0870000DB
:1003B000B46E00000446AFF300802046FEF781FFD4
:1003C000002801D000F02AB87047000010B50128BD
:1003D00005D0002103A000F027F8012010BD09A1DD
:1003E000F8E7000053494752544D454D3A204F75A8
:1003F00074206F662068656170206D656D6F72791D
:10040000000000003A2048656170206D656D6F72D4
:100410007920636F727275707465640001491820E9
:10042000ABBEFEE72600020070B505460C460A206A
:1004300000E06D1C00F052F835B128780028F8D1A2
:1004400002E0641C00F04AF814B120780028F8D1CA
:10045000BDE870400A2000F041B800004FF0013CB8
:1004600050F8042B51F8043B9A4221D1A2EB0C0323
:10047000934313EACC1317D150F8042B51F8043BE3
:100480009A4215D1A2EB0C03934313EACC130BD180
:1004900050F8042B51F8043B9A4209D1A2EB0C030B
:1004A000934313EACC13DBD04FF00000704700BF3A
:1004B000D01A01BAB1FA81F101F0180122FA01F063
:1004C000CB40C1F12001DBB2C0B2C01A2CFA01F35B
:1004D000D11A914311EAC311E6D1704708B56946B4
:1004E0008DF800000320ABBE08BD5FEA400C08BFDA
:1004F00091F0000F4FEA8C234FEAC12243EA515199
:100500004FEA1C5018BF00F5F0404FEA300018BF0A
:1005100041F000415FEA6C5C00F02980BCF1FF3FD4
:1005200008BF40F080407047130C06BF12044FF024
:10053000100C4FF0000C130E04BF12020CF1080C4B
:10054000130F04BF12010CF1040C930F04BF9200AF
:100550000CF1020CD30F04BF52000CF1010C114638
:100560004FF00002A0F11F00A0EB0C00704711F04B
:10057000004F08BF704731F000413FF4D5AF0B0C7E
:1005800006BF09044FF0100C4FF0000C0B0E04BF17
:1005900009020CF1080C0B0F04BF09010CF1040C4B
:1005A0008B0F04BF89000CF1020CCB0F04BF490074
:1005B0000CF1010CCCF12003A0EB0C0022FA03F3A8
:1005C00002FA0CF241EA030100F10100704720F049
:1005D0007F4C80EA030023F07F47ACEB070303F571
:1005E0007C5300F0004003F1FF032DE980494FEAFE
:1005F000154B09B44FEA144325EA0B4E24EA03488D
:100600000FF2042606EB132749083E785FEA320210
:1006100003FB0667C7F5000707FB06F64FEA5437EA
:100620004FEAD64606F1020607FB066CCCF1005CE9
:100630004FEA1C472CEA074C07FB06F40CFB06F5B7
:1006400004EB15464FEA961634BF00204FF00040E9
:100650004FEAD13706FB07FC4FEA1C4C0CFB0BF7AB
:10066000D21B03FB0CF761EB07010CFB0EF7B0EBA1
:10067000074072EB17420CFB08F734BFA2EB0742AE
:10068000B2EB074261EB17414FEA0C444FEA910786
:1006900006FB07FC4FEA1C4C0CFB0BF7B0EBC7400A
:1006A00072EB573203FB0CF734BFA2EBC742B2EB3D
:1006B000C74261EB57310CFB0EF7B0EBC70072EB92
:1006C00057720CFB08F734BFA2EBC702B2EBC702AC
:1006D00061EB5771039F4FEA816141EA921104EB8C
:1006E000CC044FEAD1374FEA826206FB07FC42EAAC
:1006F00090124FEA80604FEA1C4C0CFB0BF7D21BA8
:1007000003FB0CF761EB07010CFB0EF7B0EB0740A6
:1007100072EB17420CFB08F734BFA2EB0742B2EBB7
:10072000074261EB17414FEA8C554FEA910704EB02
:100730009C2406FB07FC4FEA1C4C0CFB0BF7B0EBB0
:10074000C74072EB573203FB0CF734BFA2EBC74232
:10075000B2EBC74261EB57310CFB0EF7B0EBC700B1
:1007600072EB57720CFB08F734BFA2EBC702B2EB77
:10077000C70261EB577115EB4C254FEA816141EAE5
:1007800092114FEA82624FEAD13742EA901206FB99
:1007900007FC44F100044FEA80604FEA1C4C0CFB5C
:1007A0000BF7D21B03FB0CF761EB07010CFB0EF7F9
:1007B000B0EB074072EB17420CFB08F734BFA2EB1B
:1007C0000742B2EB074261EB174115EB1C154FEAEC
:1007D000813141EA92414FEA823242EA90424FEA45
:1007E00080304FEA0C7644F1000448EA03434EEAB5
:1007F0000B484FF0000EB2EB080C71EB030724BF5F
:10080000624639464EEB0E0E4FF0000B0018524177
:1008100049414BEB0B0BB2EB080C71EB03077BF17F
:10082000000B24BF624639464EEB0E0E4FF0000B14
:100830000018524149414BEB0B0BB2EB080C71EB2A
:1008400003077BF1000B24BF624639464EEB0E0EC8
:1008500051EA020718BF46F0010616EB0E7655F175
:10086000000254F1000103D5BDE88901BDE800880C
:10087000BDE88901BDE80048B619524141EB0101CC
:10088000A3F10103704780807F7E7D7C7B7A79783D
:10089000777676757473727171706F6E6E6D6C6C45
:1008A0006B6A6A69686867666665646463636261E7
:1008B0006160605F5F5E5E5D5D5C5C5B5B5A5A5968
:1008C00059585857575656555555545453535252D4
:1008D0005251515050504F4F4F4E4E4D4D4D4C4C2C
:1008E0004C4B4B4B4A4A4A49494948484847474775
:1008F00047464646454545444444444343434342B2
:10090000424242414141002B26D4770021D01CB500
:100910004FEA370703B44FF010004FF010014FF0CB
:1009200000000FBCBDE810400BF1010BBBF1010F43
:1009300008BF5FEA170722BF12F1010211F101019E
:100940004FF0004143F1000300F0004043EA000093
:100950007047F9D35708DAE746EA064613F1400F25
:100960004FEA16461FDD13F1200FDFBF16430A467C
:10097000002120335B42C8D0C3F1200746EA064677
:1009800002FA07F74FEA164646EA0706C3F12007C0
:1009900022FA03F201FA07F721FA03F14FF00003FC
:1009A00042EA0702B1E746EA020646EA06464FEA8D
:1009B000164646EA0106BCBF46EA0646360C4FF02C
:1009C00000034FF000024FF000019EE72DE9C04800
:1009D000934630B491E8380007C831EA400C48BF6C
:1009E00034EA430C03D5FFF7F2FDFFF78CFFF0BCB0
:1009F000BDE800882DE9C048934630B491E838003E
:100A000007C810F0804F08BF13F0804F03D100F0EB
:100A100005F8FFF778FFF0BCBDE8008820F07F47BD
:100A200080EA030023F07F4C07EB0C03A3F57C5313
:100A300000F00040A3F1FE0392F0000F00F0B3803D
:100A400095F0000F00F077802DE901494FEA114041
:100A50004FEA144621EA004800FB06FC24EA064758
:100A600008FB06F607FB08F800FB07F718EB06483B
:100A70004CEB164C4FEA124B18EB07484FEA154661
:100A80004CEB174022EA0B4E0BFB06FC25EA06470F
:100A90000EFB06F607FB0EFE0BFB07F71EEB064EE2
:100AA0004CEB164C4FF000061EEB074E4CEB174B71
:100AB00018EB0B0840F1000018EB0E0B58EB000888
:100AC00040F100008F1A4FF000013CBFC943661B84
:100AD00014BFB5EB040C00213CBFC943F61B4FEA21
:100AE00017444EEA8E0E27EA04454FEA1C4704FBE2
:100AF00007622CEA074C05FB07F70CFB05F604FB25
:100B00000CFC16EB074642EB174216EB0C4642EB89
:100B10001C421BEB060658EB0202414146EA9E06C8
:100B200001D5BDE80189B619524141EB0101A3F19C
:100B30000103BDE801894FEA14454FEA114724EA51
:100B4000054621EA074C05FB07F406FB07F70CFBFB
:100B500006F105FB0CFC11EB074144EB17444FEA8F
:100B6000124711EB0C4144EB1C4422EA074C05FBF5
:100B700007F206FB07F70CFB06F605FB0CFC16EB71
:100B8000074642EB174216EB0C4642EB1C456A182F
:100B900054F1000148BF7047B619524141EB0101C1
:100BA000A3F10103704795F0000F37D04FEA1142CF
:100BB0004FEA144721EA024624EA074C02FB07F1F8
:100BC00006FB07F70CFB06F402FB0CFC14EB0744D6
:100BD00041EB17414FEA154714EB0C4441EB1C4124
:100BE00025EA074C02FB07F506FB07F70CFB06F6A8
:100BF00002FB0CFC16EB074645EB174516EB0C46C3
:100C000045EB1C42121951F1000148BF7047B6195B
:100C1000524141EB0101A3F1010370474FEA144532
:100C20004FEA114724EA054621EA074C05FB07F184
:100C300006FB07F70CFB06F24FF0000605FB0CFC69
:100C400012EB074241EB174112EB0C4251EB1C41F6
:100C500048BF7047921841EB0101A3F101037047AF
:100C60002DE9F04F87B00020744908808146059037
:100C700000BF0221724800F071F90028F9D002216A
:100C80006F4800F00BF96E4800F064F9064640F238
:100C9000B71171434800C11700EB9151C1F38F2187
:100CA000664A1180002404E00020664941F82400CF
:100CB000641C062CF8DB6348006860B94FF000093B
:100CC000002405E05D4800885E4941F82400641C6A
:100CD000062CF7DB24E0594800885A4941F82900DE
:100CE00009F10100062190FBF1F201FB120000F076
:100CF000FF09002051490880002508E0514830F8DC
:100D000025004E49098808444C4908806D1C062D71
:100D1000F4DB4A480088062190FBF1F0474908803F
:100D200000BF49480088052805D14448028847A1EA
:100D30004E4803F07DFC00BF4048008805F0D2FF1C
:100D4000019005F001FF07460022494B05F0DEFC4B
:100D50000022484BCDE9020105F044FB824605F034
:100D60005BFA0590059805F0EFFE0746424A434BB3
:100D700005F0CAFD08D8059805F0E6FE07463E4A8C
:100D80003F4B05F087FC4ED3059805F0DDFE074686
:100D9000394A3B4B05F0B8FD15D8059805F0D4FE4F
:100DA00007460022374B05F075FC0CD2059805F07C
:100DB000CBFE0746344A354B05F060FA824605F013
:100DC0002BFA05902FE0059805F0BEFE074600229D
:100DD0002F4B05F099FD15D8059805F0B5FE07468F
:100DE000254A274B05F056FC0CD2059805F0ACFEC1
:100DF0000746254A254B05F0BDFD824605F00CFA55
:100E0000059010E0059805F09FFE07460022214B53
:100E100005F07AFD07D8059805F096FE07460022F2
:100E20001B4B05F037FC04A9059804F005FE1A4891
:100E30000499C0F8031007B0BDE8F08F0E00002041
:100E4000002401400C020020020000206261747442
:100E50005F6C766C5F696E5F6D696C6C695F766FF5
:100E60006C74733C25443E0D0A000000D02B00201A
:100E7000000059400088C340CDCCCCCCCCCC334012
:100E8000CCCC3B40000042409A9999999999C93F2E
:100E90000000244000001C400400002000220A1230
:100EA000D3430360704721B1826842F0010282603F
:100EB00003E0826822F001028260704700B585B0CD
:100EC0000121480203F086F94FF4004003F056F97F
:100ED000002000908DF8040001208DF805004FF4EB
:100EE000602002900020039001208DF810006946D8
:100EF000124800F047F80523012211460F4800F080
:100F000069F801210D48FFF7CEFF0C4800F0BEF84C
:100F100000BF0A4800F02BF80028FAD1074800F07B
:100F2000C5F800BF054800F00BF80028FAD10121F0
:100F3000024800F0B0F805B000BD000000240140F8
:100F4000014600208A6802F004020AB1012000E094
:100F5000002070470146C86C80B2704702460020EE
:100F600013680B400BB1012000E0002070470146E0
:100F700000208A6802F008020AB1012000E0002087
:100F80007047000030B502460020002350680F4C27
:100F900020400D790C6844EA052420435060906895
:100FA0000B4C2040D1E902542C434D7944EA4504CE
:100FB00020439060D06A20F470000C7C641EE4B280
:100FC000234340EA0350D06230BD0000FFFEF0FF33
:100FD000FDF7F1FFF0B504460D4600200021092D74
:100FE00011DDE068A5F10A0606EB4607072606FABA
:100FF00007F18843A5F10A0606EB460603FA06F157
:101000000843E0600CE0206905EB4507072606FA77
:1010100007F1884305EB450603FA06F10843206112
:10102000072A0FDA606B561E06EB86071F2606FAA4
:1010300007F18843561E06EB860605FA06F10843BB
:10104000606322E00D2A0FDA206BD61F06EB8607BD
:101050001F2606FA07F18843D61F06EB860605FA17
:1010600006F10843206310E0E06AA2F10D0606EBEA
:1010700086071F2606FA07F18843A2F10D0606EB44
:10108000860605FA06F10843E062F0BD816841F08A
:1010900008018160704721B1826842F4A002826039
:1010A00003E0826822F4A00282607047816841F008
:1010B000040181607047000010B500F02DF802F0C7
:1010C0001DF903F0A9FA01F0B9FF01F02FFEFFF7B7
:1010D000F5FE03F0FBFB03F039FC03F077FC05F0B1
:1010E00043F804F0EFF903F0BBFAFFF7E7FE40F630
:1010F0003541042002F062F90121024803F0ACFC02
:1011000010BD00000010004000B585B0684603F037
:1011100081F8019805B000BD10B54FF4A06002F051
:10112000DFFE4FF470414FF0006002F0E3FE10BDAF
:1011300000BFFEE7F0B589B004460E461746802290
:101140006B496C4800F0CEFD6A48A0606A48206098
:101150000121092003F03EF80121480603F01AF8A6
:101160004FF48070ADF8200048208DF8230008A9C6
:10117000624801F0DDFF4FF40070ADF8200003205D
:101180008DF8220018208DF8230008A95B4801F093
:10119000CFFF01214FF4EA1002F056F813208DF82A
:1011A000000002208DF8010003208DF802000120CC
:1011B0008DF80300684602F05BFE14208DF80000F5
:1011C000684602F055FE15208DF80000684602F0D2
:1011D0004FFE16208DF80000684602F049FE464892
:1011E00000F02EFE01A801F031F900208DF80A0070
:1011F00001208DF80B0000208DF80C0001208DF8E7
:101200000D008DF80E008DF80F0000208DF80600FF
:101210008DF8070008208DF8080007208DF80900D8
:101220003748B0FBF6F080B2ADF8040001A93248AF
:1012300000F098FF012F1ED100251AE08DF81A50FA
:1012400000208DF81B0001208DF81C000020ADF857
:101250001000ADF81200ADF81400ADF81600ADF8AE
:10126000180001208DF81D0004A800F011FE681C74
:10127000C5B21C2DE2DB012211461F4800F069FFB8
:1012800080222049204800F02DFD1F486060012287
:101290000221194800F05DFF01221021164800F0DC
:1012A00058FF80221249134800F01CFD1148A0602D
:1012B00001225102104800F04CFF012211020E4899
:1012C00000F047FF012291020B4800F042FF01228B
:1012D000D102094800F03DFF0122D103064800F089
:1012E00038FF0121044800F0D6FF09B0F0BD00002E
:1012F000AC0B0020A00B002000640040000C01405B
:1013000080841E00C41B0020B81B00201FB50022D3
:101310002021314800F01DFF002240212E4800F01E
:1013200018FF40E02D48006800902D48006800F04C
:101330000F008DF806002B480068C0B28DF807003A
:10134000284800684FEA10218DF8081025480068E9
:101350004FEA10418DF80910224800684FEA1060EA
:101360008DF80A0020480068C1B28DF80B101E48A5
:1013700000684FEA10218DF80C101B4800684FEAF6
:1013800010418DF80D10184800684FEA10608DF874
:101390000E004FF00001104800F06EFD1349886800
:1013A000694600F0ABFC00210B4800F065FF002807
:1013B000B8D10421084800F0EFFC0821064800F0ED
:1013C000EBFC01222021044800F0C3FE0122402151
:1013D000014800F0BEFE1FBD00640040B065004043
:1013E000B4650040B8650040BC650040880B002033
:1013F0001FB500220421314800F0ABFE0022082175
:101400002E4800F0A6FE40E02D48006800902D48D0
:10141000006800F00F008DF806002B480068C0B28D
:101420008DF80700284800684FEA10218DF8081051
:10143000254800684FEA10418DF8091022480068DD
:101440004FEA10608DF80A0020480068C1B28DF89C
:101450000B101E4800684FEA10218DF80C101B4835
:1014600000684FEA10418DF80D10184800684FEAE7
:1014700010608DF80E004FF00101104800F0FCFCE8
:1014800013498868694600F039FC01210B4800F0D7
:10149000F3FE0028B8D12021084800F07DFC40214F
:1014A000064800F079FC01220421044800F051FEB6
:1014B00001220821014800F04CFE1FBD00640040DD
:1014C000C0650040C4650040C8650040CC65004070
:1014D000880B002070B54FF480713B4800F098FDF8
:1014E00001280ED100BF39480088052803D138A152
:1014F0003D4803F09DF800BF4FF48071324800F082
:101500004BFC4FF40071304800F082FD01280ED1F1
:1015100000BF2E480088052803D134A1324803F0CB
:1015200087F800BF4FF40071274800F035FC4FF4F6
:101530008061254800F06CFD01280ED100BF2348D2
:101540000088052803D12FA1274803F071F800BFB8
:101550004FF480611C4800F01FFC4FF400611A48F2
:1015600000F056FD012814D1174800F0E7FD0446AD
:10157000241100BF15480088052804D1224627A160
:10158000194803F055F800BF4FF400610E4800F011
:1015900003FC00BF0D48008805280DD10A4800F063
:1015A000C7FD0546084800F0CFFD06462B463246EB
:1015B00021A10D4803F03CF800BF4FF40041024860
:1015C00000F0EAFB70BD0000006400400200002053
:1015D00043414E31205343453A2043414E5F4954E5
:1015E0005F4557470D0A0000D02B002043414E3184
:1015F000205343453A2043414E5F49545F4550567E
:101600000D0A000043414E31205343453A204341E7
:101610004E5F49545F424F460D0A000043414E3130
:10162000205343453A2043414E5F49545F4C454364
:101630003D25640D0A00000043414E3120534345CF
:101640003A204552524F5220434F4E555445522056
:1016500052583D25642C2054583D25640D0A000045
:1016600000B589B03649374800F096FC012812D100
:101670000021344800F08EFF48B900BF324800888E
:10168000052803D131A13B4802F0D2FF00BF2C490D
:101690002C4800F065FB2A49FF312A4800F07CFC09
:1016A000012813D10121274800F074FF48B900BF79
:1016B00025480088052803D12FA12E4802F0B8FF45
:1016C00000BF1F49FF311F4800F04AFB34491D4845
:1016D00000F062FC012812D102211A4800F05AFFE2
:1016E00048B900BF18480088052803D12DA121481A
:1016F00002F09EFF00BF2A49124800F031FB012191
:10170000104800F049FB11E06946304800F0BEFA8D
:1017100000B911E0142104A8FDF7D1FE694604A820
:1017200000F090FA04A9074800F0A0FE0548083030
:10173000006810F0E05FE7D100BF09B000BD000015
:1017400001000038006400400200002043414E3197
:101750002054583A204D41494C424F582030207473
:1017600072616E736D6974206661696C65640D0ADF
:1017700000000000D02B002043414E312054583A45
:10178000204D41494C424F582031207472616E7394
:101790006D6974206661696C65640D0A0000000063
:1017A0000000013843414E312054583A204D414900
:1017B0004C424F582032207472616E736D697420F0
:1017C0006661696C65640D0A00000000B81B0020AA
:1017D0001FB500222021314800F0BBFC002240212F
:1017E0002E4800F0B6FC40E02D48006800902D48DF
:1017F000006800F00F008DF806002B480068C0B2AA
:101800008DF80700284800684FEA10218DF808106D
:10181000254800684FEA10418DF8091022480068F9
:101820004FEA10608DF80A0020480068C1B28DF8B8
:101830000B101E4800684FEA10218DF80C101B4851
:1018400000684FEA10418DF80D10184800684FEA03
:1018500010608DF80E004FF00001104800F00CFBF6
:1018600013498868694600F049FA00210B4800F0E6
:1018700003FD0028B8D10421084800F08DFA0821A2
:10188000064800F089FA01222021044800F061FC9A
:1018900001224021014800F05CFC1FBD00680040AF
:1018A000B0690040B4690040B8690040BC690040BC
:1018B000940B00201FB500220421314800F049FCA0
:1018C000002208212E4800F044FC40E02D4800682A
:1018D00000902D48006800F00F008DF806002B489E
:1018E0000068C0B28DF80700284800684FEA102150
:1018F0008DF80810254800684FEA10418DF809104E
:10190000224800684FEA10608DF80A0020480068FD
:10191000C1B28DF80B101E4800684FEA10218DF8F7
:101920000C101B4800684FEA10418DF80D10184844
:1019300000684FEA10608DF80E004FF0010110486A
:1019400000F09AFA13498868694600F0D7F9012136
:101950000B4800F091FC0028B8D12021084800F085
:101960001BFA4021064800F017FA0122042104481E
:1019700000F0EFFB01220821014800F0EAFB1FBD47
:1019800000680040C0690040C4690040C869004068
:10199000CC690040940B002010B54FF480713148A1
:1019A00000F036FB01280ED100BF2F480088052823
:1019B00003D12EA1334802F03BFE00BF4FF48071EB
:1019C000284800F0E9F94FF40071264800F020FBA8
:1019D00001280ED100BF24480088052803D12AA180
:1019E000284802F025FE00BF4FF400711D4800F0AA
:1019F000D3F94FF480611B4800F00AFB01280ED197
:101A000000BF19480088052803D125A11D4802F010
:101A10000FFE00BF4FF48061124800F0BDF94FF493
:101A20000061104800F0F4FA012814D10D4800F0CC
:101A300085FB0446241100BF0B480088052804D10B
:101A400022461DA10F4802F0F3FD00BF4FF40061D4
:101A5000044800F0A1F94FF40041024800F09CF95D
:101A600010BD0000006800400200002043414E32DB
:101A7000205343453A2043414E5F49545F45574701
:101A80000D0A0000D02B002043414E322053434525
:101A90003A2043414E5F49545F4550560D0A0000BD
:101AA00043414E32205343453A2043414E5F49540F
:101AB0005F424F460D0A000043414E3220534345DA
:101AC0003A2043414E5F49545F4C45433D25640DE8
:101AD0000A00000000B589B03649374800F05CFACA
:101AE000012812D10021344800F054FD48B900BF4C
:101AF00032480088052803D131A13B4802F098FD07
:101B000000BF2C492C4800F02BF92A49FF312A4804
:101B100000F042FA012813D10121274800F03AFDD4
:101B200048B900BF25480088052803D12FA12E48B9
:101B300002F07EFD00BF1F49FF311F4800F010F981
:101B400034491D4800F028FA012812D102211A4810
:101B500000F020FD48B900BF18480088052803D1CF
:101B60002DA1214802F064FD00BF2A49124800F06F
:101B7000F7F80121104800F00FF911E069463048EC
:101B800000F084F800B911E0142104A8FDF797FCD7
:101B9000694604A800F056F804A9074800F066FC5E
:101BA00005480830006810F0E05FE7D100BF09B0D9
:101BB00000BD000001000038006800400200002065
:101BC00043414E322054583A204D41494C424F58DF
:101BD0002030207472616E736D6974206661696C67
:101BE00065640D0A00000000D02B002043414E32F6
:101BF0002054583A204D41494C424F5820312074CE
:101C000072616E736D6974206661696C65640D0A3A
:101C1000000000000000013843414E322054583A81
:101C2000204D41494C424F582032207472616E73EE
:101C30006D6974206661696C65640D0A00000000BE
:101C4000C423002070B505460C466079687260793F
:101C500010B90020687203E06079022800D1687230
:101C6000207920B9002028722068286005E02079BA
:101C7000042802D1287220686860A079A872A2792D
:101C8000E11D05F10B00FDF7B3FB70BD70B5024619
:101C90001AB1906808B1908808B9002070BD10880A
:101CA0005588A84201D10020F8E71588906800EB1C
:101CB0000514A079887120680860002305E0E01D04
:101CC000C55CC81DC554581C83B288799842F6DC9F
:101CD0001088401C958890FBF5F605FB16001080D7
:101CE0000120DBE700B97047002303804380816057
:101CF00009B9838000E0828000BFF4E7F0B50246B6
:101D00001AB1906808B1908808B90120F0BD5088D8
:101D1000401C968890FBF6F706FB170085B21088EA
:101D2000A84201D10120F1E78879082801DD0820C7
:101D300088715688906800EB06148879A07108684D
:101D40002060002305E0C81DC65CE01DC654581C79
:101D500083B288799842F6DC55800020D6E70000EF
:101D600000220C4B994202D10023836111E0C1F3A0
:101D7000130211F0007F01D0C2600AE011F0806F01
:101D800001D0026105E011F0006F01D0826000E037
:101D9000426070477000F030B1F5007F3AD00FDC40
:101DA000202928D006DC01291CD004291DD00829AF
:101DB00040D11DE0402921D0B1F5807F3AD126E005
:101DC000B1F5004F31D006DCB1F5806F25D0B1F50B
:101DD000006F2FD124E0B1F5803F12D0B1F5003F64
:101DE00028D111E0154A826025E00822C26022E075
:101DF0001022C2601FE0082202611CE01022026172
:101E000019E00822426016E01022426013E004222A
:101E1000426010E0042242600DE0042242600AE0C9
:101E2000002282610422426005E0002282610422D5
:101E3000426000E000BF00BF7047000001010100E8
:101E400010B504460B48844209D10121480602F02E
:101E5000B1F900214FF0007002F0ACF908E0012167
:101E6000880602F0A7F900214FF0806002F0A2F985
:101E700010BD00000064004021B9C26842F0200299
:101E8000C26003E0026942F0200202617047000074
:101E900010B50021837A012202FA03F13D4A12684B
:101EA00042F001023B4B1A603A4A1C3212688A43E4
:101EB000384B1C331A60027BCAB9364A0C3212689E
:101EC0008A43344B0C331A604288C38842EA034386
:101ED000304A4032847A42F834300288838842EAB9
:101EE00003432C4A4032847A02EBC4025360027BE3
:101EF000012A19D1274A0C3212680A43254B0C33A8
:101F00001A604288038842EA0343224A4032847AB4
:101F100042F83430C288838842EA03431D4A403283
:101F2000847A02EBC4025360C27A3AB9194A121D8C
:101F300012688A43174B1B1D1A6006E0154A121DD2
:101F400012680A43134B1B1D1A60028932B9114AE9
:101F5000143212688A430F4B14331A600289012A23
:101F600006D10C4A143212680A430A4B14331A6021
:101F7000427B012A06D1074A1C3212680A43054BEC
:101F80001C331A60034A126822F00102014B1A60E6
:101F900010BD00000066004010B50246002011F49C
:101FA000700F08D09369C1F31304234201D00120BC
:101FB0002DE000202BE011F0807F08D05368C1F3A2
:101FC0001304234201D0012021E000201FE011F082
:101FD000006F08D09368C1F31304234201D001209D
:101FE00015E0002013E011F0007F08D0D368C1F3A2
:101FF0001304234201D0012009E0002007E0136907
:10200000C1F31304234201D0012000E0002010BDE1
:1020100070B504460D4600266069284271D0B5F5BA
:10202000807F5CD010DC082D35D006DC012D20D05F
:10203000022D24D0042D72D127E0102D31D0202D77
:1020400035D0402D6BD138E0B5F5004F60D009DCBC
:10205000B5F5007F49D0B5F5806F4CD0B5F5006F70
:102060005DD14FE0B5F5803F2DD0B5F5003F56D19D
:102070002FE0A0682D4900F027FC064651E0E068FB
:10208000032100F021FC06464BE0E068082100F047
:102090001BFC064645E0E068102100F015FC0646F2
:1020A0003FE02069032100F00FFC064639E020697B
:1020B000082100F009FC064633E02069102100F0F9
:1020C00003FC06462DE06068082100F0FDFB064693
:1020D00027E06068102100F0F7FB064621E0A069C8
:1020E000012100F0F1FB06461BE0A069022100F08F
:1020F000EBFB064615E0A069042100F0E5FB06466F
:102100000FE00FE0A069702100F0DEFB064608E05A
:102110006068042100F0D8FB064602E0FFE70026D5
:1021200000BF00E00026304670BD00000101010044
:10213000014600208A69C2F307407047014600202B
:102140008A6902F070007047014600208A69100E0B
:1021500070471AB143690B43436102E043698B4303
:102160004361704730B5024600200023146824F014
:1021700002041460146844F00104146000E05B1C65
:10218000546814F0010F03D1A3F57F44FF3CF6D14E
:10219000546814F0010F01D100206CE08C79012CFF
:1021A00004D1146844F08004146003E0146824F03F
:1021B00080041460CC79012C04D1146844F04004EC
:1021C000146003E0146824F0400414600C7A012CBD
:1021D00004D1146844F02004146003E0146824F06F
:1021E000200414604C7A012C04D1146844F01004CB
:1021F000146003E0146824F0100414608C7A012C3D
:1022000004D1146844F00804146003E0146824F056
:1022100008041460CC7A012C04D1146844F004043E
:10222000146003E0146824F0040414608C78A4079C
:10223000CD7844EA05640D7944EA05444D7944EAD1
:1022400005540D886D1E2C43D461146824F00104DC
:102250001460002300E05B1C546814F0010F03D0ED
:10226000A3F57F44FF3CF6D1546814F0010F01D070
:10227000002000E0012030BD0246002019B9D368DB
:1022800003F0030006E0012903D1136903F0030002
:1022900000E00020704710B502460B4600204FF6C4
:1022A000FF71BBB9146824F0020444F00104146007
:1022B00000E0491E546804F00304012C01D00029F9
:1022C000F7D1546804F00304012C01D0002032E05F
:1022D000012030E0012B13D1146824F003041460B2
:1022E00000E0491E546814F0030F01D00029F8D112
:1022F000546814F0030F01D000201CE001201AE004
:10230000022B17D1146824F0010444F00204146075
:1023100000E0491E546804F00304022C01D0002997
:10232000F7D1546804F00304022C01D0002002E02D
:10233000012000E0002010BDF0B585B02C480068F9
:10234000049000BF2B480088052803D12AA12F48FC
:1023500002F06EF900BF00208DF80A008DF80B0026
:1023600001208DF80C00BDF810004FF6FF7101EA56
:102370004010ADF8000000BF1E480088052805D1B8
:10238000BDF8002022A1214802F052F900BF002030
:10239000ADF80200022600240BE0BDF81000400159
:1023A00004A931F8141000EA411087B23D46601CC0
:1023B000C4B2B442F1DB00BF0E480088052804D146
:1023C0002A461FA1114802F033F900BFADF80450AE
:1023D0004FF6FF70ADF806000020ADF808000120B0
:1023E0008DF80D006846FFF753FD05B0F0BD000005
:1023F000747001080200002043414E5F536574462B
:10240000696C7465725374640D0A0000D02B00204F
:1024100043414E5F46696C746572496E69745374CA
:10242000727563747572652E43414E5F46696C74B4
:1024300065724964486967683D25780D0A000000A7
:102440006D61736B3D25780D0A00000000218171DC
:10245000C171017241728172C1728170C1700321B8
:1024600001710221417101210180704710B50246BE
:102470000020936803F08063B3F1806F00D110E017
:10248000936803F00063B3F1006F01D1012008E00D
:10249000936803F08053B3F1805F01D1022000E024
:1024A0000420042874D002F5C07303EB00131B68EA
:1024B00003F0010402F5C07303EB00131C600B7AF8
:1024C0007BB94B7A0C8843EA445302F5C07404EBA1
:1024D00000142468234302F5C07404EB0014236045
:1024E00010E00B7A4C6843EAC4034C7A234302F5AC
:1024F000C07404EB00142468234302F5C07404EB99
:10250000001423608B7A03F00F038B7202F5C07303
:1025100003EB00135B6823F00F0402F5C07303EBB9
:1025200000135C6002F5C07303EB00135B688C7AE8
:10253000234302F5C07404EB001463608B7B1C061C
:102540004B7B44EA03440B7B44EA0323CC7A2343CA
:1025500002F5C07404EB0014A3608B7C1C064B7C5A
:1025600044EA03440B7C44EA0323CC7B234302F577
:10257000C07404EB0014E36002F5C07303EB0013B6
:102580001B6843F0010402F5C07303EB00131C60E9
:1025900010BD000010B50246002321B1012907D06B
:1025A00002290FD109E09068264C00EA04030BE0F1
:1025B0009068254C00EA040306E09068234C00EA8A
:1025C000040301E0002300BF00BF214C181BA342FD
:1025D00019D007DC83B16FF0806018180ED0022884
:1025E0002AD11AE0B0F5007F1CD01A4C00190FD088
:1025F000B0F5003F20D11AE002231FE000230020A5
:10260000154C20701AE000230020134C207015E0B8
:1026100000230020104C207010E0012301200E4CFC
:1026200020700BE0012301200B4C207006E00123F9
:102630000120094C207001E0002300BF00BFD8B288
:1026400010BD000003000004000300080000031098
:10265000000100080001FFF78C00002070B504465F
:10266000002515701D7024B91AB913B9002900DAB4
:1026700070BD002009E01578265C354415701D7882
:10268000167835441D70451CA8B28842F3DB00BFA4
:10269000EEE770B504460D4604B10DB9002070BDDB
:1026A000A06808B90020FAE72946A068FFF7EEFA0B
:1026B00006463046F3E700002DE9F0418AB00446B3
:1026C0000F46904600200090012C04D0022C02D02E
:1026D0000AB0BDE8F08117B1B8F1000F00D1F7E7FB
:1026E00091E08DF814400198000E8DF815000198C6
:1026F000000C8DF816000198000A8DF8170001985B
:10270000C0B28DF818009DF80A008DF81900002657
:1027100007E00DF10B00815DB01D05AA1154701C7E
:10272000C6B29DF80A00B042F3DC9DF80A00082802
:1027300009DA9DF80A20C2F1080113460DF11A02C8
:102740009818FCF79AFE00F053FE019800F004057B
:1027500000BF31480088052804D12A462FA13448FB
:1027600001F066FF00BF35B940F2FF71019801EA40
:102770005050019007E0042D05D16FF060410198A1
:1027800001EAD000019000BF23480088052804D149
:1027900028A12748019A01F04BFF00BF9DF81800BF
:1027A00000F00200022818D14120284908700520B5
:1027B0000090491C684602F05FFFBDF8002005A9A3
:1027C0002248C01CFCF714FEBDF80000401D82B278
:1027D0001E491F4803F07DFC15E041201B4908708D
:1027E0009DF80A00801D0090491C684602F044FFD5
:1027F0000E2205A91548C01CFCF7FAFD1322134947
:10280000134803F066FC01A93846FFF742FF002891
:102810007FF467AF00BF5BE702000020726563656D
:102820006976653A4944453D25780D0A0000000067
:10283000D02B0020726563656976653A64617461C6
:102840002E49643D25780D0A000000002402002076
:10285000E82B0020F0B585B004460E4604B116B949
:10286000012005B0F0BD20684769002201212068E1
:10287000FFF76FFC606850B969462068FFF7F6FD06
:10288000042801D0012000E00020054614E01421B6
:102890006846FCF714FE31466846FFF7D3F96946EF
:1028A0002068FFF7E3FD042805D131466068FFF793
:1028B00025FA054600E0002507F001020121206805
:1028C000FFF747FC2846CCE7024600200A4201D029
:1028D000012000E0002070477CB504460D461646F6
:1028E0004FF480623349344801F007FC3248A0605D
:1028F000324820600121052001F06CFC0121880391
:1029000001F068FC4FF48060ADF8000004208DF801
:10291000030069462A4800F00BFC4FF40070ADF844
:10292000000003208DF8020018208DF8030069468E
:10293000234800F0FDFB25208DF8040000208DF8D1
:1029400005008DF8060001208DF8070001A801F0B0
:102950008FFA32462946194800F0B2F84FF48062E7
:102960001849194801F0C9FB17486060002240F679
:102970006A11124802F099FC002240F646010F4805
:1029800002F093FC002240F226610C4802F08DFC1C
:10299000012240F22441094802F087FC002228214C
:1029A000064802F082FC00226021044802F07DFC0F
:1029B0007CBD0000242C0020182C00200038014091
:1029C000000801403C340020303400207CB504462F
:1029D0000D4616464FF480623349344801F08DFBB2
:1029E0003248A060324820600121092001F0F2FB4A
:1029F0000121880401F0CEFB4FF40060ADF8000027
:102A000004208DF8030069462A4800F091FB4FF43A
:102A10008060ADF8000003208DF8020018208DF8CA
:102A200003006946234800F083FB27208DF804004B
:102A300001208DF8050002208DF8060001208DF898
:102A4000070001A801F014FA32462946184800F0A0
:102A500037F84FF480621849184801F04EFB1748C8
:102A60006060002240F66A11114802F01EFC00224C
:102A700040F646010E4802F018FC002240F22661A2
:102A80000B4802F012FC002240F22441084802F0F8
:102A90000CFC00222821064802F007FC00226021DD
:102AA000034802F002FC7CBD3030002024300020BE
:102AB00000480040000C0140483800203C3800200D
:102AC0007FB506460D461446304602F069FB68465F
:102AD00002F085FC0020ADF80C0000950C20ADF84C
:102AE0000A0014F0010002D0012809D103E00020FF
:102AF000ADF8040008E04FF48050ADF8040003E0A6
:102B00000020ADF8040000BF00BF14F0300004D076
:102B1000102806D020280ED108E00020ADF80800CB
:102B20000DE04FF4C060ADF8080008E04FF480609D
:102B3000ADF8080003E00020ADF8080000BF00BFBA
:102B400014F0C00002D0802809D103E00020ADF8C5
:102B5000080008E04FF40050ADF8080003E0002042
:102B6000ADF8080000BF00BF6946304602F0C2FB66
:102B7000012240F22551304602F097FB012240F23B
:102B80002771304602F091FB0121304602F0FCFA39
:102B90007FBD70B504460D4604B10DB9002070BD6F
:102BA000A06808B90020FAE72946A06801F088FA71
:102BB00006463046F3E770B504460E4604B970BDCC
:102BC000606858B900BF8021206802F037FB0028F8
:102BD000F9D03146206802F0FEFB0FE000BF31461D
:102BE000606801F097FA054600F002FC012240F20D
:102BF0002771206802F059FB012DF0D000BFDEE7FD
:102C000070B506460C4615460EB104B105B970BD47
:102C100004E014F8011B3046FFF7CDFF2800A5F1B2
:102C200001018DB2F5D100BFF1E770B505460C4644
:102C300005B104B970BD04E014F8011B2846FFF784
:102C4000BAFF20780028F7D100BFF3E7704707E00C
:102C50004FF4E16100BF0A00A1F10101FBD1401E68
:102C60000028F5D1704706E0022100BF0A00A1F15B
:102C70000101FBD1401E0028F6D1704770B5044613
:102C800000BF1B480088052803D11AA11F4801F086
:102C9000CFFC00BF04B970BD267900BF144800887E
:102CA000052804D132461AA1184801F0C1FC00BF22
:102CB00006F0F00500BF0E480088052804D12A461A
:102CC00016A1124801F0B4FC00BF25B1102D06D0AA
:102CD000202D0AD104E0204601F076F905E000BF7E
:102CE0002146284601F012F900BF00BF00BFD2E71D
:102CF00002000020446961676E6F737469635265F6
:102D000073706F6E736550726F0D0A00D02B0020C8
:102D10007063693D25780D0A000000004672616D00
:102D200065747970653D25780D0A00000EB50121A6
:102D3000084601F04FFA0021084600F0D9F90120B9
:102D400000F088F800208DF8080010208DF80900A8
:102D5000012001908DF80A0001A800F095F84FF4C9
:102D6000407001F0BDF806208DF800000A208DF8B3
:102D7000010000208DF8020001208DF80300684654
:102D800001F076F80EBD000070B500BF264800883F
:102D9000052803D125A12A4801F04AFC00BF0120E3
:102DA00000F05EF800283ED0012000F053F8052026
:102DB000FFF759FF002434E00121224800F08CFA8B
:102DC0000546B5B900202049087020480078401C0D
:102DD0001E49087008460078022820D1810219484F
:102DE00000F085FA00201949087001201849087080
:102DF00015E000201549087013480078401C12495E
:102E0000087008460078022809D181020D4800F0B8
:102E10006CFA00200C49087002200D490870601CF3
:102E2000C4B2032CC8DB70BD0200002045585449D1
:102E3000305F49525148616E646C65720D0A000042
:102E4000D02B0020000801401200002011000020BB
:102E50001000002001490860704700001404014080
:102E6000014600200022074B1B6803EA0102054BC4
:102E700014331B680B4013B10AB1012000E000209D
:102E80007047000000040140002123498279002A94
:102E90003AD00A46126803689A430B461A600A1D24
:102EA000126803689A430B1D1A60027911440A687C
:102EB00003681A430A60184A0832126803689A4382
:102EC000154B08331A601A1D126803689A43124B97
:102ED0000C331A604279102A0ED11A1F1268036847
:102EE0001A430D4B08331A601A1D126803681A43FF
:102EF000094B0C331A600DE00749427911440A6806
:102F000003681A430A6005E0027911440A680368FD
:102F10009A430A6070470000000401400149C860FC
:102F2000704700000020024030B5044604254FF4ED
:102F3000302000F06FF80546042D17D10C480069C9
:102F400040F002000A49086108464461006940F007
:102F5000400008614FF4302000F05CF8054604485A
:102F6000006941F6FD71084001490861284630BDFD
:102F70000020024004200B49C96801F0010109B199
:102F800001200EE00749C96801F0040109B10220DF
:102F900007E00449C96801F0100109B1032000E00D
:102FA00004207047002002400348006940F0800080
:102FB00001490861704700000020024070B50446D6
:102FC0000D460426F00200F025F80646042E11D125
:102FD0000948006940F00100074908612580F002B6
:102FE00000F018F806460448006941F6FE710840F2
:102FF00001490861304670BD002002400248034983
:10300000486003484860704723016745002002403C
:10301000AB89EFCD00B502460423FFF7ABFF0346B3
:1030200003E0FFF7A7FF0346521E012B01D1002A40
:10303000F7D102B90523184600BD000008B50121EB
:10304000042001F0C7F80120ADF8000003208DF83E
:10305000020004208DF803006946244800F068F857
:103060000220ADF8000003208DF8020004208DF846
:10307000030069461D4800F05BF81020ADF8000021
:1030800003208DF8020010208DF8030069461748D0
:1030900000F04EF81021154800F027F94FF4807029
:1030A000ADF8000003208DF8020010208DF8030019
:1030B00069460E4800F03CF84FF480710B4800F070
:1030C00014F94FF40060ADF8000003208DF8020001
:1030D00010208DF803006946044800F029F84FF4E9
:1030E0000061024800F001F908BD0000000801403D
:1030F00030B500228B071C0F0F2303FA04F20B4B91
:103100008C1053F824309343084C8D1044F825302C
:1031100023468C1053F824308C07240F00FA04F453
:103120002343024C8D1044F8253030BD0800014087
:103130002DE9F0410246002500260020002300244E
:10314000002791F803C00CF00F0591F803C00CF0B4
:10315000100CBCF1000F03D091F802C04CEA050539
:1031600091F800C0BCF1000F31D0146800202BE0B2
:103170004FF0010C0CFA00F3B1F800C00CEA0306A2
:103180009E4220D183004FF00F0C0CFA03F7BC4392
:1031900005FA03FC4CEA040491F803C0BCF1280FC3
:1031A00006D14FF0010C0CFA00FCC2F814C00AE082
:1031B00091F803C0BCF1480F05D14FF0010C0CFA97
:1031C00000FCC2F810C0401C0828D1D31460B1F82C
:1031D00000C0BCF1FF0F34DD546800202EE000F188
:1031E000080C4FF0010808FA0CF3B1F800C00CEA23
:1031F00003069E4221D183004FF00F0C0CFA03F717
:10320000BC4305FA03FC4CEA040491F803C0BCF18A
:10321000280F05D100F1080C08FA0CF8C2F8148048
:1032200091F803C0BCF1480F07D100F1080C4FF032
:10323000010808FA0CF8C2F81080401C0828CED308
:103240005460BDE8F0810000F0B50A460023002478
:103250000021002500F00046B6F1004F02D11D4EBE
:10326000F16901E01B4E7168C0F3034583B200F4BD
:103270004016B6F5401F08D121F07061154E7668F2
:1032800026F07066134F7E6012E000F48016B6F5EB
:10329000801F06D1032606FA05F4A14341F07061B0
:1032A00006E0460D360103FA06F6B14341F07061BF
:1032B00022B1460D360103FA06F6314300F000460E
:1032C000B6F1004F02D1034EF16101E0014E716091
:1032D000F0BD0000000001400246002093680B4052
:1032E0000BB1012000E0002070474161704701618F
:1032F0007047014601F004007047000038B505250D
:1033000001217C2000F066FF002425E0294800EB25
:1033100004100088012805DD264800EB0410008811
:10332000042800DB17E0234800EB0410008980B27A
:10333000ADF8000003208DF802001E4800EB0410D9
:10334000007B8DF803001B4901EB041148686946B6
:10335000FFF7EEFE00BF641CAC42D7D3002425E08B
:10336000144800EB04100088012805DA114800EB2E
:1033700004100088002800DC17E00E4800EB041061
:10338000008980B2ADF8000003208DF802000948E2
:1033900000EB0410007B8DF80300064901EB0411DB
:1033A00048686946FFF7C4FE00BF641CAC42D7D32F
:1033B00038BD00008470010800BFFEE770B5054607
:1033C0000C4645F2555000F02BF8284600F01CF84A
:1033D000204600F01FF800F00FF800F001F870BD73
:1033E0004CF6CC40014908607047000000300040B6
:1033F00010B500F001F810BD4AF6AA200149086096
:1034000070470000003000400149486070470000EC
:1034100000300040014988607047000000300040E3
:103420000149086070470000003000407FB5044645
:10343000002500BF1B480088052803D11AA1214898
:1034400001F0F6F800BF00208DF80A008DF80B009F
:1034500001208DF80C00C4F34F30ADF800004FF69A
:10346000FF7000EAC400001DADF802006FF0604577
:10347000E04384EA00063540ED004FF6FF7000EAB5
:103480001540ADF80400A8B240F00200ADF8060007
:103490000020ADF8080001208DF80D006846FEF709
:1034A000F7FC7FBD020000204A313933395F4341C8
:1034B0004E5F53657446696C7465724578740D0A85
:1034C00000000000D02B00202DE9FF4104460F46EC
:1034D00000208DF8050004208DF8040036480760B0
:1034E000E378A278617894F800C0CCF3820000F011
:1034F0007FFB0090207900F00F008DF806009DF80A
:103500000620611D0DF10700FBF772FF00BF2B487D
:103510000088052804D12AA12D48009A01F088F8D6
:1035200000BF00BF25480088052805D19DF806206A
:1035300028A1274801F07CF800BF00250DE000BF5E
:103540001E480088052806D10DF10700425D26A11E
:103550001F4801F06DF800BF6D1C9DF80600A842E1
:10356000EDD8002622E069462048FFF773F90025D0
:1035700000E06D1C1E480078012802D0B5F5006FF0
:10358000F7D31B480078012800D111E0B5F5006F92
:103590000BD1022E09D100BF08480088052803D1AD
:1035A00014A10B4801F044F800BF761C032EDAD3B7
:1035B00000BFBDE8FF8100001800002002000020CD
:1035C00063616E646174612E49643D25780D0A0063
:1035D000D02B002063616E646174612E446C633D86
:1035E00025640D0A0000000025782000880B0020CB
:1035F0008C000020726573706F6E652073656E6459
:10360000206661696C00000038B504460020009017
:1036100004B938BD0C2000900C49684602F02CF823
:103620000A49891C204602F031F80848801D61686B
:103630000160A1684160BDF80000401D82B20349ED
:10364000491E034802F045FD00BFE2E74E0000209E
:10365000E82B00202DE9F04104464FF000080CB99A
:10366000BDE8F08100BFC0480088052803D1BFA194
:10367000C34800F0DDFF00BF2068C0F3074700BF6C
:10368000B9480088052804D13A46BEA1BC4800F0DC
:10369000CFFF00BFEC2F0CD006DCE82F75D0EA2F4F
:1036A00074D0EB2F73D19EE0EE2F71D0FE2FF9D1A5
:1036B00047E100BFAC480088052803D1B5A1B04858
:1036C00000F0B6FF00BFE07A4FF47F0101EA00414D
:1036D000A07A4FF47F4202EA00200144607A01EBB5
:1036E000000800BFA0480088052804D14246AEA1CA
:1036F000A34800F09DFF00BFAE480078002864D1C9
:10370000AD4890F8FE0000285FD12079102822D122
:103710000120A84908702078A74981F8F60000BF69
:1037200091480088052806D1084690F8F620A3A104
:10373000934800F07DFF00BFE07A4FF47F0101EA7B
:103740000041A07A4FF47F4202EA00200144607AEF
:10375000084499490860A0794FF47F4101EA0021AB
:103760006079084486B200BF7F480088052804D1EC
:10377000324699A1824800F05BFF00BFF02E08DDC1
:1037800003208D4981F8FE00EAE0CFE0B8E0E6E0F2
:10379000C1E08948A0F8F460E079874981F8FC002D
:1037A00000BF71480088052806D1084690F8FC2023
:1037B0008DA1734800F03CFF00BF40F2E2407E491B
:1037C000A1F8FA00012081F8FE007A48007801286B
:1037D00008D1794890F8FE00012802D100F016FACD
:1037E00000BF00BFBCE000BF5F480088052803D1D0
:1037F00085A1634800F01CFF00BF6F4890F8FE00F1
:10380000022846D161792079401EC0EBC0026A4887
:10381000001D8154A2792079401EC0EBC000401CDD
:103820006549091D0A54E2792079401EC0EBC000A9
:10383000801C0A54227A2079401EC0EBC000C01CB4
:103840000A54627A2079401EC0EBC000001D0A5461
:10385000A27A2079401EC0EBC000401D0A54E27AD3
:103860002079401EC0EBC000801D0A5401250EE0E7
:1038700000BF3D480088052806D14F48001D425D25
:1038800065A13F4800F0D4FE00BF681CC5B2082DFA
:10389000EEDB2079484991F8FD10884206DD464864
:1038A00090F8FD00401C444981F8FD0040F2EE20F4
:1038B0004149A1F8FA0000BF2B480088052806D12D
:1038C000084690F8FD2055A12D4800F0B1FE00BF3C
:1038D000394890F8FD00384991F8FC1088420ED123
:1038E0000120354981F8FE0000BF1F4800880528E7
:1038F00003D152A1224800F09BFE00BF30E02FE030
:1039000000BF19480088052803D151A11C4800F0C8
:103910008FFE00BF24E000BF13480088052803D1B4
:1039200050A1174800F084FE00BF19E000BF0E4808
:103930000088052803D152A1114800F079FE00BF8C
:103940000EE000BF08480088052803D153A10C48A9
:1039500000F06EFE00BF2046FFF756FE00E000BFFD
:1039600000BF00BF7CE60000020000204A3139336E
:10397000395F526573706F6E736550726F0D0A0018
:10398000D02B0020504455466F726D61743D2578F0
:103990000D0A00004A313933395F50465F54505F99
:1039A000434D0D0A0000000050474E3D25780D0A9A
:1039B0000000000071000020880A002054505F526F
:1039C000585F4D53472E74705F72785F6D73672E2A
:1039D00053413D25780D0A00627974655F636F7508
:1039E0006E743D25640D0A0054505F52585F4D536C
:1039F000472E7061636B6574735F746F74616C3DA7
:103A000025640D0A000000004A313933395F504601
:103A10005F44540D0A0000002578200054505F5286
:103A2000585F4D53472E7061636B6574735F6F6BA6
:103A30005F6E756D3D25640D0A000000726563655B
:103A4000766963652073756363657373210D0A007E
:103A50004A313933395F50465F52455155455354C9
:103A60000D0A00004A313933395F50465F41444402
:103A7000524553535F434C41494D45440D0A0000A4
:103A80004A313933395F50465F41434B4E4F574CB3
:103A90004544474D454E540D0A0000004A31393324
:103AA000395F50474E5F524553504F4E53450D0AB4
:103AB0000000000070B505460C46207820F002009A
:103AC0002070207920F0F0002071207900F00F00A4
:103AD000082804DD207920F00F00083020712946E5
:103AE0002046FFF7F1FC70BD70B50446002500BF0D
:103AF00031480088052803D130A1344800F098FDF2
:103B000000BF04B970BD206981783148007861F345
:103B100084002F490870EA20487020694079887035
:103B20000846007920F00F00C01C08712069407819
:103B3000C8702069807948712069C17924488171F1
:103B40000021C171FF21017241728172C172017342
:103B5000207901282AD1206980792169C97940EA30
:103B6000012600BF14480088052804D1324619A157
:103B7000164800F05DFD00BF15480078C0F38200D4
:103B80002843850445EA060005021148807805436C
:103B900000BF09480088052804D12A4610A10B4817
:103BA00000F046FD00BF2846FFF740FC08492046CC
:103BB000FFF780FF00BFA5E7020000204A3139333C
:103BC000395F53656E6450474E0D0A00D02B0020BC
:103BD000780A002050676E3D25780D0A000000002D
:103BE00046696C74657249443D25780D0A000000F1
:103BF00030B50446002040EA846041EA10452804BC
:103C000042EA10252802184330BD00001FB59DF878
:103C1000000020F01C001C308DF800009DF8000012
:103C200020F001008DF80000EC208DF801002C48F8
:103C300090F8F6008DF802009DF8040020F00F00C7
:103C400008308DF804002648046800BF2548008825
:103C5000052803D124A12A4800F0EAFC00BF00BFD8
:103C600020480088052805D19DF8022025A1244878
:103C700000F0DEFC00BF00BF1A480088052804D110
:103C8000224627A11E4800F0D3FC00BF144890F83C
:103C9000FC00134991F8FD1088421FDD11208DF8BA
:103CA000050002218DF806100D4890F8FD00401C1B
:103CB000C1B28DF80710FF218DF808108DF809109A
:103CC000E1B28DF80A10210A8DF80B10210C8DF845
:103CD0000C100220024981F8FE001FBD00BFFCE766
:103CE000880A0020020000204A313933395F7265AA
:103CF00061645F44545F5061636B65740D0A00003A
:103D0000D02B00206D73672E44657374696E6174E7
:103D1000696F6E416464726573733D25780D0A00A6
:103D200070676E3D25780D0A0000000070B50446EE
:103D30000D46002604B970BD00BF1C480088052848
:103D400003D11BA11E4800F073FC00BF1D48046096
:103D50000068856100201B490968C86120690078F6
:103D6000207100BF11480088052804D1227916A1CE
:103D7000134800F05DFC00BF20690679EF2E11DCCE
:103D8000EA2E06D0EB2E09D0EC2E08D0EE2E07D16D
:103D900003E02046FFF7A8FE03E002E001E000E0B8
:103DA00000BF00E000BF00BFC5E700000200002028
:103DB0004A313933395F726571756573740D0A0064
:103DC000D02B00206400002048616E646C652D3E9D
:103DD000526571756573742E4269744669656C64C9
:103DE0003D25640D0A00000000BFFEE730B5034624
:103DF0000C461D46002106E0480035F8200024F856
:103E00001100481C81B29142F6DB012030BD2DE942
:103E1000F04705460E461746A946FFF7EFF834204F
:103E2000FFF77CF84846FFF77FF88046B8F1040FAB
:103E300004D0FFF7B9F80020BDE8F08700240FE0B8
:103E400036F8141009EB4400FFF7B8F88046B8F1D3
:103E5000040F03D0FFF7A8F80020EDE7601C84B240
:103E6000BC42EDDBFFF7A0F80120E5E7704700005A
:103E700070B5002100230F22C47804B3154C2468C8
:103E800004F4E064C4F5E064210AC1F10403CA400B
:103E9000447804FA03F184781440214309010E4C5C
:103EA0000678A155047804F01F050124AC4005787C
:103EB0006D11AD0005F1E025C5F8004109E0047879
:103EC00004F01F050124AC40044D0678761145F836
:103ED000264070BD0CED00E000E400E080E100E071
:103EE00002490143024A1160704700000000FA05D0
:103EF0000CED00E0024A0A400243024B1A60704790
:103F000080FFFF1F08ED00E0704700002DE9F04141
:103F100086B005460C460020059001900290039063
:103F20000490274800680090102D2AD120796179EB
:103F30008846A679492E23D1E779022F02D0042F93
:103F40001CD100E000BF0C2005900DF1010105A877
:103F500001F092FB0DF10301204601F097FB606830
:103F6000CDF80700A068CDF80B00BDF81400401D87
:103F700082B26946134802F0ACF800BF00BF00BF30
:103F80001BE0202D19D10C2005900DF1010105A891
:103F900001F072FB0DF10301204601F077FB606830
:103FA000CDF80700A068CDF80B00BDF81400401D47
:103FB00082B26946034802F08CF806B0BDE8F08191
:103FC00080700108E82B002070B586B00446002000
:103FD000059001900290039004902F480068009093
:103FE000657900BF2D480088052803D12CA13248EF
:103FF00000F01EFB00BFA5F14100092849D2DFE80F
:1040000000F0050C0D0E292A2B2C2D00A079A07391
:10401000204601F04BFB06463BE03AE000BF0D2096
:1040200005900DF1010105A801F026FB0DF103013A
:10403000204601F02BFB6068CDF80700A068CDF8A2
:104040000B00BDF81400401D82B269461B4802F007
:1040500040F81EE01DE01CE01BE01AE00D2005907A
:104060000DF1010105A801F007FB0DF10301204648
:1040700001F00CFB6068CDF80700A068CDF80B00DC
:10408000BDF81400401D82B269460C4802F021F8C8
:1040900000BF00BF06B070BD7C70010802000020A8
:1040A00050726F6365737353696E676C65467261B6
:1040B0006D650D0A00000000D02B0020E82B0020C9
:1040C00010B502461AB1906808B1908808B900206E
:1040D00010BD10885388984201D10020F8E713885A
:1040E0009068C05C08701088401C938890FBF3F4C3
:1040F00003FB140010800120EAE700B101B970470A
:10410000002303804380816009B9838000E08280BE
:1041100000BFF4E770B504460E461CB1A06808B1B4
:10412000A08808B9012070BD6088401CA18890FB60
:10413000F1F201FB120085B22088A8420BD100BF2A
:1041400008480088052803D107A10B4800F070FA41
:1041500000BF0120E7E76188A06846546580002021
:10416000E1E70000020000205175654C697374504E
:104170006F73740D0A000000D02B00200146002050
:10418000034A506820F440400843506070470000E4
:104190000010024029B1064AD2690243044BDA6199
:1041A00004E0034AD2698243014BDA6170470000A0
:1041B0000010024029B1064A12690243044B1A61F9
:1041C00004E0034A12698243014B1A617047000000
:1041D0000010024029B1064A92690243044B9A61D9
:1041E00004E0034A92698243014B9A6170470000E0
:1041F0000010024029B1064AD2680243044BDA603B
:1042000004E0034AD2688243014BDA607047000041
:10421000001002402DE9F04100210022002500237A
:104220000026002400278C46DFF86081D8F804803F
:1042300008F00C0121B1042907D0082959D109E05F
:10424000DFF84C81C0F8008058E0DFF84481C0F806
:10425000008053E0DFF83481D8F8048008F470124D
:10426000DFF82881D8F8048008F48035920C0D2AF4
:1042700001D0921C00E0062235B9DFF8188102FB5C
:1042800008F8C0F8008033E0DFF80081D8F82C800F
:1042900008F48036DFF8F480D8F82C8008F00F0896
:1042A00008F1010446B9DFF8E880B8FBF4F808FB30
:1042B00002F8C0F800801BE0DFF8D080D8F82C802E
:1042C000C8F3031808F10107DFF8C080D8F82C8084
:1042D000C8F3032808F1020CDFF8B480B8FBF7F844
:1042E00008FB0CF8B8FBF4F808FB02F8C0F80080F3
:1042F00004E0DFF89C80C0F8008000BF00BFDFF85A
:104300008C80D8F8048008F0F0010909DFF8888073
:1043100018F80130D0F8008028FA03F8C0F80480BB
:10432000DFF86880D8F8048008F4E061090ADFF853
:10433000688018F80130D0F8048028FA03F8C0F833
:104340000880DFF84880D8F8048008F46051C90A72
:10435000DFF8448018F80130D0F8048028FA03F818
:10436000C0F80C80DFF82480D8F8048008F44041BD
:10437000890BDFF8288018F80130D0F80C80B8FBE2
:10438000F3F8C0F81080BDE8F08100000010024092
:1043900000127A0000093D008D0000209D000020E1
:1043A000704700007FB504460025002604B97FBD94
:1043B00000BF17480088052803D116A11A4800F04D
:1043C00037F900BF1948046008208DF80600174827
:1043D0000068006800901548006850F8051FCDF887
:1043E00007104068CDF80B0010480068007900F015
:1043F00001053DB10D480068007D10B9FDF79CFF37
:1044000000E000BF69460A48FEF724FA00BFCEE785
:104410000200002053656E645F73696E676C6566A9
:1044200072616D650D0A0000D02B0020180000207D
:10443000880B002010B500F001F810BD0CB500206D
:10444000019000903F48006840F480303D4908608A
:1044500000BF3C48006800F4003000900198401C08
:104460000190009818B90198B0F5A06FF1D13548C6
:10447000006800F4003010B10120009001E000203D
:104480000090009801285BD12F48006840F0100090
:104490002D4908600846006820F0030008600846BF
:1044A000006840F0020008602648406825494860DE
:1044B0000846406848600846406840F480604860AC
:1044C0000846C06A214908401E49C8620846C06AB9
:1044D00040F4C860C8620846006840F08060086028
:1044E00000BF1848006800F000600028F9D01548A7
:1044F000406820F47C10134948600846406840F446
:10450000E81048600846006840F08070086000BF0E
:104510000C48006800F000700028F9D00948406895
:1045200020F00300074948600846406840F0020058
:10453000486000BF0348406800F00C000828F9D12B
:104540000CBD0000001002400020024000F0FEFF01
:1045500038B504460025092C07D14FF416400090C9
:10456000851009202849C87035E0192C08D14FF46E
:10457000C95000904FF4964519202349C8702AE08D
:10458000572C08D145F2607000904FF461455720D8
:104590001D49C8701FE0112C08D141F25210009043
:1045A0004FF4E13511201849C87014E0232C08D1CC
:1045B00042F2043000904FF4613523201249C87054
:1045C00009E0462C07D144F2086000904FF4E12541
:1045D00046200D49C870002229460C48FEF77CF998
:1045E000002229460A48FEF7F1F9012269460948E6
:1045F000FFF70DFC4FF47A70FEF729FB0622024903
:10460000034801F066FD38BD3D000020D02B00209E
:10461000E82B002000F8030800200349088005204B
:1046200002490880704700000000002002000020BE
:104630000FB438B5044606A800904FF480710748BF
:10464000009B059AFAF7BAFE002000900349204625
:10465000FEF7EBFA38BC5DF814FB0000F400002014
:1046600000210748A0F8001880F80218002005492A
:1046700088604860C86008610349086070470000AE
:104680005402002038020020480000201049096828
:10469000491C0F4A116011464968491C5160114676
:1046A00049680C4A914206D30021094A51601146DB
:1046B0008968491C91600649C86805E0016811B124
:1046C0000168491E016040680028F7D1704700006A
:1046D000F401002080EE360010B51648006840F066
:1046E0000100144908600846406813490840114910
:1046F000486008460068114908400E4908600846AD
:10470000006820F4802008600846406820F4FE001D
:1047100048600846006820F0A05008604FF47F0011
:1047200088600020C862FFF785FE054805490860DB
:1047300010BD0000001002400000FFF0FFFFF6FE79
:1047400000F0000808ED00E010B50121244800F059
:1047500083FA002842D023480078401C2149087081
:104760000846007801281FD11F48007802281BD175
:10477000002008701D48007820B906221C491D48F9
:1047800001F0A7FC1C480088401C1B490880084613
:104790000088B0F5167F07D113480078022803D1AE
:1047A00081021648FEF7A1FD0F480078012811D1BB
:1047B0000020114908800B4908700C49087001213C
:1047C0000E48FEF789FD044624B906220C49094823
:1047D00001F07FFC0121024800F03BF910BD000010
:1047E00000040040160000201000002024000020DB
:1047F0002D000020E82B00201400002000080140BC
:104800002700002010B501210F4800F025FAD0B193
:1048100000210D4800F020F900210C4800F01CF99F
:10482000012080F3138800BF00BF0948006800F42E
:10483000E06008490843001D05490860BFF3408F48
:1048400000BF00BFFEE710BD000C0040001000409C
:104850000CED00E00000FA0510B50121144800F04D
:10486000FBF920B301211348FEF736FD044634B9A5
:1048700000201149087001201049087013E002203F
:104880000E4908700E48007868B90846007802287A
:1048900009D10C48007830B901210B4800F0DCF850
:1048A0000120084908700121014800F0D2F810BD2C
:1048B00000100040000801402400002010000020EB
:1048C0002300002021000020000400401FB501212A
:1048D0000220FFF75FFC1B4800F0CAF844F61F6097
:1048E000ADF808001848006844F62061B0FBF1F00C
:1048F000401E80B2ADF804000020ADF80A00ADF80B
:10490000060001A90F4800F0C1F901210D4800F08F
:104910009DF8012211460B4800F0AFF94FF44070AA
:10492000FFF7DEFA1D208DF8000004208DF801004D
:1049300003208DF8020001208DF803006846FFF780
:1049400097FA1FBD00040040780000201FB5012128
:104950000820FFF71FFC1B4800F08AF844F61F6090
:10496000ADF808001848006844F62061B0FBF1F08B
:10497000401E80B2ADF804000020ADF80A00ADF88A
:10498000060001A90F4800F081F901210D4800F04F
:104990005DF8012211460B4800F06FF94FF44070AA
:1049A000FFF79EFA32208DF8000000208DF80100FC
:1049B00003208DF8020001208DF803006846FFF700
:1049C00057FA1FBD000C0040780000201FB50121E0
:1049D0001020FFF7DFFB1B4800F04AF844F61F6089
:1049E000ADF808001848006844F62061B0FBF1F00B
:1049F000401E80B2ADF804000020ADF80A00ADF80A
:104A0000060001A90F4800F041F901210D4800F00E
:104A10001DF8012211460B4800F02FF94FF44070A9
:104A2000FFF75EFA36208DF8000003208DF80100B4
:104A30008DF8020001208DF803006846FFF718FA90
:104A40001FBD00000010004078000020CA43028211
:104A50007047CA430282704721B1028842F00102C6
:104A6000028004E002884FF6FE731A40028070470D
:104A700010B504466848844208D10121C014FFF7EC
:104A8000B9FB0021E014FFF7B5FBC4E0B4F1804F9F
:104A900008D101210846FFF78DFB00210120FFF717
:104AA00089FBB8E05D48844208D101210220FFF76C
:104AB00081FB00210220FFF77DFBACE058488442D7
:104AC00008D101210420FFF775FB00210420FFF726
